:020000040810E2
:10000000008004102D0E1008390C1008410C100847
:10001000430C1008450C1008470C100800000000A5
:10002000000000000000000000000000490C100863
:100030004B0C1008000000004D0C10084F0C10086D
:100040007D0E10087D0E10087D0E10087D0E100824
:100050007D0E10087D0E10087D0E10087D0E100814
:100060007D0E10087D0E10087D0E10087D0E100804
:100070007D0E10087D0E10087D0E10087D0E1008F4
:100080007D0E10087D0E10087D0E10087D0E1008E4
:100090007D0E10087D0E10087D0E10087D0E1008D4
:1000A0007D0E10087D0E10087D0E10087D0E1008C4
:1000B0007D0E10087D0E10087D0E10087D0E1008B4
:1000C0007D0E10087D0E10087D0E10087D0E1008A4
:1000D0007D0E10087D0E10087D0E10087D0E100894
:1000E0007D0E10087D0E1008000000007D0E100827
:1000F0007D0E10087D0E10087D0E10087D0E100874
:100100007D0E10087D0E10087D0E10087D0E100863
:100110007D0E10087D0E10087D0E10087D0E100853
:100120007D0E10087D0E10087D0E10087D0E100843
:100130007D0E10087D0E10087D0E10087D0E100833
:100140007D0E10087D0E1008000000000000000069
:100150007D0E10087D0E10087D0E10087D0E100813
:100160007D0E10087D0E10087D0E10087D0E100803
:100170007D0E1008550C10087D0E100800000000C0
:100180007D0E10087D0E10087D0E10087D0E1008E3
:100190007D0E10087D0E10087D0E10087D0E1008D3
:1001A0007D0E10087D0E10087D0E10087D0E1008C3
:1001B0007D0E10087D0E10087D0E10087D0E1008B3
:1001C0007D0E10087D0E10087D0E10087D0E1008A3
:1001D0007D0E10087D0E10087D0E10087D0E100893
:1001E0007D0E10087D0E10087D0E10087D0E100883
:1001F0007D0E10087D0E10087D0E10087D0E100873
:100200007D0E10087D0E10087D0E10087D0E100862
:100210007D0E10087D0E10087D0E10087D0E100852
:100220007D0E10087D0E10087D0E10087D0E100842
:100230007D0E10087D0E1008610C10087D0E100850
:100240007D0E10087D0E10087D0E10087D0E100822
:100250007D0E10087D0E10087D0E10087D0E100812
:100260007D0E10087D0E10087D0E10087D0E100802
:100270007D0E10087D0E10087D0E10087D0E1008F2
:100280007D0E10087D0E10087D0E10080000000085
:080290007D0E10087D0E100820
:1002A00010B5054C237833B9044B13B10448AFF3B0
:1002B00000800123237010BD3401001000000000F5
:1002C0002477100808B5034B1BB103490348AFF36B
:1002D000008008BD000000003801001024771008DD
:1002E00010F8012B11F8013B012A28BF9A42F7D0E0
:1002F000D01A70470000000000000000000000005D
:1003000001F0FF01102A2BDB10F0070F08D010F8C6
:10031000013B013A8B422DD010F0070F42B3F6D1CA
:10032000F0B441EA012141EA014122F007047FF0E3
:1003300000070023F0E80256083C85EA010586EA3A
:10034000010685FA47F5A3FA87F586FA47F6A5FA76
:1003500087F68EB9EED1F0BC01F0FF0102F0070282
:1003600032B110F8013B013A83EA010313B1F8D12D
:100370000020704701387047002D06BF354603380E
:10038000073815F0010F07D1013015F4807F02BF47
:10039000013015F4C03F0130F0BC0138704700BF98
:1003A00053B94AB9002908BF00281CBF4FF0FF31DC
:1003B0004FF0FF3000F070B9ADF1080C6DE904CEDC
:1003C00000F006F8DDF804E0DDE9022304B0704730
:1003D0002DE9F047089E0D4604460F46002B4AD1F2
:1003E0008A42944665D9B2FA82F343B102FA03FC19
:1003F000C3F120029F4020FA02F217439C404FEACB
:100400001C4E1FFA8CF5B7FBFEF1220C0EFB117788
:1004100042EA074201FB05F090420AD91CEB0202B6
:1004200001F1FF3780F01C81904240F219810239BE
:100430006244121AA4B2B2FBFEF00EFB102244EA90
:10044000024400FB05F5A5420AD91CEB040400F1A7
:10045000FF3280F00781A54240F2048164440238F3
:1004600040EA0140641B00211EB1DC400023C6E9C4
:100470000043BDE8F0878B4208D9002E00F0ED80E4
:100480000021C6E900050846BDE8F087B3FA83F10C
:10049000002949D1AB4202D3824200F2F880841A8B
:1004A00065EB030201201746002EE2D0C6E90047A3
:1004B000DFE702B9FFDEB2FA82F3002B40F0908052
:1004C0008A1A4FEA1C471FFA8CFE0121B2FBF7F58E
:1004D00007FB1520220C42EA00420EFB05F0904279
:1004E00008D91CEB020205F1FF3802D2904200F25B
:1004F000CB804546121AA4B2B2FBF7F007FB1022DC
:1005000044EA02440EFB00FEA64508D91CEB040495
:1005100000F1FF3202D2A64500F2BB801046A4EBE8
:100520000E0440EA05409FE7C1F120078B4022FA04
:1005300007FC4CEA030C05FA01F420FA07F3FD402E
:100540004FEA1C492343B5FBF9F81FFA8CFE09FB5F
:1005500018551C0C44EA054408FB0EF5A54202FAA6
:1005600001F200FA01F00BD91CEB040408F1FF3A88
:1005700080F08880A54240F28580A8F1020864449A
:10058000641B9DB2B4FBF9F309FB134445EA044430
:1005900003FB0EFEA64508D91CEB040403F1FF354E
:1005A0006CD2A6456AD9023B644443EA0843A3FBE4
:1005B0000295A4EB0E04AC42C846AE4656D353D0C7
:1005C00056B1B0EB080264EB0E0404FA07F7CA4018
:1005D000CC401743C6E9007418460021BDE8F087F7
:1005E000C3F1200102FA03FC20FA01F225FA01F11D
:1005F0009D402A434FEA1C471FFA8CFEB1FBF7F0DF
:1006000007FB1015110C41EA054100FB0EF58D4268
:1006100004FA03F408D91CEB010100F1FF382FD2D2
:100620008D422DD902386144491B92B2B1FBF7F5D6
:1006300007FB151142EA014205FB0EF1914208D970
:100640001CEB020205F1FF3816D2914214D9023D8B
:100650006244521A45EA004138E73146304608E71D
:100660003946E6E61046FBE64845A9D2B9EB020852
:1006700065EB0C0E013BA3E74546EAE72B4694E702
:100680004046D1E7D0467BE7023D624432E7084668
:100690000AE76444023842E7704700BF054BD3F8CD
:1006A000882042F47002C3F888201A6942F01002D0
:1006B0001A61704700ED00E01F4BD3F8E02042F0D4
:1006C0000202C3F8E020D3F8E02086B002F0020274
:1006D0000192019AD3F8E02042F00102C3F8E02031
:1006E000D3F8E02002F001020292029AD3F8E0204F
:1006F00042F00402C3F8E020D3F8E02002F0040244
:100700000392039AD3F8E02042F48072C3F8E02009
:10071000D3F8E02002F480720492049AD3F8E02027
:1007200042F08002C3F8E020D3F8E03003F0800309
:100730000593059B06B0704700440258034B0A68B6
:100740001A60034B01221A60002070479C010010C0
:100750009001001007B505F02BFB0021012005F0EA
:1007600059FB08B100F09EF9002300930849094B9A
:1007700009484FF0FF3205F005FC002804DA03B009
:100780005DF804EB00F08EB903B05DF804FB00BF28
:10079000647710083D071008A00100101FB50390F2
:1007A0000948826A531C04D100F07CF905B05DF859
:1007B00004FB04230121CDE9003103AB416A04F0BD
:1007C000EFFE0028F2DAEFE7A001001070B5164C3A
:1007D0002378022B1AD1154D002000F0F1F92B6877
:1007E0000BB905F0DFFB2B680BB100232B60104D1C
:1007F000104E00F0C5FB2B683060984206D00E49C1
:100800000E48402205F0EFFC33682B602378032B61
:1008100009D1002000F0E4F9002323700748BDE867
:10082000704005F0BFBC70BD58030010900100106F
:100830009801001094010010500100105C0300109A
:1008400000F00F0337B5083BC0F30322C0F30744A1
:10085000050E511C062B37D8DFE803F0040E3410C8
:1008600021272D001D4806F07FF821461C4806F080
:100870007BF81C4829460AE01B48F4E71B4806F0B1
:1008800073F821461A4806F06FF81A48294606F010
:100890006BF80A2003B0BDE8304006F077B8164880
:1008A00006F062F815482146F1E7154806F05CF8B5
:1008B00014482146EBE7144806F056F8134804EBB9
:1008C000C511E4E71248CEE7C0F30722C1B2009594
:1008D0002346104806F048F803B030BD777710087B
:1008E0008877100893771008A2771008B27710085D
:1008F000C9771008D7771008E3771008FA7710083F
:10090000087810081B7810082A7810083C7810081E
:10091000487810085D781008F8B51348134D05F0B5
:1009200054FC4FF6FF77C0F38F04013CA4B2BC42E5
:1009300000D1F8BD15F8043C63F3070615F8033C35
:1009400063F30F2615F8023C63F3174615F8013CD4
:1009500063F31F662EB13046FFF720FF3046FFF7E6
:100960006FFF0435E1E700BF5C0300105401001085
:1009700008B5032000F024F9FFF7CEFFBDE80840DA
:10098000032000F02DB908B5002000F0EBF801209D
:1009900000F0E8F8022000F0E5F8032000F0E2F8AB
:1009A000002000F00DF9012000F00AF9022000F00B
:1009B00007F9032000F004F94FF4967000F0E6FA0E
:1009C000002000F00DF9012000F00AF9022000F0EB
:1009D00007F9BDE80840032000F002B910B50A4C41
:1009E0000A2005F0D3FF204606F02CF8074806F051
:1009F00029F8074806F026F8204606F023F8BDE857
:100A000010400A2005F0C2BF84781008AE781008A4
:100A1000D3781008204B07B5D3F8E02042F00072DD
:100A2000C3F8E020D3F8E03003F000730120019315
:100A3000019B01F03DF901F093F901220221002010
:100A400001F04CF9154B1B68C3F30313072B144B30
:100A50000BBFD3F80421D3F8142142F0010242F075
:100A600001020CBFC3F80421C3F8142100F02EFAD0
:100A7000FFF770FEFFF720FE00F01AF800F04AF9C9
:100A8000FFF781FF05F0B4FAFFF7A8FF05F0D0FAF1
:100A9000FFF79CFEFAE700BF0044025800ED00E0BB
:100AA0000064025808B572B6022000F089F8FEE72B
:100AB00000B58BB028220021684606F0A3F8144840
:100AC000144A0023C0E900237F21FF22C0E902125B
:100AD000C0E906330361436102F02EFA08B1FFF763
:100AE000E1FF0123009302930023CDE90333CDE915
:100AF0000533CDE90733064880236946099302F0A0
:100B000067FA08B1FFF7CEFF0BB05DF804FB00BF3A
:100B1000E00100100040005810B50446B2B0C822F1
:100B20000021684606F06EF822680C4B9A4212D1FA
:100B300000234FF48002CDE9002368464FF4007390
:100B40002E9301F005FB08B1FFF7ACFF044A136FC9
:100B500043F40043136732B010BD00BF004000589B
:100B600000440258134B30B5D3F8E02042F48072B1
:100B7000C3F8E020D3F8E03089B003F48073029327
:100B8000029B0D4B53F820500395032306930B4B08
:100B9000012453F82000019003A9CDE9044400F09A
:100BA0007BFA01982246A9B200F05EFB002009B052
:100BB00030BD00BF004402580079100810791008B9
:100BC00008B5054B33F82010044B002253F82000E1
:100BD00000F04AFB002008BD0079100810791008C9
:100BE00008B5054B33F82010044B012253F82000C0
:100BF00000F03AFB002008BD0079100810791008B9
:100C00000C4B07B5D3F8F42042F00202C3F8F420ED
:100C1000D3F8F43003F002030193002206217E2072
:100C2000019B00F0D9F97E2003B05DF804EB00F0E1
:100C300005BA00BF0044025808B501F08BF9FEE781
:100C4000FEE7FEE7FEE7FEE770477047704700F0FB
:100C50008BB90000014800F005BC00BF340700104C
:100C600001F02EB80120704708B506F04FF81623A2
:100C700003604FF0FF3008BD08B506F047F81623B3
:100C80000360FEE770B50D4614460E46731B9C428A
:100C900001DC204670BDAFF3008006F8010BF5E7DC
:100CA00070B50D4614460E46731B9C4201DC20466F
:100CB00070BD16F8010B00F0A9F8F5E74FF0FF3012
:100CC00070474FF400534B6000207047012070477D
:100CD000002070470B4A116810B5034609B90A494C
:100CE0001160106809490A4C0344091B8B4206D95C
:100CF00006F00CF80C2303604FF0FF3010BD1360BA
:100D0000FCE700BF04020010880B001000800410F4
:100D1000000800001648174A08B54FF4E133C0E94F
:100D2000002300230C22C0E90233C0E90523C0E9F7
:100D30000733C0E90933036102F0E8FC08B1FFF7AB
:100D4000B1FE0B48002102F04EFD08B1FFF7AAFEEC
:100D50000748002102F067FD08B1FFF7A3FE044831
:100D600002F026FD18B1BDE80840FFF79BBE08BDA4
:100D7000080200100010014010B5BAB00446142259
:100D8000002103A805F03EFFC822002108A805F0B5
:100D900039FF22681A4B9A4230D10122002308A859
:100DA000CDE9082301F0D4F908B1FFF77BFE154B1C
:100DB0001548D3F8F02042F01002C3F8F020D3F821
:100DC000F02002F010020192019AD3F8E02042F0E4
:100DD0000102C3F8E020D3F8E03003F001030293EE
:100DE000029B4FF4C0620223CDE903230023CDE927
:100DF000053303A90723079300F04EF93AB010BD5D
:100E000000100140004402580000025807B54FF49A
:100E10007A730190012201A9034802F0C5FB0198F1
:100E200003B05DF804FB00BF08020010DFF834D007
:100E3000FFF734FC0C480D490D4A002302E0D4585A
:100E4000C4500433C4188C42F9D30A4A0A4C002314
:100E500001E013600432A242FBD305F05DFFFFF70F
:100E6000D9FD70470080041000000010340100100C
:100E7000DC80100834010010840B0010FEE7000035
:100E800038B50F4B1A7805460AB9012038BD4FF422
:100E90007A73B3FBF2F30B4A1068B0FBF3F000F087
:100EA000DBF804460028F0D10F2DEED80246294683
:100EB0004FF0FF3000F090F8034B20461D60E5E74F
:100EC00008000010000000100C00001013B5214CA9
:100ED000214AD4F8D83043F48043C4F8D830D4F849
:100EE000D83003F480430193019BD2F8003423F4FB
:100EF0007F2323F4706343F40143C2F80034D2F833
:100F0000003443F00103C2F80034032000F052F82B
:100F100000F038FFA269A3691049C2F3032203F06D
:100F20000F038A5CCB5C02F01F02D04003F01F036A
:100F3000D8400B4B18600B4B18600020FFF7A0FF48
:100F4000044620B9FFF75CFE204602B010BD012424
:100F5000FAE700BF004402580040024054771008EE
:100F60000400001000000010034A044B11681B78B5
:100F70000B441360704700BF9C0200100800001073
:100F8000014B1868704700BF9C02001038B504463A
:100F9000FFF7F6FF631C1CBF054B1B78054618BF07
:100FA000E418FFF7EDFF431BA342FAD338BD00BF9F
:100FB000080000100749CA6822F4E0620302120424
:100FC00003F4E063120C134343F0BF6343F40033B4
:100FD000CB60704700ED00E0164B30B5DC68C4F321
:100FE0000224C4F10703251D042B28BF0423062D6A
:100FF0004FF0FF358CBF033C002405FA03F321EAD0
:101000000303A54022EA0502A340002843EA0203A5
:10101000ACBF00F16040084A4FEA0313B8BF00F0CC
:101020000F00DBB2AABF00F56140135480F8003313
:1010300030BD00BF00ED00E014ED00E0002807DB4C
:10104000044A4109012300F01F00834042F8213087
:10105000704700BF00E100E00138B0F1807F0BD2A3
:101060004FF0E023054A5861F02182F82310002058
:10107000072298611A6170470120704700ED00E077
:10108000044B1B68C3F30313072B0CBF0320012081
:10109000704700BF00ED00E02DE9F74FDFF8C49185
:1010A00000234FF0B0440A6832FA03F502D103B0CE
:1010B000BDE8F08F4FF0010E0EFA03FE1EEA0202A9
:1010C00000F0BA804E6806F003054FEA43084FF07F
:1010D000030C6F1E0CFA08FC012F6FEA0C0C34D8BD
:1010E000876807EA0C0ACF6807FA08F747EA0A0791
:1010F0008760476827EA0E0EC6F300179F4047EA4D
:101100000E074760C76807EA0C0E8F6807FA08F7F2
:1011100047EA0E07022DC76019D14FEAD30A00EB48
:101120008A0A03F0070BDAF820704FEA8B0B4FF0B6
:101130000F0E0EFA0BFE27EA0E0E0F6907FA0BF7D9
:1011400047EA0E07CAF8207001E0032DDAD10768DC
:1011500005FA08F507EA0C073D4316F4403F056021
:101160006AD0D9F8F45045F00205C9F8F450D9F81E
:10117000F45023F0030707F1B04705F0020507F527
:101180008067019503F0030C019DD7F808E04FEA52
:101190008C0C0F2505FA0CF52EEA050E304DA842F1
:1011A0004CD005F58065A8424AD005F58065A84277
:1011B00048D005F58065A84246D005F58065A8426F
:1011C00044D005F58065A84242D005F58065A84267
:1011D00040D005F58065A8423ED005F58065A8425F
:1011E0003CD005F58065A8420CBF09250A2505FA03
:1011F0000CF545EA0E05BD602568D74316F4801F3F
:101200000CBF3D4015432560656816F4001F0CBFF8
:101210003D4015436560D4F8C45016F4003F0CBF40
:101220003D401543C4F8C450D4F8C050F60354BF31
:101230003D401543C4F8C050013334E70025D6E7DC
:101240000125D4E70225D2E70325D0E70425CEE720
:101250000525CCE70625CAE70725C8E70825C6E720
:1012600000000258004402580AB181617047090425
:10127000FBE72DE9F043054685B095F8F8429DF867
:1012800030E09DF83480BDF83890012C25D0012441
:1012900085F8F8422C2404FB0154D009002702F001
:1012A0007F0684F83D7084F8383084F8391084F86B
:1012B0003F8084F83A6084F83B0084F83CE0A4F86E
:1012C00040902868CDF800E0CDE9018902F0DAFC11
:1012D00085F8F87205B0BDE8F0830220FAE710B592
:1012E00090F8F832012B044609D0012380F8F83237
:1012F000006802F04DFD002084F8F80210BD0220C5
:10130000FCE72DE9F04106468AB0002843D090F86A
:10131000F932046803F0FF021BB980F8F82204F0E8
:10132000E5FF032386F8F932E36B344613F4807348
:1013300054F8100B08BFF36002F00BFB0FCC6D46A6
:101340000FC50FCC0FC594E8030085E8030006F134
:101350000408374698E80E00306802F0ABFA57F8F8
:10136000100B012102F0FBFA0FCFEC46ACE80F00A6
:101370000FCFACE80F0094E8030085E8030098E87D
:101380000E00306802F0AAFB012386F8F932002033
:101390000AB0BDE8F0810120FAE70000F0B42C2685
:1013A00006FB01069DF81070059DBDF818409DF8DC
:1013B0001CC086F83B2086F83F307FB90327022BFC
:1013C00086F8427086F83DC03CD0BB423AD0012B33
:1013D0001FD12C2303FB0103002230E04FF0020C4D
:1013E00086F842C0032B14D801A656F823F000BF9C
:1013F00001141008D31310084514100845141008E0
:10140000012F06D12AB92C2303FB01039CB983F8D1
:1014100055702C2202FB0103DC64002483F8391090
:10142000A3F860401946027B5D641C650068F0BC4F
:10143000383102F01BBD93F85560002EE9D183F8D6
:101440004220E6E72C2303FB01032AB993F85560F9
:10145000002EF4D00222F2E793F85420002AF9D1AA
:10146000EDE700BF2DE9F04FD0F8009085B00446BD
:10147000484602F02EFB012840F0F880206802F078
:101480001CFB002800F0F280206802F016FB8102AD
:1014900048BF2368206844BF4FF400125A6102F02D
:1014A0000CFBC20248BF2368206844BF4FF480127F
:1014B0005A6102F002FB430148BF2368206844BF21
:1014C0004FF080625A6102F0F8FA870748BF23683C
:1014D000206844BF02225A6102F0EFFA860018D554
:1014E00023684FF000525A61D9F84034DD0710D418
:1014F0001021484602F064FA484602F087FAA369D0
:10150000022B03D12068012102F050FB204604F099
:10151000C9FF206802F0D1FAC0013DD52568D5F891
:1015200040340293D5F840340393039B23F02E03F9
:101530000393029B990709D5029BDA0702D520463F
:1015400004F0ACFF039B43F002030393029B1B07D1
:1015500018D5039B43F008030393029B5F0740F1F8
:101560009080A169022940F08480029B206803F4E6
:10157000C023B3F5802F18BF012102F017FB2046CE
:1015800004F095FF029B9E0642BF039B43F020039D
:101590000393039BC5F84034206802F08EFA0507D8
:1015A00005D5204604F076FF236808225A6120689A
:1015B00002F083FAC00642D52668B36923F010030F
:1015C000B361376AC7F34343022B33D1C7F30A1819
:1015D000B8F1000F2ED007F00F072C2505FB0745AB
:1015E000696C39B32B6DEA6C434493424DD8424643
:1015F000304602F042FA6B6CB5F8401043446B641D
:1016000006F5A0662B6D7A0106EB47174344884523
:101610002B653B690ED1C3F3C9435BB1B35823F0CB
:10162000804343F00043B35095F8543083F00103F6
:1016300085F854302268936943F010039361206861
:1016400002F03BFA810111D5206802F09CFB09F5FC
:10165000A06983464FF0000A4FF002082C27A368C8
:101660002668534515D84FF00073736105B0BDE887
:10167000F08F2369012B04BF4EF66022C5F80424C5
:101680007DE7204604F017FF7CE7042385F86030EF
:10169000D0E70AF00F032BFA03F3DA0740F1AD802D
:1016A000D9F800305FFA8AF51B042946304640F12C
:1016B000548102F006FA420709D506F5A06303EB50
:1016C000451304229A6007FB054307220FE02068B8
:1016D000294602F0F6F9C30522D506F5A06303EB0F
:1016E00045134FF480729A6007FB0543082283F884
:1016F00061202068294602F04BFB2946206802F051
:10170000E0F910F4007F2946206836D006F5A0667F
:1017100002F03EFB06EB45164FF40073B3606CE03D
:101720002068294602F0CDF9000709D506F5A06327
:1017300003EB451308229A6007FB05430622D6E710
:101740002946206802F0BDF941050AD506F5A063D7
:1017500003EB45134FF480629A6007FB05430922AF
:10176000C5E72068294602F0ACF90206C5D506F5A2
:10177000A06303EB45138022A4E702F0A2F9C3079C
:101780004DD506F5A06101EB45162023B360E36853
:1017900068014BB107FB054C3269DCF84830C2F3F5
:1017A00012029B1ACCF8503007FB054301224FF080
:1017B000000C83F86120C3F85CC0B26093F83F204E
:1017C00012F0FD021ED12068294602F0E1FA102332
:1017D000B360E368012B07FB054508D12B6DB5F815
:1017E0004020013B1344B3FBF2F3DE0705D595F827
:1017F000543083F0010385F854300AF1010A09F1ED
:1018000020092CE7012AE4D10E5846F000560E506C
:1018100083F860202946204604F048FED9E7206876
:10182000294602F04EF9800605D506F5A06606EBBE
:101830004516202372E72068294602F042F910F08D
:1018400002034DD006F5A06606EB451307FB0542E3
:10185000C3F8088092F86130012B4FEA45110CD192
:1018600040F20123A2F8603007FB0543294693F8B4
:101870006020204604F01AFEBFE7023B072BF3D896
:1018800001A252F823F000BFFB171008C91B100873
:10189000A9181008C91B1008DD1B1008E71B100849
:1018A000CD181008E71B100807FB054340F2022281
:1018B000A3F8602093F83F3013F0FD0FD4D1735894
:1018C00023F0804343F000437350CDE707FB05430B
:1018D000DA6D0132DA654FF40172A3F86020C3E7D4
:1018E00020680193294602F0ECF810F040020FD076
:1018F00006F5A06606EB45164022B26007FB0542DE
:10190000019BD365052182F861102068294652E0C9
:1019100029462068019202F0D4F8C1067FF56DAF28
:1019200007FB0543206893F83F10019A032907D16C
:10193000DA65042283F86120294602F029FA06E0DC
:1019400011F0FD0103D1E268D965002AF1D006F556
:10195000A06606EB45161023E0E602F0B2F810F0A0
:1019600004030BD006F5A06606EB45160423B3600E
:10197000072207FB054383F86120C6E7206801932F
:10198000294602F09EF8820618D506F5A06606EBF9
:1019900045162022B26007FB0542206892F83D10F0
:1019A000019B01297FF429AF82F83D3040F20233D8
:1019B000A2F86030294602F0EBF91EE720682946BC
:1019C00002F07FF810F4007207D006F5A06606EB6F
:1019D00045164FF40073B36097E7206801922946DB
:1019E00002F06FF810F001031BD007FB0543019ACA
:1019F000DA6520680193294602F063F806F5A066CF
:101A0000430606EB451605D5019B012283F83D20D0
:101A10004023B36007FB05420123B36082F86130C5
:101A200073E720680193294602F04BF8400613D56E
:101A300007FB0542052182F861100121019B82F814
:101A40003D10D3652068294606F5A06602F0A0F98E
:101A500006EB4516402361E62946206802F031F87E
:101A6000010709D506F5A06606EB45160823B36005
:101A7000062207FB05437EE72068294602F021F88D
:101A8000C20612D507FB05430022DA65042283F85B
:101A9000612093F83D202AB993F83C2012B9012225
:101AA00083F83D202068294647E72068294602F050
:101AB00008F8030624D5E36873B907FB054307223A
:101AC00083F861202068294602F062F906F5A066D5
:101AD00006EB4516802321E607FB0543DA6D01324C
:101AE000022ADA6509D90022DA65042283F8602027
:101AF0002946204604F0DAFCE8E783F86080E5E751
:101B00002068294601F0DDFF40050FD507FB05439E
:101B1000092283F861202068294606F5A06602F0B4
:101B200037F906EB45164FF48063F7E52946206840
:101B300001F0C7FF81077FF560AE06F5A06606EBF2
:101B400045136901C3F8088007FB054393F861203A
:101B5000012A23D140F20122A3F8602093F83F200C
:101B6000023A012A3FF680AEE26832B993F8552076
:101B700082F0010283F8552076E6012A7FF474AEE4
:101B8000DA6C002A3FF470AEB3F84010013A0A4410
:101B9000B2FBF1F2D2077FF567AEE7E7D31E062B63
:101BA0003FF62BAE01A252F823F000BFC91B10086C
:101BB000D31B1008D31B1008DD1B1008E71B1008EF
:101BC000FB171008E71B100807FB054383F861802B
:101BD0004AE607FB054340F202227EE607FB054387
:101BE00040F2052279E607FB0543DA6D83F8618050
:101BF0000132022ADA6505D90022DA65042283F867
:101C0000602031E683F8608059E600BF10B590F897
:101C1000F832012B04460CD0012180F8F81200683C
:101C200002F000F8206801F08EFE002084F8F8022F
:101C300010BD0220FCE710B590F8F832012B0446E5
:101C400009D0012380F8F832006802F0B5F90020CD
:101C500084F8F80210BD0220FCE7006801F0C4BF60
:101C60002C2303FB010191F8600070472C2303FB38
:101C70000101086D7047006801F0FFBF006801F0C6
:101C8000F1BF0000044B203053F82000034BC01A72
:101C900018BF0120704700BF006402580001008097
:101CA000024B41F4807143F82010704700640258E1
:101CB000024A136918431061704700BF006502585B
:101CC00008B5054BD8691A6922EA00021A61586101
:101CD00004F066F808BD00BF0065025838B51E4C18
:101CE000236823F0010318430D462060C2B9FFF7B3
:101CF000C7F9032813D1236923F001032361174B8C
:101D00001A6942F004021A61BFF34F8FBFF36F8F5D
:101D1000012D10D130BF1A6922F004021A6138BDBA
:101D2000012A0AD1FFF7ACF90128F8D1636923F041
:101D300002036361E3E720BFEDE7FFF7A1F90328A2
:101D40000BBF2369636923F0040323F004030CBF72
:101D500023616361E3E700BF0048025800ED00E043
:101D600008B5FFF78DF9032801D120BF08BD40BF9A
:101D7000FBE70000024AD36843F08073D3607047EA
:101D800000480258494B1A6902F03802102A30B54F
:101D900000F08880182A0CD0002A40F085801A684C
:101DA000434812F0200F03D01B68C3F3C103D8408F
:101DB00030BD996A9D6ADC6A5A6B15F47C7FC5F365
:101DC0000510F5D0C2F3CC0204F00104624307EE23
:101DD000900A06EE902A01F003010129B8EEE77A95
:101DE000FAEEE96AB7EE006A4ED002293ED0002929
:101DF0004AD11A68920627D519682D4A1B6BC1F380
:101E0000C101CA4007EE902AF8EEE75AC3F308036F
:101E1000C5EE877A07EE103AB8EEC77A37EE267A23
:101E200037EE067A67EE877A204B1B6BC3F34623A7
:101E3000013307EE103AF8EEC76A87EEA67AFCEE99
:101E4000C77A17EE900AB3E71B6BC3F3080307EEDC
:101E5000903AF8EEE77A77EEA67A77EE867A9FEDFB
:101E6000156AC6EE076A67EEA67ADDE71B6BC3F359
:101E7000080307EE903AF8EEE77A77EEA67A77EE67
:101E8000867A9FED0D6AECE71B6BC3F3080307EE40
:101E9000903AF8EEE77A77EEA67A77EE867A9FEDBB
:101EA000076ADEE7064883E7064881E700440258F0
:101EB0000090D0030024744C20BCBE4B0024744A14
:101EC00040787D0100093D0008B5FFF75BFF0A4B34
:101ED0000A499A699B69C2F3032203F00F038A5CE3
:101EE000CB5C02F01F02D04003F01F03D840044B2C
:101EF0001860044B186008BD00440258547710085D
:101F0000040000100000001008B5FFF7DDFF054BCE
:101F1000054ADB69C3F30213D35C03F01F03D84007
:101F200008BD00BF004402585477100808B5FFF7F9
:101F3000CBFF054B054ADB69C3F30223D35C03F0F7
:101F40001F03D84008BD00BF004402585477100852
:101F50007047000010B5054C636E5B0504D5FFF7B4
:101F6000F7FF4FF48063A36610BD00BF0044025822
:101F7000F8B53A4CA36A03F00303032B06460D465B
:101F800069D0236823F080632360FEF7F9FF0746DA
:101F900023681A014BD4A36A326823F47C3343EAE2
:101FA0000233A362B368F268013B013A5B02120498
:101FB00002F4FE029BB213437268013AC2F30802B4
:101FC00013433269013A120602F0FE421343A3633F
:101FD000E36A726923F0C0031343E362E36AB26900
:101FE00023F020031343E362E36A23F01003E36268
:101FF000E36BF26923F47F4323F0F80343EAC2035F
:10200000E363E36A43F01003E362E36AB5B943F4C0
:102010000023E362114C236843F080632360FEF7E2
:10202000AFFF054623681B010FD5002005E0FEF732
:10203000A7FFC01B0228ABD90320F8BD012D0CBFA0
:1020400043F4801343F40013E3E7FEF799FF401BCA
:102050000228E7D9F0E70120EFE700BF004402586B
:10206000F8B53A4CA36A03F00303032B06460D466A
:1020700069D0236823F080532360FEF781FF074671
:1020800023689A004BD4A36A326823F07C7343EA36
:102090000253A362B368F268013B013A5B02120487
:1020A00002F4FE029BB213437268013AC2F30802C3
:1020B00013433269013A120602F0FE4213432364CD
:1020C000E36A726923F440631343E362E36AB2692B
:1020D00023F400731343E362E36A23F48073E3623F
:1020E000636CF26923F47F4323F0F80343EAC203ED
:1020F0006364E36A43F48073E362E36AB5B943F46B
:102100008003E362114C236843F080532360FEF7A1
:1021100037FF054623689B000FD5002005E0FEF73A
:102120002FFFC01B0228ABD90320F8BD012D0CBF27
:1021300043F4000343F08073E3E7FEF721FF401B05
:102140000228E7D9F0E70120EFE700BF004402587A
:102150002DE9F84303681C01054603F0006609D524
:10216000C36EB3F5001F2ED013D8F3B1B3F5801FA3
:1021700021D001262B68D80540F10481EB6D042B9A
:1021800000F2FF80DFE813F024002B00F7002900A5
:102190002900B3F5401FECD1AA4AE96E136D23F470
:1021A00040130B4313650026E4E7A64AD36A43F4C1
:1021B0000033D362F0E702210830FFF7D9FE06466C
:1021C0000028D7D1E8E702212830FFF749FFF6E7DA
:1021D0009C4AD36A43F40033D362344605E00021BD
:1021E00005F10800FFF7C4FE0446002C40F0CC8047
:1021F000944AE96D136D23F007030B4313652B68B5
:1022000099050DD52B6E802B00F0DC8000F2BE808E
:10221000002B00F0CA80402B00F0CD800126344610
:102220002B685A0510D5D5F8AC30B3F5800F00F007
:10223000EF8000F2CF80002B00F0DD80B3F5001FAF
:1022400000F0DF80012634462B681B0510D5D5F839
:10225000B030B3F1007F00F0048100F2E180002B88
:1022600000F0F280B3F1807F00F0F4800126344664
:102270002B689F010DD5EB6C202B00F00C8100F238
:10228000F880002B00F0F880102B00F0FE80012673
:1022900034462B68D8040FD56B6EB3F5005F00F0A1
:1022A000208100F20181002B00F00E81B3F5805FE8
:1022B00000F01081012634462B6899040FD5AB6ECF
:1022C000B3F5003F00F02E8100F21381002B00F0E7
:1022D0001981B3F5803F00F01E81012634462B683A
:1022E0005A0410D5D5F8B430B3F1005F00F03C814A
:1022F00000F22081002B00F02681B3F1805F00F016
:102300002C81012634462B685B0115D52B6D4BB112
:10231000B3F5807F40F03081012105F10800FFF71F
:1023200027FE0446002C40F02A81464A296DD36CD2
:1023300023F480730B43D3642B681F040DD56B6F9C
:10234000B3F1805F00F01D81B3F1005F00F02781E1
:10235000002B00F01B81012634462B68D80140F188
:102360003581AB6C032B00F27681DFE813F0260198
:1023700021016D012601002105F12800FFF770FE03
:1023800032E7012634463AE7264638E7C02B03D029
:10239000B3F5807F7FF442AFD4B92A4A296E136D1A
:1023A00023F4E0730B4313653AE7264AD36A43F4F8
:1023B0000033D362F0E7002105F10800FFF7D8FDF4
:1023C0000446E9E7002105F12800FFF749FEF7E799
:1023D000264625E7B3F5C00F03D0B3F5000F7FF411
:1023E00031AFDCB9174AD5F8AC10936D23F4600314
:1023F0000B43936528E7134AD36A43F40033D3624F
:10240000EFE7002105F10800FFF7B2FD0446E8E719
:10241000002105F12800FFF723FEF7E7264613E722
:10242000B3F1407F03D0B3F1806F7FF41FAFF4B9F5
:10243000044AD5F8B010936D23F0E0630B43936525
:1024400016E700BF00440258A14AD36A43F40033A0
:10245000D362ECE7002105F10800FFF789FD04468F
:10246000E5E7002105F12800FFF7FAFDF7E726462A
:10247000FEE6302B7FF40BAFA4B9954AE96CD36C20
:1024800023F030030B43D36403E7914AD36A43F448
:102490000033D362F0E7022105F10800FFF768FD81
:1024A0000446E9E72646F4E6B3F5405F03D0B3F50A
:1024B000804F7FF4FFAED4B9854A696E136D23F463
:1024C000E0430B431365F7E6814AD36A43F40033D4
:1024D000D362F0E7002105F10800FFF749FD04464B
:1024E000E9E7002105F12800FFF7BAFDF7E72646E6
:1024F000E2E623F48032B2F5802F03D0B3F5403FFB
:102500007FF4EBAEA4B9724AA96E136D23F4E023F5
:102510000B431365E3E6012105F10800FFF728FDF1
:102520000446EFE7012105F12800FFF799FDF7E7E1
:102530002646D4E623F08052B2F1804F03D0B3F1A7
:10254000405F7FF4DEAEACB9614AD5F8B410936D4C
:1025500023F0E0430B439365D5E6012105F1080024
:10256000FFF706FD0446EEE7012105F12800FFF71D
:1025700077FDF7E72646C6E601263446DCE6264622
:10258000DAE6534AD36A43F40033D36274B9504A4B
:10259000696F136D23F040530B431365DDE6012192
:1025A00005F10800FFF7E4FC0446EFE72646D4E611
:1025B000474AD36A43F40033D362002C4ED1444AD5
:1025C000A96CD36C23F003030B43D3642B6859022B
:1025D0004ED5404F3B6843F480733B60FEF7D0FC20
:1025E00080463B68DA053BD5002C6FD1384BD5F8D7
:1025F000B8001A6F424012F4407F0BD01A6F196F67
:1026000041F480311967196F22F4407221F480314E
:1026100019671A67B0F5807F43D0D5F8B8302C49D8
:1026200003F44072B2F5407F4CD108692A4A20F485
:102630007C5002EA131202430A61254A116FC3F368
:102640000B030B43136713E0022105F10800FFF7AA
:102650008FFC0446B1E701263446B7E72646B5E7C6
:10266000FEF78EFCA0EB08006428BAD90326344696
:102670002B68D8070AD5D5F88030102B45D02DD837
:10268000002B31D0082B39D0012634462B6899070E
:1026900051D5EB6F052B64D8DFE803F0453F5D456E
:1026A0004545FEF76DFCDFF82880074641F2883982
:1026B000D8F870309B07B0D4FEF762FCC01B4845C9
:1026C000F6D9D3E70A6922F47C52B5E72646CFE76C
:1026D0000044025800480258CFFFFF0023F00802D0
:1026E000202A01D0182BCFD1ACB9204AD5F88010C0
:1026F000536D23F038030B435365C7E7012105F100
:102700000800FFF735FC0446EEE7012105F128003B
:10271000FFF7A6FCF7E72646B8E7012105F1080018
:10272000FFF726FC0446FCB9104AE96F536D23F00D
:1027300007030B4353652B685A072AD5D5F8983001
:10274000052B00F27B81DFE813F019001300730101
:10275000190019001900012105F12800FFF780FC7C
:10276000E0E701263446E6E72646E4E7004402585F
:10277000012105F10800FFF7FBFB0446002C40F0A7
:102780006081AA4AD5F89810936D23F007030B4394
:1027900093652B689B0610D5D5F89430B3F1005F94
:1027A00000F06B8100F24F81002B00F05581B3F1F6
:1027B000805F00F05B81012634462B685F0610D5F0
:1027C000D5F8A030B3F5006F00F0798100F25D819B
:1027D000002B00F06381B3F5806F00F06981012662
:1027E00034462B68180610D5D5F8A430B3F5804FC1
:1027F00000F0878100F26B81002B00F07181B3F54E
:10280000005F00F07781012634462B68190714D544
:10281000D5F88830B3F5805F07D1022105F1280093
:10282000FFF71EFC002818BF0126804AD5F8881043
:10283000536D23F440530B4353652B68DA0614D5CC
:10284000D5F89C30B3F5807F07D1022105F128002F
:10285000FFF706FC002818BF0126744AD5F89C1023
:10286000936D23F440730B4393652B681B031BD5B7
:10287000D5F8A810B1F5803F00F04B81B1F5003FCD
:1028800007D0002940F04B8105F10800FFF770FBED
:102890000446002C40F04681644AD5F8A810936D98
:1028A00023F440330B4393652B685F031CD5D5F8A5
:1028B0008C30B3F5001F00F03781B3F5401F08D00E
:1028C000B3F5801F40F03781584AD36A43F4003390
:1028D000D362002C40F03281544AD5F88C10536DED
:1028E00023F440130B4353652B68D80309D56B6D54
:1028F000002B00F02581B3F5803F00F02F810126E9
:1029000034462B68990007D5022105F12800FFF70E
:10291000A7FB002818BF0126D5E900319A030BD583
:10292000D5F88400B0F5807F00F02F8100F21F8180
:10293000002800F022810126DF0206D53B48AC6F5B
:10294000026D22F0004222430265DC0007D53748C1
:10295000D5F8BC40026922F4804222430261980209
:1029600006D532482C6F026D22F080722243026538
:102970005A0009D52D4A106920F4004010611069F1
:10298000D5F8C04020431061002B06DA2748AC6D13
:10299000C26C22F040522243C2641B0207D5234A74
:1029A000D5F89000536D23F4400303435365CF07DC
:1029B00007D5002105F10800FFF7DAFA002818BF53
:1029C00006466B689C0707D5012105F10800FFF753
:1029D000CFFA002818BF06466B68580707D50221B2
:1029E00005F10800FFF7C4FA002818BF06466B6817
:1029F000190707D5002105F12800FFF731FB002852
:102A000018BF06466B68DA0607D5012105F12800D4
:102A1000FFF726FB002818BF06466B689B0600F1EF
:102A2000BC80301E18BF0120BDE8F8830044025866
:102A3000012105F12800FFF713FB9EE6012634462D
:102A4000A7E62646A5E623F08052B2F1804F03D0D8
:102A5000B3F1405F7FF4AFAEACB9554AD5F89410EE
:102A6000536D23F0E0430B435365A6E6002105F1C7
:102A70000800FFF77DFA0446EEE7022105F1280081
:102A8000FFF7EEFAF7E7264697E623F48062B2F501
:102A9000805F03D0B3F5406F7FF4A1AEACB9444A78
:102AA000D5F8A010936D23F4E0530B43936598E69B
:102AB000002105F10800FFF75BFA0446EEE702216A
:102AC00005F12800FFF7CCFAF7E7264689E623F45C
:102AD0000052B2F5004F03D0B3F5C04F7FF493AE70
:102AE000ACB9334AD5F8A410936D23F460430B437B
:102AF00093658AE6002105F10800FFF739FA0446DC
:102B0000EEE7022105F12800FFF7AAFAF7E72646CB
:102B10007BE6022105F12800FFF7A2FAB8E60126BC
:102B20003446C1E62646BFE6012105F12800FFF73D
:102B300097FA0446CDE601263446D5E62646D3E686
:102B40001B4AD36A43F40033D36274B9184A696DDF
:102B5000D36C23F480330B43D364D2E6022105F116
:102B60000800FFF705FA0446EFE72646C9E620F419
:102B70008072B2F5007F7FF4DEAE64B90C4C626DFA
:102B800022F4407202436265D6E6094FFA6A42F4C3
:102B90000032FA62F1E72646CEE6022105F128006E
:102BA000FFF75EFA00283FF43CAF01203CE700BF8E
:102BB0000044025808B5FFF787F9054B054A1B6A20
:102BC000C3F30213D35C03F01F03D84008BD00BF5A
:102BD00000440258547710084F4970B58C6A8E6AC9
:102BE000CD6ACA6B16F47C3FC6F3053300F09080C3
:102BF00007EE903AC2F3CC03C5F30012534306EE3E
:102C0000903A04F00304012CB8EEE77AFAEEE96A90
:102C1000B7EE006A6ED0022C5ED0002C6AD10B6831
:102C20009B0647D50A688B6BC2F3C1013B4ACA4079
:102C300007EE902AF8EEE75AC3F30803C5EE877A49
:102C400007EE103AB8EEC77A37EE267A37EE067AF4
:102C500067EE877A304A936BC3F3462307EE103A48
:102C6000B8EEC77A37EE067AC7EE876AFCEEE66AF8
:102C7000C0ED006A936BC3F3064307EE103AB8EE5B
:102C8000C77A37EE067AC7EE876AFCEEE66AC0EDD1
:102C9000016A936BC3F3066306EE903AF8EEE66AB8
:102CA00076EE866A87EEA67AFCEEC77A17EE903A41
:102CB000836070BD8B6BDFED1A5AC3F3080307EE18
:102CC000903AF8EEE77A77EEA67A77EE867AC5EE56
:102CD000876A67EEA67ABDE78B6BDFED125AC3F306
:102CE000080307EE903AF8EEE77A77EEA67A77EEE9
:102CF000867AECE78B6BDFED0C5AC3F3080307EE23
:102D0000903AF8EEE77A77EEA67A77EE867ADEE703
:102D1000C0E90033CCE700BF004402580090D00364
:102D20000024744C20BCBE4B0024744A4F4970B53B
:102D30008C6A8E6ACD6A4A6C16F07C7FC6F30553A6
:102D400000F0908007EE903AC2F3CC03C5F3002266
:102D5000534306EE903A04F00304012CB8EEE77AF0
:102D6000FAEEE96AB7EE006A6ED0022C5ED0002C53
:102D70006AD10B689B0647D50A680B6CC2F3C10188
:102D80003B4ACA4007EE902AF8EEE75AC3F308031D
:102D9000C5EE877A07EE103AB8EEC77A37EE267A94
:102DA00037EE067A67EE877A304A136CC3F3462310
:102DB00007EE103AB8EEC77A37EE067AC7EE876AA2
:102DC000FCEEE66AC0ED006A136CC3F3064307EE3F
:102DD000103AB8EEC77A37EE067AC7EE876AFCEE8D
:102DE000E66AC0ED016A136CC3F3066306EE903A1F
:102DF000F8EEE66A76EE866A87EEA67AFCEEC77A89
:102E000017EE903A836070BD0B6CDFED1A5AC3F376
:102E1000080307EE903AF8EEE77A77EEA67A77EEB7
:102E2000867AC5EE876A67EEA67ABDE70B6CDFEDA2
:102E3000125AC3F3080307EE903AF8EEE77A77EEFA
:102E4000A67A77EE867AECE70B6CDFED0C5AC3F3CB
:102E5000080307EE903AF8EEE77A77EEA67A77EE77
:102E6000867ADEE7C0E90033CCE700BF00440258B1
:102E70000090D0030024744C20BCBE4B0024744A44
:102E800038B50368094ADA600446FEF779F8054662
:102E90002368DB689B0601D5002038BDFEF770F87B
:102EA000401BB0F57A7FF3D90320F6E75FFF0300FC
:102EB000F8B50368DC6814F04004054618D14FF0FB
:102EC000FF32DA60FEF75CF8032706462B68DB6802
:102ED0005B0601D4032C01D12046F8BDFEF750F863
:102EE000801BB0F57A7F84BF85F821700324EDE75D
:102EF0000024F1E738B50F4CE36823F04003E360AA
:102F0000A3689B06054606D4FFF7BAFF10B103205D
:102F100085F8210038BDA36823F02003A360FFF7E4
:102F2000AFFF10B1032085F82100A36843F0200310
:102F3000A360EFE70040005838B50446002845D0AC
:102F400090F8213003F0FF021BB980F82020FDF734
:102F5000E3FD022384F821302368DA68D20604D521
:102F6000012384F82130002038BDCA225A6253223E
:102F70005A622046FFF79CFF10BB226820699368C5
:102F800023F4E00323F040039360636891680343F4
:102F9000A06903430B439360D4E9021343EA01435E
:102FA00013612046FFF7A6FF50B922686569D36C0C
:102FB00023F00303D364E369D16C2B430B43D36445
:102FC0002368FF225A620028CAD0CDE70120CBE750
:102FD000F0B590F82030012B4FF002033FD080F87D
:102FE000213004688E680A68236C082E43EA0203C5
:102FF0004FEA420501D0022E33D12B43CE6802F0B6
:10300000010702F0080502F020026EB30FB143F48D
:1030100000330DB143F480130AB143F400030E6989
:103020006EB30FB143F480230DB143F400130AB122
:1030300043F08073D1E905252A43CD692A430D6AFF
:10304000496A23F47F432A4323F080030A4313434E
:103050002364012380F82130002380F820301846B3
:10306000F0BD23EA0503C9E70FB123F400330DB126
:1030700023F48013002AD2D023F40003CFE70FB14A
:1030800023F480230DB123F40013002AD2D023F0BF
:103090008073CFE710B5026852E8003F23F49073C5
:1030A00042E8003102680029F5D10F4C02F1080313
:1030B00053E8003F234002F1080C4CE8003100299E
:1030C000F4D1C36E012B07D152E8003F23F0100367
:1030D00042E800310029F7D12023C0F88C300023CA
:1030E000C366436710BD00BFFEFFFFEF30B5044667
:1030F00003682169A2681D68C0690A4361690A43BF
:103100009749024329400A431A605A68E16822F449
:1031100040520A435A60934AA16993421CBF226AF3
:1031200011439A6822F06E4222F430620A439A6098
:10313000DA6A616A22F00F020A43DA628A4A93422B
:1031400087B01BD1894B5B6D03F03803282B6CD8FB
:10315000874AD35CB0F5004F40F03281082B00F273
:10316000C080082B61D8DFE813F0E700EC006000B6
:103170006000EF00600060006000F4007D4A934250
:1031800007D17A4B5B6D03F00703052B4DD87A4AC4
:10319000DFE77A4A934207D1744B5B6D03F0070374
:1031A000052B42D8764AD4E7764A934207D16F4B33
:1031B0005B6D03F00703052B37D8734AC9E7734AE1
:1031C000934207D1694B5B6D03F00703052B2CD8A5
:1031D0006F4ABEE76F4A934207D1644B5B6D03F0C1
:1031E0003803282B21D86C4AB3E76C4A934207D1A5
:1031F0005E4B5B6D03F00703052B16D8684AA8E702
:10320000684A934207D1594B5B6D03F00703052BC6
:103210000BD8654A9DE7534A934206D102F50E3218
:10322000936D03F00703052B01D901200EE05F49E0
:10323000CB5C102B23D011D8042B16D0082B19D01F
:10324000022BF2D1FFF7B6FC10BB00204FF00113A8
:10325000A3660023C4E91D3307B030BD202B3ED048
:10326000402BE2D14FF4004012E06846FFF7B4FC77
:103270000198E9E703A8FFF759FD0498E4E713680C
:103280004B4813F0200F03D01368C3F3C103D84099
:103290006568484B626A05EB450133F81220B0FBC4
:1032A000F2F39942C1D8B3EB053FBED800231946CB
:1032B000FDF776F8090241EA10616B080002C018B8
:1032C0002A464FF0000341F10001FDF769F83A4B3F
:1032D000A0F540729A42A8D82368D860B5E737486D
:1032E000D6E7202B3AD0402B0BD0102B9DD11F4B73
:1032F0002F481A6812F0200F03D01B68C3F3C103D4
:10330000D84061682B4B626A33F81220B0FBF2F2AE
:103310004B0803EB42034FF6EF72B3FBF1F3A3F15B
:103320001001914281D823F00F02216892B2C3F3B9
:1033300042031343CB6088E7FEF7E6FD002884D004
:10334000DFE7FEF7F3FDF9E76846FFF745FC019874
:10335000F4E703A8FFF7EAFC0498EFE71748D0E783
:10336000F369FFCF000C00580010014000440258E0
:1033700020791008004400404979100800480040B6
:1033800049791008004C004049791008005000406D
:103390004979100800140140207910080078004095
:1033A00049791008007C0040497910084F791008CD
:1033B0000090D00356791008FFFC0F0000093D0073
:1033C000082B17D8082B3FF630AF01A252F823F094
:1033D00037341008433410082B3210082B321008F1
:1033E000493410082B3210082B3210082B321008E9
:1033F00053341008202B31D0402B31D0102B7FF4C8
:1034000014AF194B19481A6812F0200F03D01B682B
:10341000C3F3C103D8406368616A154A32F81120CA
:10342000B0FBF2F000EB5300B0FBF3F04FF6EF739C
:10343000A0F110024EE7FEF767FD00283FF405AF4C
:10344000E9E7FEF773FDF8E76846FFF7C5FB01986B
:10345000F3E703A8FFF76AFC0498EEE70548DAE70C
:103460004FF40040D7E700BF004402580090D0035B
:103470005679100800093D00836ADA0710B506D5B1
:103480000168C46A4A6822F4003222434A609C07F9
:1034900006D50168046B4A6822F4803222434A60F0
:1034A000590706D50168446B4A6822F480222243FA
:1034B0004A601A0706D50168846B4A6822F4004204
:1034C00022434A60DC0606D50168C46B8A6822F490
:1034D000805222438A60990606D50168046C8A6886
:1034E00022F4005222438A605A060FD50168446CC8
:1034F0004A6822F480122243B4F5801F4A6005D145
:103500004A68846C22F4C00222434A601B0606D536
:103510000268C16C536823F400230B43536010BD51
:103520002DE9F843DDF8209004460F4616469846EC
:103530002268D36937EA03030CBF01230023B34297
:1035400001D000201EE0B9F1FF3FF2D0FDF718FDD9
:10355000A0EB0800484525D8B9F1000F22D020681B
:1035600003685A07E4D5C56915F008050CD008258D
:1035700005622046FFF78EFD0023C4F8905084F8C2
:1035800084300120BDE8F883C3691B05D0D54FF412
:10359000006303622046FFF77DFD2023C4F89030CE
:1035A00084F884500320EDE72DE9FF419846D0F8D8
:1035B0008830202B04460E46174647D1002947D0B5
:1035C000002A45D021230025C0F89050C0F888304B
:1035D000FDF7D6FCA268A4F85470B2F5805F0346EC
:1035E000A4F8567003D122690AB935461646B4F8D4
:1035F0005620CDF8008092B252B940212046FFF704
:103600008FFF2023C4F8883068B904B0BDE8F0818A
:103610000022802120460393FFF782FF039B20B105
:103620002023C4F888300320EFE721685EB935F81D
:10363000022BC2F308028A62B4F85620013A92B211
:10364000A4F85620D3E716F8012BF4E70220DCE7B4
:103650000120DAE730B50446002585B0C0F8905067
:10366000FDF78EFC22681268110703461DD56FF026
:103670007E42009203902A464FF400112046FFF745
:103680004FFF039B88B1226852E8003F23F080037C
:1036900042E800310029F6D12023C4F88830032005
:1036A000002384F8843005B030BD226812685207C8
:1036B00023D56FF07E4200924FF480010022204615
:1036C000FFF72EFFC8B1226852E8003F23F4907341
:1036D00042E8003122680029F5D102F1080353E8DD
:1036E000003F23F0010302F1080040E80031002907
:1036F000F3D12023C4F88C30D1E720230020C4F874
:103700008830C4F88C30E0662067C9E710B50446FD
:1037100050B3D0F888301BB980F88430FDF72CFB0B
:1037200022682423C4F88830136823F0010313604F
:103730002046FFF7DBFC012816D0A36A13B1204610
:10374000FFF79AFE23685A6822F490425A609A68FA
:1037500022F02A029A601A6842F0010220461A609A
:10376000BDE81040FFF776BF012010BD436E30B5B5
:103770002BB90123A0F86A30A0F8683030BD036887
:10378000094D9A689968094C490FC2F342626B5C13
:10379000615C1B01B3FBF1F3A0F86A30AB5CA25C87
:1037A0001B01B3FBF2F3E7E7767910086E79100896
:1037B00090F88430012B14D002682423C0F888309C
:1037C0001168136823F00103136021F000510023F6
:1037D000436611602022C0F8882080F884301846A3
:1037E00070470220704770B590F88430012B044672
:1037F00017D005682423C0F888302E682B6823F082
:1038000001032B60AB6823F060431943A960FFF705
:10381000ADFF20232E60C0F88830002084F884009B
:1038200070BD0220FCE770B590F88430012B04468F
:1038300017D005682423C0F888302E682B6823F041
:1038400001032B60AB6823F060631943A960FFF7A5
:103850008DFF20232E60C0F88830002084F884007B
:1038600070BD0220FCE7000082B00023104A0193E3
:10387000019B01330193019B934216D80369002BEE
:10388000F6DA002301930369094A43F00103036157
:10389000019B01330193019B934206D8036913F006
:1038A0000103F5D1184602B070470320FBE700BFC3
:1038B000400D030084B038B505AD85E80E000A9BC5
:1038C000012B04462ED1836B23F480338363C368BA
:1038D00023F4840323F04003C360C36823F440133C
:1038E000C360119B012B02BFC36843F48013C36004
:1038F000FFF7BAFF079B012B10D1E36D9BB2E36585
:10390000E36D43F07B7343F40033E365A36843F056
:103910000603A360A36843F02003A360BDE838401A
:1039200004B07047C36843F04003C360FFF79CFFD7
:103930000E9B23B9A36B43F48033A363DAE7A36B35
:1039400023F48033F9E7836843F0010383600020A8
:103950007047836823F0010383600020704738B507
:10396000C368012923F0C0430546C36010D1C36872
:1039700043F00053C36000240120FDF707FB6B698F
:10398000D90704F1010415D4322CF5D1012038BD3A
:103990000029FBD1C36843F08043C3600C4601207B
:1039A000FDF7F4FA6B69DA0704F1010402D5322C51
:1039B000F5D1EBE7A4F1320358425841E7E70000A4
:1039C00082B00023104A0193019B01330193019BB4
:1039D000934216D80369002BF6DA8901002341F0DF
:1039E0002001094A01930161019B01330193019B6D
:1039F000934206D8036913F02003F5D1184602B0AC
:103A000070470320FBE700BF400D030082B0002396
:103A10000F4A0193019B01330193019B934214D8F8
:103A20000369002BF6DA00230193094A102303618E
:103A3000019B01330193019B934206D8036913F064
:103A40001003F5D1184602B070470320FBE700BF12
:103A5000400D030010B59DF8084044B9033301320E
:103A60009B0800EB023001EB83038B4201D1002065
:103A700010BD51F8042B0260F7E770B500239408DD
:103A800000F5805502F00302A34211D301EB84013B
:103A900062B100F5805000230468D80024FA00F0D9
:103AA000C854013398B28242F7D11144084670BD20
:103AB0002E6841F823600133E6E7426980691040CF
:103AC000704700EB4111D1F80805D1F80C351840CA
:103AD0007047406900F001007047000084B070B585
:103AE000044605A880E80E000023C4F8003EA36B3E
:103AF00023F40013A363A36B23F40033A363E36BEA
:103B0000DA053BD5089B012BD4F8003438D143F0BB
:103B10000403C4F8003410212046FFF751FF01468A
:103B20002046FFF773FF0843C0B200384FF0000390
:103B3000069E18BF012004F5A0621D464FF0FF311C
:103B40009E4220D1A5616161E36BDB0520D54FF476
:103B50000073636203F18073A362114BC4F80031F8
:103B6000079B1BB9A36943F01003A361A2690D4B26
:103B70001343A361BDE8704004B07047D4F800342B
:103B800023F00403C5E791600133D5602032D7E705
:103B90008023636203F5C003A362034BDEE700BF2B
:103BA0000003E000080020A3E0004000D0F800344B
:103BB00023F0030310B5C0F80034D0F8004401F03E
:103BC00003032343012900F58062C0F8003404D1C7
:103BD0004BF680335360002010BD022902D141F220
:103BE0007073F7E70120F7E737B500250195D0F8A6
:103BF00040340193019B23F02E030193019B43F476
:103C000080730446C0F840346420FDF7BFF9019B7F
:103C100023F48073C4F840340A20FDF7B7F928462E
:103C200003B030BD82B000230193D0F8403401933B
:103C3000019B23F02E030193019BDA0406D4012992
:103C400002BF019B43F48053C0F84034019BDB0466
:103C500005D521B9019B23F48053C0F840340020DE
:103C600002B0704782B000230193D0F84034019332
:103C70000198C0F3414002B0704700F58060806851
:103C800080B270472DE9F04100EB41171C469DF8CA
:103C90001C6007F5A0634FF0FF359D604FFA82FC72
:103CA000032E6CD8DFE806F00261025A40F29D450F
:103CB000BCF1000FDD6003DADD6845F480754BE090
:103CC000C56BED0545D40025D3F80CE04EF0020E8F
:103CD000C3F80CE0D0F8188401F00F0101238B40E9
:103CE00043EA0803C0F81834836943F00073836122
:103CF0004FEADC71FFF7B6FF9DF81830022B4FEA50
:103D0000C1313ED1023818BF01204004A305BDF8DF
:103D10002040C4F30A04204303F0FE53D2020343BD
:103D200002F4F0421343B2040B4302F44022134363
:103D300043F4801306F0FD06C7F80035012E02BFDC
:103D4000D7F8003543F00053C7F800352846BDE8E2
:103D5000F081DD6845F06005DD60B4E740F29D6507
:103D6000BCF1000FDD60AEDAA6E740F22525BCF11C
:103D7000000FDD60A7DADD6845F4C075ECE70125CA
:103D8000A2E70020C2E700F58060406980B270477A
:103D900037B5002300EB41110193D1F80035D1F87C
:103DA00000458568AD0601F5A0624FEA934301D551
:103DB000002C25DA13F0010FD1F8003543F08043D1
:103DC000C1F800351FD183689B0619D4C36A13F468
:103DD0007F0FD1F8003532D123F00043C1F8003510
:103DE000D1F8003543F00043C1F80035019B0133A1
:103DF0000193019BB3F57A7F02D81368002BF5DBA2
:103E0000002003B030BDD0F8103413F47F0FD1F888
:103E1000003514D123F00043C1F80035D1F8003546
:103E200043F00043C1F80035019B01330193019B2E
:103E3000B3F57A7FE4D81368002BF5DBE0E743F0B5
:103E40000043C1F80035DBE700EB4110064AC0F83B
:103E50001025D0F8003523F0804343F00043C0F82C
:103E600000350020704700BF000008802DE9FF41A9
:103E7000C36BDB050C46054649780FD523796BB932
:103E8000012A67D1E37913F0FD0F07D100EB41134D
:103E9000D3F80C0520F07000C3F80C056369002B03
:103EA00063D02689581E3044B0FBF6F080B2B0F5DE
:103EB000807F28BF4FF48070E778002F57D0B4F888
:103EC000088000FB08F894F80AC0C4F810804FEA94
:103ED0004C7C0CF0C04C05EB41164CEAC040C8F3DA
:103EE000120840EA0800C6F8100512B1E068C6F8EA
:103EF0001405D5F80804D6F800E52EF0005EC6F8E3
:103F000000E5C043D6F800E5400700F0005040EA65
:103F10000E00C6F80005D6F800050390039820F0BF
:103F20008040039005F5806C039817B340F400407F
:103F30000390039840F0004003900398C6F80005F2
:103F400017430ED16BB1E279032A20D8DFE802F0E3
:103F500014281428002AA1D16379012B9ED1FFF7E0
:103F600073FF002004B0BDE8F0810120A4E798466B
:103F7000A9E720F40040DBE7E86ADA1C80B2C2F36C
:103F80008F02904203D2AA6942F02002AA61002265
:103F900000929BB20A462846E168FFF75BFDE0E726
:103FA000DCF81000DA1C80B2C2F38F029042EED22D
:103FB000AA6942F08062E9E737B50023019383687C
:103FC00023F00103836010210446FFF7F9FC01464A
:103FD0002046FFF71BFD0843C0B2003804F5A0637C
:103FE00018BF012004F5E06519460A6822F0802216
:103FF00042F0804241F8202BA942F6D11A6822F4FF
:10400000004242F040421A60019A01320192019A44
:10401000B2F57A7F02D81A68002AF5DB2033AB426A
:10402000ECD14FF0FF33C4F814346361A36843F05C
:104030000103A36003B030BD70B54026044632468C
:10404000002100F5617002F0DDFD002501234FF431
:104050008072A37023832570C4F81C2329466570E1
:10406000C4F8C453A67104F11C0002F0CBFD29462C
:104070004FF4007204F58E7002F0C4FD294612223E
:1040800004F2263002F0BEFD294604F54E703E22B1
:10409000BDE8704002F0B6BD70B50E46044650B99A
:1040A000104802F061FC104802F05EFC0A2002F0A9
:1040B0006DFC022070BD0025C0E9DF5580F8CC23DF
:1040C000FFF7BAFF84F8205384F8235384F8215370
:1040D00084F822530EB1C4F8D463204602F0F0F9FC
:1040E0000020E7E77E7910088679100808B5A1B1AD
:1040F000D0F8803333B90122C0F88023C0F8781398
:10410000184608BD074802F02FFC074802F02CFCB7
:104110000A2002F03BFC0220F3E7024802F024FCF4
:104120000248F3E77E7910089A791008B3791008ED
:1041300038B590F83C338B4204460D4624D980F8BC
:104140002413174802F010FC0A2002F01FFC1A2367
:1041500003FB0544134894F8471302F005FC0A20BA
:1041600002F014FC94F848130F4802F0FDFB0A20FB
:1041700002F00CFC94F849130C4802F0F5FB0A20FD
:1041800002F004FC002038BD094802F0EDFB0948AC
:1041900002F0EAFB0A2002F0F9FB0220F3E700BF7D
:1041A000C8791008E5791008F4791008037A100826
:1041B0007E791008127A100870B5002490F84763D1
:1041C0008E42E5B201D0FF290BD190F848639642A8
:1041D00001D0FF2A05D190F849639E4204D0FF2BFD
:1041E00002D01A3014B1FF25284670BD0124E5E73E
:1041F00010B5044602F0BEF90121204602F09AF9FA
:10420000002010BD70B586B002238DF8173090F8ED
:104210002133012B04BF03230370037804460B2BC7
:1042200023D8DFE813F00C00250053009102220090
:1042300088006A0207020F021C023702890290F806
:10424000203393B1C34802F08FFB0A2002F09EFB9B
:1042500001232370C82002F082F9204602F09CF965
:10426000002384F81C33C4F8C833002006B070BDA6
:1042700090F82333012B0BD1B74802F075FB0A20CD
:1042800002F084FB002384F81F3302232370ECE741
:10429000D0F8C833B3F57A7F11D990F81F330133C2
:1042A000DBB2032B80F81F3307D9AC4802F05CFB6C
:1042B0000A2002F06BFB0D23E8E70023E6E70A3350
:1042C000C0F8C8330A2002F04AF9CEE7D0F8D43358
:1042D0000BB104219847642002F041F9204602F016
:1042E00017F90523237084F81D030021204600F0F0
:1042F000FBFD80216071204600F0F6FDA37902935A
:10430000002594F81D33207101460093019594F81F
:104310001C338022204600F0D3FDA3796179CDE9DA
:10432000015394F81D3300932A4694F81C33204619
:1043300000F0C6FD99E74578072D2FD8DFE815F086
:1043400008005400AF00DC00E200260140015A01E1
:10435000082100F061FB0646F0B994F82D33A371F3
:1043600001256570CDE9016394F81D33217900932F
:10437000802294F81C33204600F0A2FDA3796179D5
:10438000CDE9016394F81D330093324694F81C3351
:10439000204600F095FD3DE0032801D0012539E0DD
:1043A0006F4802F0E1FA6F4802F0DEFA0A2002F0EC
:1043B000EDFA94F81E330133DBB2032B84F81E337D
:1043C00007D9694802F0D0FA0A2002F0DFFA0D237B
:1043D00008E06179204600F09FFD2179204600F039
:1043E0009BFD00232370D9E7122100F015FB78BB59
:1043F000B4F830135D4802F0B7FA0A2002F0C6FAAA
:10440000B4F82E135A4802F0AFFA0A2002F0BEFAAE
:10441000022363708DF817509DF8173003F0FF05E5
:10442000002B7FF422AF534802F09EFA0A2002F0DC
:10443000ADFA94F8373384F82453012B40F0F88018
:104440004D4802F091FA0A2002F0A0FA08231DE775
:104450000328A3D1424802F087FA484802F084FAC0
:104460000A2002F093FA94F81E330133DBB2032BD7
:1044700084F81E3308D93C4802F076FA0A2002F08C
:1044800085FA0D232370C5E76179204600F044FDCD
:104490002179204600F040FD00236370F2E70121FE
:1044A00000F07CFC064680B90220012502F057F896
:1044B0002946334884F81C5302F056FA0A2002F0C9
:1044C00065FA03236370A3794CE703287FF466AF92
:1044D000234802F049FA2B4802F046FA0A2002F07B
:1044E00055FA214802F040FA0A2002F04FFA0D2353
:1044F00023700023637051E7092100F005FB40B9E8
:104500000423F7E7B0F83A1300F0FEFA08B90523E0
:10451000F0E703287FF442AF114802F025FA1A4869
:1045200002F022FA0A2002F031FA94F81E33013325
:10453000DBB2032B84F81E333FF643AF617920468C
:1045400000F0EAFC2179204600F0E6FC00236370CD
:1045500048E700BF307A1008457A1008607A1008E2
:104560007E7910088C7A1008C07A1008FF7A10083B
:10457000087B10083C7C10084E7C1008117B10084A
:104580004A7B1008627B1008937B100890F8341364
:1045900091B100F58E75FF232A4600F0C3FB40B9A8
:1045A0007D48294602F0E0F90A2002F0EFF90623DF
:1045B000A0E703287FF4F2AE784802F0D5F9F3E7DC
:1045C00090F8351391B100F58E75FF232A4600F05F
:1045D000A9FB40B97248294602F0C6F90A2002F048
:1045E000D5F9072386E703287FF4D8AE6D4802F09B
:1045F000BBF9F3E790F8361391B100F58E76FF23FF
:10460000324600F08FFB054638B93146664802F065
:10461000ABF90A2002F0BAF9FCE603287FF4BEAE3B
:10462000624802F0A1F90A2002F0B0F90025F1E693
:1046300007232BE6D0F8D433002B3FF416AE01212C
:10464000984703E790F83D1300F0B5FB00287FF48E
:104650000CAE09235648237002F086F949E090F821
:104660003F339B060DD5012100F0B2FB8DF81700FA
:104670009DF817303BB94F4802F076F90A2002F056
:1046800085F90A2302E69DF81730032B7FF4EDAD80
:104690004948F1E7D0F880330BB94848DCE7D0F857
:1046A000783390F847231979914206D00023C0F857
:1046B0007C330D2303704248CEE7C0F87C339B68FF
:1046C0009847D4F87C3370B90622227019683D48A7
:1046D00002F04AF90A2002F059F9D4F8D433032140
:1046E00020469847C1E50D2222701968364802F02D
:1046F0003BF90A2002F04AF9B7E5D0F87C33A3B1C0
:104700001B6998478DF817009DF817300BB90B23DC
:10471000BCE59DF81730022B7FF4A7AD0D232B4885
:10472000237002F021F92A4896E70D2303702748E9
:1047300002F01AF927488FE7D0F87C33002B3FF4BA
:1047400094AD5B69984790E5002580F82153FFF709
:1047500073FCD4F87C3323B1DB6820469847C4F857
:104760007C53D4F8D43313B10521204698471A4816
:1047700002F0FAF80A2002F009F994F82233012B2A
:1047800006D1002384F822332046FFF731FD6CE583
:10479000204601F0EFFE68E5D57B1008E77B1008A6
:1047A000FA7B1008077C1008157C1008287C10087C
:1047B000747C10088F7C1008AC7C1008D67C100824
:1047C000F47C1008197D10082B7D10087E791008E4
:1047D0004B7D1008707D1008867D1008C0F8C4134A
:1047E0007047D0F8C4230132C0F8C42302780B2AE2
:1047F00004D1D0F87C330BB19B6918477047012373
:1048000080F823337047002380F823337047012357
:1048100080F82033002380F8213380F822331846B3
:10482000704738B504460123002580F8213380F80D
:10483000235380F8205301F0A6FE2179204600F092
:104840006BFB6179204600F067FB284638BD00000D
:1048500073B58578012D044603D0022D07D00125BC
:1048600019E08160828105760223A37013E0067E41
:10487000731E0A2BF3D8DFE803F006112F39424EDE
:104880005D6778848C00427900F1100100F0BAFA7B
:10489000022323763546284602B070BD417901F0E7
:1048A00045FE0128054611D1E28A94F910303AB14B
:1048B000002B02DA03232376EDE705232376CEE7E8
:1048C000002B01DA0923F9E70723F7E7042801D0D1
:1048D0000228C4D10B23F1E7D0F8C433C381828905
:1048E0000379816800F0B5FA0423E7E7017901F064
:1048F0001DFE0128E6D0052835D00428E9E701256A
:10490000009543798289816800F08CFAD4F8C43329
:10491000E3810623CFE7417901F008FE0128D3D0D7
:10492000052820D00228C8D0042898D10B2323764C
:1049300001239AE700220379114600F08AFAD4F89D
:10494000C433E3810823B9E7017901F0EFFD0128C1
:1049500004D100250123A3700023ACE70428B9D0BB
:1049600005287FF47CAF0325F4E70125009500229C
:104970004379114600F056FAD4F8C433E3810A2390
:1049800099E7417901F0D2FD0128E2D00228B4D1A3
:1049900098E7437E0133DBB2022B437603D801252F
:1049A0000576857077E7D0F8D4330621002698473E
:1049B0000948667601F0D8FF084801F0D5FF0A20C3
:1049C00001F0E4FF6179204600F0A6FA2179204643
:1049D00000F0A2FA2670ABE77E7910089E7D1008E1
:1049E00030B40C4619468378BDF80850012B0FD11E
:1049F00064F07F04047402F47F440623B4F5407F1E
:104A0000437440F2094318BF002342828382C58267
:104A10002A4630BCFFF71CBFB1F5007F37B504460E
:104A20000D460BD9354801F09FFF354801F09CFF3A
:104A30000A2001F0ABFF032003B030BD009100F568
:104A40008E734FF480720021FFF7CAFF0028F3D164
:104A500094F81C3184F8263394F81D3184F82733F8
:104A6000B4F81E31A4F8283394F8203194F81D23AB
:104A700084F82A3394F8213184F82B3394F82231C6
:104A800084F82C33012A94F8233184F82D332FD85D
:104A9000202B27D8072B27D91A4A083BDBB222FA4A
:104AA00003F3DB0720D5082DC6D9B4F82431A4F8C8
:104AB0002E33B4F82631A4F83033B4F82831A4F8F2
:104AC000323394F82A3184F8343394F82B3184F853
:104AD000353394F82C3184F8363394F82D3184F83A
:104AE0003733A9E7402BDED0082384F82D33DAE7EB
:104AF000022A01D1082BF6E70320D4E77E791008BB
:104B0000C37D1008010100012DE9F04FB1F5807F50
:104B100087B005460E4600F11C040CD97F4801F011
:104B200023FF7F4801F020FF0A2001F02FFF032020
:104B300007B0BDE8F08F009123464FF400720021CA
:104B4000FFF74EFF0028F3D16B7F85F8393395F8D6
:104B5000213085F83D3395F82230B5F81E8085F870
:104B60003E3395F8233085F83F3395F8243085F8A7
:104B70004033B8F5807F4FF0090328BF4FF48078A9
:104B800095F820B0A5F83A839E4285F83CB385F8A5
:104B90003833CDD9294686465FFA8EF6BEF1020F2C
:104BA000C6D0984506D85B46022B28BF0223B342E5
:104BB000BED9BCE72278144413446278042A9BB21D
:104BC000ECD12278092A1CBF09222270227881F8B0
:104BD0004223627881F84323A27881F84423E27863
:104BE00081F845232279022A28BF022281F8462330
:104BF00094F805A081F847A30292A27981F848238E
:104C0000E67981F849630396267A81F84A63023A85
:104C10001A2606FB0EF6D2B24FF0000C049605924F
:104C2000029A944576D2984581D922781444134447
:104C30006278052A9BB2F3D1BAF1010F3AD1059AF5
:104C4000012A37D8039A2AB92278092A02D04FF0CC
:104C500009022270049E22780CF1010006EBC000CC
:104C6000284480F84423627880F84523A27880F8AD
:104C70004623E27880F84723A688A0F84863A779FE
:104C800080F84A7395F81D93701EB0F5007F34BF0D
:104C900000200320B9F1000F17D102F00302022A0D
:104CA0000BD1B6F5007F88BF03200CF1010C5FFA31
:104CB0008CFCB5E74FF00702CBE71AB9412E28BFAD
:104CC0000320F2E7013F0F2FEDE7B9F1010F10D1FB
:104CD00012F0010FF2D002F00302012A04D1013FC9
:104CE0000F2FEBD90320E0E7002FFBD0B6F5806F44
:104CF000E5E7B9F1020FF5D112F0030203D1082E56
:104D000018BF0320D1E7032AECD10FB1092ED6E753
:104D10001046CAE70EF1010E1A313DE77E79100800
:104D2000077E1008B3F5007F73B5044615461E468E
:104D300000D85AB9174801F017FE174801F014FEC1
:104D40000A2001F023FE032002B070BD009341F45D
:104D5000407200F58E730021FFF742FE0028F3D168
:104D600094F81D31032BEFD194F81C118B1EB34224
:104D700028BF33469BB2024604F58F7491B28B4232
:104D800002D800232B70DFE7A15C05F8011B02327B
:104D9000F4E700BF7E791008527E10088378012B5B
:104DA00005D14FF4A06303820023418243610022B6
:104DB0001146FFF74DBD8378012B05D14FF41063E9
:104DC000038200234182436100221146FFF740BD68
:104DD0008378012B05D14FF4407303820023418275
:104DE000436100221146FFF733BD8378012B05D1C3
:104DF0004FF48173036100238182C3820022114634
:104E0000FFF726BD1FB500240B4611460822CDE949
:104E10000224CDE900432246234601F0E2FB20466E
:104E200004B010BD30B585B090F81D530C46002D70
:104E300019469DF82030019418BF0023CDE90223C4
:104E40000123009300231A4601F0CBFB002005B09C
:104E500030BD30B5002485B0CDE902240D460122D5
:104E6000194601950092234601F0BBFB204605B090
:104E700030BD30B585B090F81D530C46002D194655
:104E80009DF82030019418BF0023CDE902230123AF
:104E900000930022022301F0A4FB002005B030BDE6
:104EA00030B5002485B0CDE902240D460122194613
:104EB00001950092022301F094FB204605B030BD1D
:104EC0001FB5BDF8204002949DF81C4001949DF848
:104ED0001840009401F069FB002004B010BD08B533
:104EE00001F076FB002008BD30B5002300F56074AA
:104EF00054F8045F2D04DAB208D400EB830041F4C7
:104F0000004192B2C0F88413D0B230BD0133102BEF
:104F1000EED14FF6FF72F7E70F299FBF00EB81003C
:104F2000D0F88433C3F30E03C0F8843300207047F5
:104F30002DE9F0410D4D55F8184F88461646AC4204
:104F400003D16FF01200BDE8F08154F86C0C4146BB
:104F5000A4F16C07FBF7C4F908B12468EFE73760E8
:104F60003846BDE8F04100F088B900BFA00200104B
:104F7000F8B5DDE906549C421746194604D00C22C8
:104F80006A43204601F0EFFE0026AE4201DB2846D0
:104F9000F8BD022F03D1A168206800F0A9F9A1682B
:104FA00054F80C0B00F0A5F90136EEE770B5049E3D
:104FB0001C460025B54204F10C0400DB70BD54F81A
:104FC000041C54F80C0C00F094F90135F2E70000D1
:104FD0002DE9F0410C4E56F8084F07460D46B442F5
:104FE00002D16FF001000CE054F8240C3946A4F112
:104FF0002408FBF775F908B12468F0E70DB1C5F88E
:105000000080BDE8F08100BFA002001038B5044662
:1050100008B30568FDB12B78EBB100212846FFF7F6
:10502000D7FFD8B104F11C03C4E907330E4BDA688B
:10503000A26204F1240103F108006062D9601160EA
:105040001A78062A05D95B685BB108492A46072009
:105050009847002001E06FF0150038BD6FF0100098
:10506000FBE71846F9E700BFA0020010967E100883
:1050700037B50C46154690B1037883B179B10B78FA
:105080006BB162B101A9FFF7A3FF50B90198836822
:105090004BB12A46214603B0BDE8304018476FF0B7
:1050A000150003B030BD6FF01200FAE7036810B5C9
:1050B00093B11B7883B18368022B0DD8084B4360F2
:1050C000084BDA69026700F16C0103F11804C46649
:1050D000D9610020116010BD6FF01500FBE700BF23
:1050E00010000010A00200100E4B10B52022044644
:1050F0000021184601F086FD2268426002462179AF
:1051000002F8081BC0E9022200F11002C0E90422E3
:1051100000F11802C0E906222046BDE8104000F068
:10512000BFB800BFA00200102DE9F04786B0DDE94E
:105130000E4906468A4690460021182268461F46B8
:10514000109D01F05FFD1F2C9DBF0123A34003F1C3
:10515000FF334FF0FF33C6E90274C6E900A8C6E981
:10516000043906F118045DB10FCD0FC495E80300B2
:1051700084E80300304606B0BDE8F04700F098B878
:105180006D46F1E773B504688568661C0FD0A942C7
:1051900032D80C445E18AE4288BF6B1A056A55B10E
:1051A00000930523A8470346184602B070BDA942E4
:1051B00022D80024EEE721461846BFF35B8F002873
:1051C000F2D042EA0104A4070AD103280EDC013917
:1051D00010448242E8D011F8014F02F8014BF8E781
:1051E00011F8014B02F8014B0138E8E751F8044B84
:1051F00042F8044B0438E8E76FF02103D4E773B5B5
:1052000004688568661C0ED0A94230D80C445E182C
:10521000AE4288BF6B1A456A4DB9194691B9184616
:10522000BFF35B8F06E0A94221D80024EFE700938B
:105230000523A84702B070BD12F8010B04F8010B5A
:105240000139EBE744EA02008007F5D1032908DCC5
:10525000013A21448C42E2D012F8010F04F8010B0C
:10526000F8E752F8040B44F8040B0439EEE76FF04A
:105270002100DFE70EB403B0704770B5044600F1BB
:105280000C050026A368B34201D8002070BD284653
:10529000AB683035002BF8D000F00AF80136F1E7A2
:1052A00008B50248FFF7B2FE002008BD100000104C
:1052B0002DE9F04185680446C5B1C368076835FA31
:1052C00003F21CBF01259D404FEA85080026616856
:1052D000636951F826102A46384600F00BF8D4E9E5
:1052E00002320136D340B3424744F0D2BDE8F081E8
:1052F0007047704770470020704770470368018906
:105300009A6A8A4210B5A3F1180005D2084B094ADF
:105310000948332101F07AF9DA6A182404FB0122E2
:105320000469116953F8180C2346BDE8104018476A
:10533000B17E10089F7F1008CB7E100870B50468FE
:105340001346621C0AD08268914207D80C448569D2
:1053500035B1AC460522BDE8704060470024F6E751
:105360008CB1012B07D1BFF35B8F2078BFF35B8F2C
:10537000C0B2002170BD042B05D1BFF35B8F206844
:10538000BFF35B8FF5E7034B034A0448F02101F0BC
:105390003DF900BF337F1008917F1008357F10085A
:1053A00008B5A0F1180350F80C0C9968036818317F
:1053B000C91A83680122994228BF4FF0FF31FFF7D5
:1053C000BDFFC0B208BD08B5A0F1180350F80C0C21
:1053D000996803680C31C91A83680422994228BF6E
:1053E0004FF0FF31FFF7AAFF08BD00002DE9F04F95
:1053F00085B081465020577E01919046029301F07E
:1054000023F9044650B307EB4700C00001F01CF934
:10541000064600284FD050220021204601F0F2FB22
:1054200018220021304601F0EDFB4FF0000A4FF04A
:10543000180BBA4516D30F9B23610E9B2360029B6A
:10544000E360019BA361109B63631D4B6664C4F81A
:105450000880C4F830902764A3631834204605B050
:10546000BDE8F08FB9F1000F15D1142303FB0A82B8
:10547000526A0732D2001046039201F0E5F8054661
:1054800058B1039A002101F0BDFB0BFB0AF20AF1AF
:10549000010AB550CDE70022EBE74FF0180808FBF2
:1054A00005F3F05808B101F0D7F80135AF42F6D84E
:1054B000304601F0D1F8204601F0CEF80024CDE7C7
:1054C000C07F100810B5846A8C420DD9C06A1824B8
:1054D00004FB010102984B60039B8B81049B8B6052
:1054E000C1E90420002010BD6FF00100FBE72DE9A9
:1054F000F0410D460446C8B103688B4202D100203A
:10550000BDE8F081876A00264FF01808BE42F6D049
:10551000E26A08FB06F3D1180969A94201D0691CA7
:1055200002D1D05800F035FC0136EFE76FF01500DE
:10553000E6E7836910B5044623B12046FFF730FF44
:105540004307FAD510BD4FF00102BFF35B8FD0E8DF
:105550004F3FC0E8412F0029F9D1BFF35B8FDBB289
:10556000002BF2D1704710B5C8B1436A5A1C0ED057
:105570007F2B0CDC026A5C09483203F01F03012117
:10558000994052F8243023EA010342F82430D0E94C
:105590000D1200F134034A601160C0E90D3310BDF3
:1055A000F0B4144648B1006A38B133B1013404D0C4
:1055B000046E14B1A446F0BC60470148F0BC7047CB
:1055C0002DF8FFFF30B58DB0456A0B9104460146BA
:1055D000202202A80A9501F02FFB28230122CDE901
:1055E0000032294602AB35222046FFF7D9FF00EAF8
:1055F000E0700DB030BD2DE9F8430768804689465C
:1056000015461E46B84503D100242046BDE8F88360
:10561000691CA7F13404636A16D09D42F5D0B9F134
:10562000000F0FD020224946204601F0F3FA48B976
:10563000721C02D0A36AB342E7D06B1C02D1A36AEA
:105640000133E2D03F68DDE70133E8D1A36AB3421A
:10565000E4E742680862C1E90D0201F134034360E6
:105660008A6B0020136070472DE9F743DDF828901E
:1056700001920E461F46044600286BD006F15808DA
:105680004046FFF760FF7B1C019906F1480059D0A6
:105690007F2F5BDC4FEA571C07F01F0550F82C30BA
:1056A0000122AA4013EA02052CD1134340F82C3002
:1056B0002022204601F0C0FA72680B9BE362C4E925
:1056C0000D620C9B236304F13403C4E9097926625B
:1056D0007360A26BB9F1FF3F13604FF0000137D147
:1056E000BFF35B8F86F858102046BFF35B8FFFF740
:1056F00069FF05464046FFF726FF2DB12046FFF71C
:1057000032FF01E005EAE5750023BFF35B8F86F801
:105710005830BFF35B8F284603B0BDE8F0830133F8
:10572000802BC5D05A0900EB820C03F01F0550F8FE
:1057300022200EFA05F52A42F1D12A43CCF80020A6
:105740001F46B5E700234FF0010EEBE7024DDBE704
:105750000D46D9E7004DDEE72DF8FFFF80B592B08A
:1057600000AFF860B9607A603B60FB681B6A7B64DD
:105770007B6C3B643B6C1B6FFB63BB68BB637B68F0
:10578000282B01D0002357E0BB6B1946F86B00F0C3
:1057900057F8014607F110022023F86BFFF7F2FCDF
:1057A000BB6B1B6A7B637B6C5833184600F062F856
:1057B00007F110017B6B4FF0FF32786CFFF71BFF96
:1057C0003863BB6B5B6A03F00103002B17D03B6BA4
:1057D000002B03D03B6B4FF0FF329A627B6C583347
:1057E000184600F050F83B6B002B24D03B6B1B6B32
:1057F000002B20D03B6B1B6BF86898471BE03B6B82
:10580000002B10D17B6C5833184600F03CF87B6CB1
:10581000DB6D002B0FD07B6CDB6D07F110017A6B19
:10582000786C984707E03B6B7A6B9A627B6C5833D5
:10583000184600F028F8002318464837BD4680BDBA
:105840000368C91A83688B428CBF08464FF0FF304B
:10585000704770474FF00102BFF35B8FD0E84F3FB6
:10586000C0E8412F0029F9D1BFF35B8FDBB2002BD9
:10587000F2D17047FFF7EEBF0023BFF35B8F0370D9
:10588000BFF35B8F7047FFF7F7BF38B5436E9B6977
:10589000012B0D4611460AD1806E2A4600F0ABF965
:1058A000044610B12968FFF724FD204638BD0024C6
:1058B000FBE72DE97F430368D3F8248008F15806FD
:1058C0003046FFF7C7FF0DF10A0203A94046FFF774
:1058D000DCFF04463046FFF7CFFF14B904B0BDE843
:1058E00070833046FFF7B6FF62684FF0FF33002148
:1058F0004046FFF780FE05463046FFF7BDFF002D0E
:10590000ECD0AB6A013304BF2368AB62EB6BA289B6
:105910000093D5F82C906B6A04F110012846C84713
:1059200000B1FEE73046FFF795FFD8F864309B6979
:10593000012BC8D1039ABDF80A10D8F8680000F00E
:1059400099F9C0E72DE9704F0546406E9B46036A02
:1059500088B01B68CDE90012DDE91068984743075D
:105960005FD5B8F1000F40F2DC5318BF984605F13F
:1059700058094846FFF76EFF6B6E9B69012B1FD1DC
:10598000E86E00F0F4F9A0F1100A56451BDC6A6ECF
:105990009269012A17D1E86E03AA0DF10A0100F0FD
:1059A0002AF904464846FFF767FF002C3FD1B8F1BB
:1059B000000F38D0BAF1000F37D108F1FF38D8E71F
:1059C0004FF0000AE1E70024ECE7D8F80030D8F8FF
:1059D000080004F11001C91A814228BF4FF0FF31BD
:1059E00033465A464046FFF70AFC864200D0FEE79F
:1059F0004846FFF72FFF6B6E039A9B69BDF80A10AC
:105A0000012B04D1E86E00F035F900B1FEE7E86E35
:105A100000F08DF94846FFF72FFF304608B0BDE88B
:105A2000708F114EF9E7114EF7E7114EF5E7D5F8F3
:105A30007080019BD8F800100593009BD8F80800EF
:105A4000049300230693611A1023814228BF4FF06C
:105A5000FF310DEB03024046ADF81C60FFF7CFFBB2
:105A60001028B2D0FEE700BF2CF8FFFF2EF8FFFF92
:105A70002BF8FFFF38B193071CBF22F0030204325A
:105A8000C0E90122016070472DE9704104460D46CE
:105A9000164687B064220021984601F0B3F8BFF3A0
:105AA0005B8F0023A365BFF35B8FAA692A4B6566F2
:105AB000012AE6656C6223660CD1284B02930633FB
:105AC0000393274B0493274B0593EB6A99691B6853
:105AD000A166E366012AC4F870800FD004AB00937E
