:020000040810E2
:1000000000800410D5111008A90F1008B10F1008B6
:10001000B30F1008B50F1008B70F1008000000004C
:10002000000000000000000000000000B90F1008F0
:10003000BB0F100800000000BD0F1008BF0F100814
:100040002512100825121008251210082512100874
:100050002512100825121008251210082512100864
:10006000C30F1008CB0F1008D30F1008251210086B
:100070002512100825121008251210082512100844
:100080002512100825121008251210082512100834
:10009000251210082512100825121008DB0F100871
:1000A0002512100825121008251210082512100814
:1000B0002512100825121008251210082512100804
:1000C00025121008251210082512100825121008F4
:1000D00025121008251210082512100825121008E4
:1000E000F10F10082512100800000000251210085A
:1000F00025121008251210082512100825121008C4
:1001000025121008251210082512100825121008B3
:1001100025121008251210082512100825121008A3
:100120002512100825121008251210082512100893
:100130002512100825121008251210082512100883
:100140002512100825121008000000000000000011
:100150002512100825121008251210082512100863
:100160002512100825121008251210082512100853
:1001700025121008FD0F10082512100800000000BD
:100180002512100825121008251210082512100833
:100190002512100825121008251210082512100823
:1001A0002512100825121008251210082512100813
:1001B0002512100825121008251210082512100803
:1001C00025121008251210082512100825121008F3
:1001D00025121008251210082512100825121008E3
:1001E00025121008251210082512100825121008D3
:1001F00025121008251210082512100825121008C3
:1002000025121008251210082512100825121008B2
:1002100025121008251210082512100825121008A2
:100220002512100825121008F70F100825121008C3
:1002300025121008251210080910100825121008A0
:100240002512100825121008251210082512100872
:100250002512100825121008251210082512100862
:100260002512100825121008251210082512100852
:100270002512100825121008251210082512100842
:100280002512100825121008251210080000000081
:080290002512100825121008C8
:1002A00010B5054C237833B9044B13B10448AFF3B0
:1002B00000800123237010BDE40100100000000045
:1002C000B4BF100808B5034B1BB103490348AFF393
:1002D000008008BD00000000E8010010B4BF100855
:1002E00010F8012B11F8013B012A28BF9A42F7D0E0
:1002F000D01A70470000000000000000000000005D
:1003000001F0FF01102A2BDB10F0070F08D010F8C6
:10031000013B013A8B422DD010F0070F42B3F6D1CA
:10032000F0B441EA012141EA014122F007047FF0E3
:1003300000070023F0E80256083C85EA010586EA3A
:10034000010685FA47F5A3FA87F586FA47F6A5FA76
:1003500087F68EB9EED1F0BC01F0FF0102F0070282
:1003600032B110F8013B013A83EA010313B1F8D12D
:100370000020704701387047002D06BF354603380E
:10038000073815F0010F07D1013015F4807F02BF47
:10039000013015F4C03F0130F0BC0138704700BF98
:1003A00053B94AB9002908BF00281CBF4FF0FF31DC
:1003B0004FF0FF3000F070B9ADF1080C6DE904CEDC
:1003C00000F006F8DDF804E0DDE9022304B0704730
:1003D0002DE9F047089E0D4604460F46002B4AD1F2
:1003E0008A42944665D9B2FA82F343B102FA03FC19
:1003F000C3F120029F4020FA02F217439C404FEACB
:100400001C4E1FFA8CF5B7FBFEF1220C0EFB117788
:1004100042EA074201FB05F090420AD91CEB0202B6
:1004200001F1FF3780F01C81904240F219810239BE
:100430006244121AA4B2B2FBFEF00EFB102244EA90
:10044000024400FB05F5A5420AD91CEB040400F1A7
:10045000FF3280F00781A54240F2048164440238F3
:1004600040EA0140641B00211EB1DC400023C6E9C4
:100470000043BDE8F0878B4208D9002E00F0ED80E4
:100480000021C6E900050846BDE8F087B3FA83F10C
:10049000002949D1AB4202D3824200F2F880841A8B
:1004A00065EB030201201746002EE2D0C6E90047A3
:1004B000DFE702B9FFDEB2FA82F3002B40F0908052
:1004C0008A1A4FEA1C471FFA8CFE0121B2FBF7F58E
:1004D00007FB1520220C42EA00420EFB05F0904279
:1004E00008D91CEB020205F1FF3802D2904200F25B
:1004F000CB804546121AA4B2B2FBF7F007FB1022DC
:1005000044EA02440EFB00FEA64508D91CEB040495
:1005100000F1FF3202D2A64500F2BB801046A4EBE8
:100520000E0440EA05409FE7C1F120078B4022FA04
:1005300007FC4CEA030C05FA01F420FA07F3FD402E
:100540004FEA1C492343B5FBF9F81FFA8CFE09FB5F
:1005500018551C0C44EA054408FB0EF5A54202FAA6
:1005600001F200FA01F00BD91CEB040408F1FF3A88
:1005700080F08880A54240F28580A8F1020864449A
:10058000641B9DB2B4FBF9F309FB134445EA044430
:1005900003FB0EFEA64508D91CEB040403F1FF354E
:1005A0006CD2A6456AD9023B644443EA0843A3FBE4
:1005B0000295A4EB0E04AC42C846AE4656D353D0C7
:1005C00056B1B0EB080264EB0E0404FA07F7CA4018
:1005D000CC401743C6E9007418460021BDE8F087F7
:1005E000C3F1200102FA03FC20FA01F225FA01F11D
:1005F0009D402A434FEA1C471FFA8CFEB1FBF7F0DF
:1006000007FB1015110C41EA054100FB0EF58D4268
:1006100004FA03F408D91CEB010100F1FF382FD2D2
:100620008D422DD902386144491B92B2B1FBF7F5D6
:1006300007FB151142EA014205FB0EF1914208D970
:100640001CEB020205F1FF3816D2914214D9023D8B
:100650006244521A45EA004138E73146304608E71D
:100660003946E6E61046FBE64845A9D2B9EB020852
:1006700065EB0C0E013BA3E74546EAE72B4694E702
:100680004046D1E7D0467BE7023D624432E7084668
:100690000AE76444023842E7704700BF054BD3F8CD
:1006A000882042F47002C3F888201A6942F01002D0
:1006B0001A61704700ED00E01F4BD3F8E02042F0D4
:1006C0000202C3F8E020D3F8E02086B002F0020274
:1006D0000192019AD3F8E02042F00102C3F8E02031
:1006E000D3F8E02002F001020292029AD3F8E0204F
:1006F00042F00402C3F8E020D3F8E02002F0040244
:100700000392039AD3F8E02042F48072C3F8E02009
:10071000D3F8E02002F480720492049AD3F8E02027
:1007200042F08002C3F8E020D3F8E03003F0800309
:100730000593059B06B0704700440258044B0968B6
:100740001960044B1A60044B01221A6000207047A4
:10075000500200104C0200104002001007B509F0D2
:1007600081FD0021012009F0AFFD08B100F034FA4D
:10077000002300930849094B09484FF0FF3209F064
:100780005BFE002804DA03B05DF804EB00F024BA45
:1007900003B05DF804FB00BFF4BF10083D0710086C
:1007A000540200101FB503900948826A531C04D1FB
:1007B00000F012FA05B05DF804FB04230121CDE935
:1007C000003103AB416A09F045F90028F2DAEFE79E
:1007D0005402001073B52B4C23680BB909F03CFE92
:1007E000236843B3284D294829680AF017FBD5ED43
:1007F000007A9FED277A9FED270AF8EE677A67EE79
:10080000877A87EE800A0BF0B1FB2348FCEEC07AB2
:1008100017EE901ACDED017A0AF000FB019A1E49FD
:100820001E480AF071FB03231C4ADC21142007F048
:10083000C5FD002323601A4C2378022B11D1194DDA
:10084000194E002002F00EF803F09AF92B68306080
:10085000984206D015491648402209F01EFF336819
:100860002B602378032B0AD1002002F00BF81048EC
:100870000023237002B0BDE8704009F0EDBE02B065
:1008800070BD00BF400200105002001007C01008E9
:100890000000C842553582492DC01008940200104E
:1008A000E00B00104802001044020010000200108B
:1008B000E40B001000F00F0337B5083BC0F3032230
:1008C000C0F30744050E511C062B37D8DFE803F0B0
:1008D000040E341021272D001D480AF09FFA2146EE
:1008E0001C480AF09BFA1C4829460AE01B48F4E71A
:1008F0001B480AF093FA21461A480AF08FFA1A4860
:1009000029460AF08BFA0A2003B0BDE830400AF00D
:1009100097BA16480AF082FA15482146F1E71548B9
:100920000AF07CFA14482146EBE714480AF076FAFC
:10093000134804EBC511E4E71248CEE7C0F30722E1
:10094000C1B20095234610480AF068FA03B030BDE2
:1009500054C0100865C0100870C010087FC010088F
:100960008FC01008A6C01008B4C01008C0C010087E
:10097000D7C01008E5C01008F8C0100807C110085B
:1009800019C1100825C110083AC11008F8B513485C
:10099000134D09F074FE4FF6FF77C0F38F04013C4E
:1009A000A4B2BC4200D1F8BD15F8043C63F30706BD
:1009B00015F8033C63F30F2615F8023C63F3174662
:1009C00015F8013C63F31F662EB13046FFF7EAFECF
:1009D0003046FFF76FFF0435E1E700BFE40B00107E
:1009E0000402001008B5032001F03CFFFFF7CEFF22
:1009F000BDE80840032001F045BF08B5002001F024
:100A000003FF012001F000FF022001F0FDFE0320A2
:100A100001F0FAFE002001F025FF012001F022FF85
:100A2000022001F01FFF032001F01CFF4FF496701D
:100A300003F0ACF8002001F025FF012001F022FFB7
:100A4000022001F01FFFBDE80840032001F01ABF9B
:100A50001FB5002002A901F051FF03A9002001F0F9
:100A60005FFF4FF0FF3007F033FD284C029A0094EF
:100A700000210846502307F007FD4FF0FF3007F034
:100A8000A1FB204607F0A6FB214807F0ABFB214A5B
:100A900001230A21002007F091FC1F4807F0A2FB68
:100AA0001E4A01232D21002007F088FC039B029A97
:100AB0000094643B143A5A210A2007F0C5FC039BBA
:100AC000029A0094663B163A5B210B2007F0BCFCAF
:100AD0004FF07F4007F076FB114C4FF0FF3007F0EE
:100AE00079FB0A200AF0ACF920460AF005FA0D4815
:100AF0000AF002FA0C480AF0FFF920460AF0FCF965
:100B00000A200AF09DF904B010BD00BFFF0000FFED
:100B1000B800001061C11008B000001072C11008C8
:100B200094C11008BEC11008E8C11008264B07B5D3
:100B3000D3F8E02042F00072C3F8E020D3F8E030B0
:100B400003F0007301200193019B04F03DFB04F0CE
:100B5000F7FD01220221002004F0B0FD1B4B1B68B1
:100B6000C3F30313072B1A4B0BBFD3F80421D3F89D
:100B7000142142F0010242F001020CBFC3F804212B
:100B8000C3F8142102F0A2FFFFF7E8FDFFF794FD80
:100B900000F094F900F092FAFFF72FFF01210020F6
:100BA00002F072FB0B4807F0DDFA09F07BFC00F065
:100BB00019F84FF47A7002F0E9FFFFF749FF09F0E6
:100BC00091FCFFF707FEFAE70044025800ED00E051
:100BD0000064025850C6100808B572B6022001F031
:100BE00041FEFEE770B588B002A9002001F086FE44
:100BF00003A9002001F094FE4FF0FF3007F068FCDD
:100C0000914C029A009400210846502307F03CFCC6
:100C10004FF0FF3007F0D6FA204607F0DBFA8B489A
:100C200007F0E0FA00210846894A012307F0C6FBD5
:100C3000884807F0D7FA884A01231E21002007F0D0
:100C4000BDFB864A01232D21002007F0B7FB844A13
:100C500001233C21002007F0B1FB039B029A009482
:100C6000643B143A5A210A2007F0EEFB039B029AD8
:100C70000094663B163A5B210B2007F0E5FB4FF032
:100C80007F4007F09FFA4FF0FF3007F0A3FA40F2E1
:100C90000313ADF8083002A9402300208DF80A3074
:100CA00002F0FCFB10F0FF044FF0030320D06D4A6C
:100CB0006421142007F082FB6B4A03237321142064
:100CC00007F07CFB694A03239121142007F076FB8F
:100CD000674A0323A021142007F070FB654A032311
:100CE000AF21142007F06AFB634A0323BE212AE0E8
:100CF000624A6421142007F061FB03A92046CDE974
:100D00000344CDE90544079402F068FB039BB3F16B
:100D1000006F0FD1049BB3F5005F0BD1069BB3F5B9
:100D2000807F07D1059BB3F5804F03D1079BB3F5B7
:100D3000002F0DD0524A03237321142007F03EFBED
:100D4000494A03238221142007F038FB08B070BD04
:100D500003234C4A7321142007F030FB224620461F
:100D6000502102F01BFB0323044640B1464A822176
:100D7000142007F023FB3C4A03239121E3E7434E71
:100D8000434A8221142007F019FB334604F10F0275
:100D90000134B4F5007F03F8012BF7D123463B491A
:100DA0005022002002F0B2FA0323054640B1394A2E
:100DB0009121142007F002FB2B4A0323A021C2E754
:100DC000354A9121142007F0F9FA2346334950227D
:100DD000284602F07BFA032340B1314AA0211420B7
:100DE00007F0ECFA204A0323AF21ACE72D4AA021FB
:100DF000142007F0E3FA294B013C12D214202A4AAE
:100E00000323AF2107F0DAFA002002F0F3FA90B9D9
:100E1000264A0323BE21142007F0D0FA244A0323D4
:100E2000E2E713F8011B16F8012B9142E4D0214AA6
:100E30000323AF2102E0204A0323BE21142007F040
:100E4000BDFA094A032351E7FF0000FFB800001074
:100E500012C21008A800001017C2100837C21008EC
:100E600054C2100874C2100892C21008A5C210081B
:100E7000C8C21008E7C2100808C3100825C310082C
:100E80003FC3100857C310086EC31008F8040010C1
:100E900083C3100897C31008ACC31008F8020010F1
:100EA000C2C31008D6C3100861C4100812C41008C9
:100EB00035C410084AC41008EBC3100800B58BB045
:100EC0002822002168460AF017F91448144A002322
:100ED000C0E900237F21FF22C0E90212C0E90633E6
:100EE0000361436105F0CEFF08B1FFF775FE0123F2
:100EF000009302930023CDE90333CDE90533CDE917
:100F00000733064880236946099306F007F808B1BD
:100F1000FFF762FE0BB05DF804FB00BFF80600109F
:100F20000040005810B50446B2B0C82200216846FF
:100F30000AF0E2F822680C4B9A4212D100234FF4D7
:100F40008002CDE9002368464FF400732E9305F02C
:100F5000A5F808B1FFF740FE044A136F43F40043BD
:100F6000136732B010BD00BF004000580044025863
:100F70000C4B07B5D3F8F42042F00202C3F8F4207A
:100F8000D3F8F43003F002030193002206217E20FF
:100F9000019B02F021FE7E2003B05DF804EB02F01D
:100FA0004DBE00BF0044025808B504F079FFFEE7CB
:100FB000FEE7FEE7FEE7FEE770477047704702F086
:100FC000D3BD0121002001F075BC0221002001F0F9
:100FD00071BC0421002001F06DBC08B5082100207F
:100FE00001F068FCBDE808401021002001F062BC5F
:100FF000002001F057BC002002F038BD014803F08A
:10100000BDBC00BFBC0F001004F0E6B80120704763
:1010100008B50AF0F5F8162303604FF0FF3008BD5D
:1010200008B50AF0EDF816230360FEE770B50D462B
:1010300014460E46731B9C4201DC204670BDAFF384
:10104000008006F8010BF5E770B50D4614460E4614
:10105000731B9C4201DC204670BD16F8010B00F0AA
:10106000A9F8F5E74FF0FF3070474FF400534B609D
:101070000020704701207047002070470B4A11681C
:1010800010B5034609B90A491160106809490A4CAC
:101090000344091B8B4206D90AF0B2F80C23036003
:1010A0004FF0FF3010BD1360FCE700BF1C070010BD
:1010B0001014001000800410000800001648174AA1
:1010C00008B54FF4E133C0E9002300230C22C0E946
:1010D0000233C0E90523C0E90733C0E909330361DE
:1010E00006F01EFB08B1FFF777FD0B48002106F064
:1010F00084FB08B1FFF770FD0748002106F09DFB57
:1011000008B1FFF769FD044806F05CFB18B1BDE8C3
:101110000840FFF761BD08BD200700100010014026
:1011200010B5BAB004461422002103A809F0E4FF68
:10113000C822002108A809F0DFFF22681A4B9A4252
:1011400030D10122002308A8CDE9082304F0A6FF2E
:1011500008B1FFF741FD154B1548D3F8F02042F0D8
:101160001002C3F8F020D3F8F02002F01002019230
:10117000019AD3F8E02042F00102C3F8E020D3F84E
:10118000E03003F001030293029B4FF4C06202239C
:10119000CDE903230023CDE9053303A907230793F2
:1011A00003F006FA3AB010BD0010014000440258A6
:1011B0000000025807B54FF47A730190012201A98B
:1011C000034806F0FBF9019803B05DF804FB00BF8B
:1011D00020070010DFF834D0FFF760FA0C480D4903
:1011E0000D4A002302E0D458C4500433C4188C4282
:1011F000F9D30A4A0A4C002301E013600432A242E8
:10120000FBD30AF003F8FFF791FC7047008004104D
:1012100000000010E401001048FC1008E401001078
:101220000C140010FEE7000008B5084B0122C3E9CA
:1012300000219A600022DA6019464FF6FF7205F02D
:10124000F9FE003818BF0120404208BDB407001065
:1012500008B5094B0222C3E9002101210022C3E99C
:1012600002124FF6FF72194605F0E4FE003818BF6F
:101270000120404208BD00BFB4070010D1E903328D
:1012800013434A6913438A691343CA6910B5094C69
:101290001343042222600A6862600122C4E9022327
:1012A00021464FF6FF7205F0C5FE003818BF012039
:1012B000404210BDB407001008B5084BC3E9002137
:1012C00008210022C3E902124FF6FF72194605F009
:1012D000B1FE003818BF0120404208BDB40700101D
:1012E00008B505F0C5FE003818BF0120404208BD12
:1012F00070B50C4609680546FFF796FF10B14FF030
:10130000FF3070BD02F03CFC064602F039FC86421C
:10131000FBD021682846FFF79BFF0028EFD1D4E9D6
:1013200000122846FFF7C8FF0028E8D121462846CA
:10133000FFF7A4FF0028E2D1A1682846FFF7D0FFFD
:10134000003818BF01204042DBE74FF000624FF445
:101350000053C0E900234FF480714FF48043C0E98B
:1013600002314FF4002303610020704700B595B0AF
:101370004FF440730C93052306930023CDE90D33FE
:10138000CDE91133139300930493102302934FF08C
:1013900040724FF480030F920593022240F2011332
:1013A0000B920193039241F288336A4606A904F036
:1013B000FFFB002814BF6FF00400002015B05DF89B
:1013C00004FB30B5032995B00CBF4FF440734FF4C4
:1013D00080730C9306230C46069341F28832002357
:1013E00006A9CDE90D33CDE9113305460F930B93D3
:1013F000139304F0E1FA18BB40F20223CDE9003365
:1014000002221023032CCDE902324FF480014FF069
:101410000503CDE905130CBF4FF040734FF0807307
:1014200004900F936A4641F2883306A9284604F0D7
:10143000BFFB00280CBF00206FF0040015B030BDCA
:101440006FF00100FAE730B503298FB00CBF4FF4FD
:1014500040734FF480730693B72300930023CDE9C4
:101460000733CDE90B3304460D46099305930D93DD
:10147000FFF7A7FF58B941F288326946204604F0C9
:101480009BFA20B929462046FFF770FF08B16FF09C
:1014900001000FB030BD30B504468FB015460329AA
:1014A0000ED8DFE801F0022D38434FF48072069227
:1014B000022200924FF4806207924FF080720992EC
:1014C0004FF440520193129B03920A9341F28832E7
:1014D000002369462046CDE90B33089305930D930D
:1014E00004F06AFA38BB41F288322946204604F0FB
:1014F000A7FA00280CBF00206FF002000FB030BD2B
:101500004FF480720692D22200924FF4006207924A
:101510004FF00072D3E74FF48072069238220092A7
:101520004FF4406207924FF04072C8E74FF44072A8
:1015300006923422F3E76FF00100DFE730B504468E
:101540008FB0154603290ED8DFE801F002323D487E
:101550004FF4807206920E2200924FF4806207923E
:101560004FF080720992082205924FF44052039284
:10157000129A0A924FF000404FF08042CDE90B02E0
:10158000019341F2883200236946204608930D9367
:1015900004F012FA38BB41F288322946204604F0A2
:1015A000A8FA00280CBF00206FF003000FB030BD78
:1015B0004FF4807206923D2200924FF480620792AF
:1015C0004FF00072CEE74FF480720692EE22009246
:1015D0004FF4406207924FF04072C3E74FF44072FD
:1015E0000692ED22F3E76FF00100DFE730B5044625
:1015F0008FB0154603290ED8DFE801F0022E3944DA
:101600004FF4807206920C2200924FF4806207928F
:101610004FF080720992082205924FF440520392D3
:10162000129A01930023CDE90A23694641F28832D8
:101630002046CDE90C33089304F0BEF938BB41F2E3
:1016400088322946204604F054FA00280CBF0020B6
:101650006FF003000FB030BD4FF480720692BC22D1
:1016600000924FF4006207924FF00072D2E74FF4FD
:1016700080720692EC2200924FF4406207924FF083
:101680004072C7E74FF440720692EB22F3E76FF027
:101690000100DFE700B503298FB00CBF4FF44073A2
:1016A0004FF480730693C723009341F288320023DE
:1016B0006946CDE90733CDE90B33099305930D93C3
:1016C00004F07AF9002814BF6FF0010000200FB079
:1016D0005DF804FB70B5022B8EB005460E4633D084
:1016E000032B2CD0012B14BF21235223032E009354
:1016F0000CBF4FF440734FF4807306934FF4406374
:1017000007934FF440530393314600232846CDE915
:101710000833CDE90B33019205930D93FFF751FE8A
:1017200041F288326946284604F046F9044668B911
:1017300031462846FFF71AFE20460EB070BD0EB0A7
:10174000BDE87040FFF7A6BFDC23CFE76FF00100D4
:10175000F3E700B58FB04FF4807306933523009301
:1017600041F2883200236946CDE90733CDE90B33D6
:10177000099305930D9304F01FF9002814BF6FF02F
:10178000010000200FB05DF804FB00B58FB04FF4EE
:1017900080730693F523009341F288320023694653
:1017A000CDE90733CDE90B33099305930D9304F08D
:1017B00003F9002814BF6FF0010000200FB05DF89E
:1017C00004FB00B591B003290ED8DFE801F002292F
:1017D000343F4FF4807308930E2302934FF48063D9
:1017E00009934FF080730B93082207924FF0004C3F
:1017F0004FF440534FF08042CDE90DC205936A4645
:10180000002302A9CDE900330A930F9304F020FAD4
:10181000002814BF6FF00500002011B05DF804FB34
:101820004FF4807308933D2302934FF48063099330
:101830004FF00073D7E74FF480730893EE230293C1
:101840004FF4406309934FF04073CCE74FF440737B
:101850000893ED23F3E700B591B003290ED8DFE834
:1018600001F00225303B4FF4807308930C23029360
:101870004FF4806309934FF080730B930823079311
:101880004FF4405305936A46002302A9CDE90D3376
:10189000CDE900330A930F9304F0DAF9002814BF5E
:1018A0006FF00500002011B05DF804FB4FF4807369
:1018B0000893BC2302934FF4006309934FF0007325
:1018C000DBE74FF480730893EC2302934FF44063FB
:1018D00009934FF04073D0E74FF440730893EB2324
:1018E000F3E700B503298FB00CBF4FF440734FF4FA
:1018F000807306936623009341F288320023694681
:10190000CDE90733CDE90B33099305930D9304F02B
:1019100053F8002814BF6FF0010000200FB05DF8ED
:1019200004FB00B503298FB00CBF4FF440734FF494
:10193000807306939923009341F28832002369460D
:10194000CDE90733CDE90B33099305930D9304F0EB
:1019500033F8002814BF6FF0010000200FB05DF8CD
:1019600004FB4FF0FF307047024B9B680B60002078
:10197000704700BFC4070010024B1B680B600020BB
:10198000704700BFC4070010054B1B68002B14BF35
:101990004FF448734FF4F0730B600020704700BFA2
:1019A000C4070010054B1B68002B14BF4FF4F073E5
:1019B0004FF448730B600020704700BFC40700104D
:1019C0004FF0FF3070474FF0FF3070474FF0FF305F
:1019D00070474FF0FF3070474FF0FF3070474FF0C7
:1019E000FF30704710B484680088A4465DF8044B4B
:1019F000604710B444680088A4465DF8044B604713
:101A000013B5C1EB012364220C46B3FBF2F3512161
:101A10008DF807300DF107020023103000F033FA83
:101A200018B9034B9C6002B010BD4FF0FF30FAE7CD
:101A3000C407001007B500230DF10702292110305B
:101A40008DF8073000F01FFA003818BF012040421F
:101A500003B05DF804FB07B500230DF10702282150
:101A600010308DF8073000F00EFA003818BF012052
:101A7000404203B05DF804FBF7B56023002701295D
:101A80000E468DF806308DF8077037D800F1100536
:101A90003B461CD10DF106020B21284600F0F3F95C
:101AA000184A044604232A21284600F0ECF9164A75
:101AB000044404232B21284600F0E5F92044003893
:101AC000124B18BF01201E60404203B0F0BD0DF163
:101AD00007023621284600F0D6F90D4A04460423B1
:101AE0002A21284600F0CFF90A4A044404232B2176
:101AF000284600F0C8F93E462044E0E74FF0FF30AA
:101B0000E3E700BF79C4100887C41008C4070010B9
:101B10007EC410088CC4100808B50A460123DB21D6
:101B2000103000F0A9F9003818BF0120404208BD6C
:101B30004FF0FF3070474FF0FF30704770B5C3680B
:101B400004460D4698470646E3689847831BAB4218
:101B5000FAD370BD2DE9F04100F11005074690461B
:101B60000523924A0E462846F02100F08CF9904A4F
:101B700004460323B021284600F085F98D4A044429
:101B80000323B621284600F07EF98B4A0444032340
:101B9000B121284600F077F9884A04440323B7218D
:101BA000284600F070F9864A04440323B2212846EF
:101BB00000F069F9834A04440323B821284600F061
:101BC00062F9814A04440123BF21284600F05BF9F1
:101BD0007E4A04440323B321284600F054F97C4A8A
:101BE00004440323B921284600F04DF9794A0444FE
:101BF0000323B521284600F046F9774A044403231D
:101C0000BA21284600F03FF9744A04440323BC215A
:101C1000284600F038F9724A04440323BD212846BF
:101C200000F031F96F4A04440223BE21284600F037
:101C30002AF96D4A04440523F021284600F023F9CF
:101C40006A4A04440223B121284600F01CF9684A7C
:101C500004440123B621284600F015F9654A0444DE
:101C60000123B521284600F00EF9634A04440223FB
:101C7000B721284600F007F9604A04440423B8213C
:101C8000284600F000F95E4A04440323BC2128469C
:101C900000F0F9F85B4A04440323CC21284600F005
:101CA000F2F8BA210444584A0123284600F0EBF820
:101CB000C82104443846FFF741FFB8F1000F5BD15B
:101CC000524A43463621284600F0DDF8504A044483
:101CD00004232A21284600F0D6F84E4A044404235F
:101CE0002B21284600F0CFF800234B4A0444112151
:101CF000284600F0C8F8142104443846FFF71EFFB8
:101D0000022E4FF0000348D1444A3A21284600F001
:101D1000BAF80444424B434A5E60512100232846EE
:101D200000F0B1F8404A044400235321284600F053
:101D3000AAF83E4A044400235521284600F0A3F89F
:101D40003B4A044400235E21284600F09CF8394AAF
:101D5000044400232921284600F095F8364A04441B
:101D600000232C21284600F08EF8C44214BF4FF007
:101D7000FF300020BDE8F081304A0023362128469C
:101D800000F081F82E4A044404232A21284600F05A
:101D90007AF82C4A04440423A2E72B4A3A21284625
:101DA00000F071F800260444B4E700BF91C41008A5
:101DB00096C41008B2C41008C5C41008D8C41008CE
:101DC000DBC41008DEC41008E1C41008E3C4100826
:101DD000E6C4100899C410089CC410089FC41008D9
:101DE000A2C41008A5C41008A7C41008ACC41008E9
:101DF000AEC41008B0C41008B5C41008B7C41008A9
:101E0000BBC41008BEC41008C1C4100886C41008A2
:101E10007EC410088CC41008C4C41008D5C41008AF
:101E2000C4070010CBC41008CDC41008CFC41008DC
:101E3000D1C41008C9C41008D3C4100884C4100841
:101E400079C4100887C41008D7C4100860B14B6863
:101E500043608B688360CB68C360054B4361054B6F
:101E600003618061002070474FF0FF30704700BF72
:101E7000E5191008F319100810B4D0E90140A44680
:101E80005DF8044B604710B404688068A4465DF8B0
:101E9000044B60474FF0FF3070470000024B9B68D7
:101EA0000B600020704700BFD0070010024B1B687A
:101EB0000B600020704700BFD0070010054B1B6867
:101EC000002B14BF4FF448734FF4F0730B600020E5
:101ED000704700BFD0070010054B1B68002B14BFD4
:101EE0004FF4F0734FF448730B600020704700BF4D
:101EF000D00700104FF0FF3070474FF0FF307047B1
:101F00004FF0FF3070474FF0FF3070474FF0FF3019
:101F100070474FF0FF30704710B484680088A446C3
:101F20005DF8044B604710B444680088A4465DF82F
:101F3000044B604713B5C1EB012364220C46B3FB8D
:101F4000F2F351218DF807300DF107020023103014
:101F500000F053FC18B9034B9C6002B010BD4FF069
:101F6000FF30FAE7D007001007B500230DF1070294
:101F7000292110308DF8073000F03FFC003818BFE1
:101F80000120404203B05DF804FB07B500230DF1CA
:101F90000702282110308DF8073000F02EFC0038A1
:101FA00018BF0120404203B05DF804FBF7B5602381
:101FB000002701290E468DF806308DF8077037D8B6
:101FC00000F110053B461CD10DF1060236212846D2
:101FD00000F013FC184A044604232A21284600F086
:101FE0000CFC164A044404232B21284600F005FC6F
:101FF00020440038124B18BF01201E60404203B03D
:10200000F0BD0DF107023621284600F0F6FB0A4A22
:10201000044604232A21284600F0EFFB074A044423
:1020200004232B21284600F0E8FB3E462044E0E74D
:102030004FF0FF30E3E700BFE9C41008EDC410081B
:10204000D007001008B50A460123DA21103000F04D
:10205000CDFB003818BF0120404208BD4FF0FF30D3
:1020600070474FF0FF30704770B5C36804460D46A7
:1020700098470646E3689847831BAB42FAD370BD86
:102080002DE9F341002300F1100507460E46904666
:102090001946DE4A284600F0B0FBDD4A0446032319
:1020A000FF21284600F0A9FB00231946D94A044421
:1020B000284600F0A2FBD84A04440223FF21284608
:1020C00000F09BFB00231946D24A0444284600F046
:1020D00094FBD24A00230444C421284600F08DFB1F
:1020E0000A2104443846FFF7BFFF00231946CC4AB3
:1020F000284600F082FBCB4A00230444C421284632
:1021000000F07BFB0A2104443846FFF7ADFF0023B3
:102110001946C54A284600F070FBC44A044400230F
:10212000C521284600F069FB00231946C04A044433
:10213000284600F062FBBF4A04440023C52128461C
:1021400000F05BFB00231946BB4A0444284600F01C
:1021500054FBBA4A04440023C021284600F04DFB3A
:1021600000231946A94A0444284600F046FBB44A15
:1021700004440023D921284600F03FFB00231946E0
:10218000B04A0444284600F038FBAF4A0444002318
:10219000C121284600F031FB00231946AB4A044414
:1021A000284600F02AFBAA4A04440023C1212846FD
:1021B00000F023FB00231946A64A0444284600F0F9
:1021C0001CFBA54A04440023C521284600F015FB4A
:1021D00000231946A14A0444284600F00EFB954A04
:1021E00004440023C521284600F007FB00231946BC
:1021F000864A0444284600F000FB994A044402231E
:10220000D821284600F0F9FA00231946954A0444DB
:10221000284600F0F2FA944A04440023C5212846D7
:1022200000F0EBFA00231946904A0444284600F0D7
:10223000E4FA8F4A04440023C021284600F0DDFA66
:10224000002319468B4A0444284600F0D6FA8A4AED
:1022500004440023C521284600F0CFFA0023194684
:10226000784A0444284600F0C8FA844A044400230B
:10227000C421284600F0C1FA00231946734A0444D9
:10228000284600F0BAFA7E4A04440023C1212846B9
:1022900000F0B3FA002319467A4A0444284600F0B5
:1022A000ACFA794A04440223B321284600F0A5FA87
:1022B00000231946574A0444284600F09EFA734A00
:1022C00004440623CE21284600F097FA002319463D
:1022D0006F4A0444284600F090FA6E4A04440E23E4
:1022E000CE21284600F089FA002319466A4A0444A0
:1022F000284600F082FA694A04440E23CE2128467B
:1023000000F07BFA00231946654A0444284600F091
:1023100074FA644A04440A23CF21284600F06DFA77
:1023200000231946604A0444284600F066FA5F4AD2
:1023300004440023CF21284600F05FFA0023194609
:10234000344A0444284600F058FA594A04440A23FF
:10235000CB21284600F051FA00231946554A04447F
:10236000284600F04AFA544A04440F23CB21284659
:1023700000F043FA00231946454A0444284600F079
:102380003CFA4E4A04440F23CB21284600F035FA8C
:1023900000231946404A0444284600F02EFA484AD1
:1023A00004440A23CB21284600F027FA00231946CB
:1023B0003B4A0444284600F020FA424A04440F23D2
:1023C000CB21284600F019FA00231946364A044466
:1023D000284600F012FA3C4A04440F23CB21284639
:1023E00000F00BFA00231946384A0444284600F04E
:1023F00004FA374A04440A23CB21284600F0FDF9A9
:1024000000231946334A0444284665E0FEC51008F7
:10241000F1C41008FFC510086CC5100800C61008EC
:1024200001C6100802C6100803C6100804C610082A
:1024300005C6100806C6100807C6100808C610080A
:1024400009C610080AC610080BC610080CC61008EA
:102450000DC610080EC610080FC6100810C61008CA
:10246000D7C5100811C6100812C6100813C61008E8
:1024700014C6100815C6100816C6100817C610088E
:1024800018C6100819C61008D9C51008DBC51008F1
:102490001AC61008E1C510081BC61008EFC51008C1
:1024A0001CC61008F4C410081DC610082AC610085F
:1024B000FEC410081EC6100808C5100817C510086D
:1024C00026C5100830C510083FC510081FC61008E3
:1024D0004EC5100820C6100800F08FF9954A044434
:1024E0000A23CB21284600F088F900231946924A96
:1024F0000444284600F081F9904A04440A23CC2180
:10250000284600F07AF9002319468D4A04442846EB
:1025100000F073F98B4A04440F23CC21284600F0C5
:102520006CF900231946884A0444284600F065F9EE
:10253000864A04440F23CC21284600F05EF900238C
:102540001946834A0444284600F057F9814A044456
:102550000A23CC21284600F050F9002319467E4A70
:102560000444284600F049F97C4A04440F23CC2156
:10257000284600F042F900231946794A04442846C7
:1025800000F03BF9774A04440F23CC21284600F0A1
:1025900034F900231946744A0444284600F02DF902
:1025A000724A04440023C521284600F026F900237E
:1025B00019466F4A0444284600F01FF96D4A044446
:1025C0000023F521284600F018F9002319466A4A2D
:1025D0000444284600F011F9684A04440023C62147
:1025E000284600F00AF900231946654A04442846A3
:1025F00000F003F9634A04440323FF21284600F056
:10260000FCF8002319465E4A0444284600F0F5F819
:10261000002319465A4A0444284600F0EEF85A4A64
:1026200004441023E121284600F0E7F8002319466E
:10263000534A0444284600F0E0F8544A0444102366
:10264000E221284600F0D9F8514A04440023112120
:10265000284600F0D2F8782104443846FFF704FDFC
:102660004C4F002E60D0022E07D14B4A00233A2156
:10267000284600F0C2F87E600444B8F1010F56D13C
:1026800060238DF807300DF107020023362128461C
:1026900000F0B3F8414A261804232A21284600F006
:1026A000ACF83F4A064404232B21284600F0A5F845
:1026B000C7F8008034183B4A00235121284600F017
:1026C0009CF80023384ABB6004445321284600F09C
:1026D00094F8364A044400235521284600F08DF82A
:1026E000334A044400235E21284600F086F8314A2C
:1026F000044400232921284600F07FF800231946CE
:102700001F4A0444284600F078F82B4A044400236A
:102710002C21284600F071F8C44214BF4FF0FF305E
:10272000002002B0BDE8F081244A33469FE7002331
:102730003B60C0E758C51008FFC5100862C5100807
:102740001EC610086EC510081AC610087DC51008F0
:102750001BC610088CC510081CC6100896C51008AA
:102760001DC61008A5C510080AC610082BC61008FB
:102770002CC610082DC610082EC610082FC610082B
:10278000FEC51008B4C51008B7C51008C7C51008A5
:1027900021C61008D007001022C61008E9C410088E
:1027A000EDC4100824C6100825C6100826C6100857
:1027B00027C6100828C6100829C6100823C6100806
:1027C00060B14B6843608B688360CB68C360054B26
:1027D0004361054B03618061002070474FF0FF307B
:1027E000704700BF191F1008271F100810B4D0E948
:1027F0000140A4465DF8044B604710B4046880684B
:10280000A4465DF8044B6047134B30B5D3F8E02085
:1028100042F48072C3F8E020D3F8E03089B003F4CA
:1028200080730293029B0D4B53F8205003950323B2
:1028300006930B4B012453F82000019003A9CDE926
:10284000044401F0B5FE01982246A9B201F098FFB8
:10285000002009B030BD00BF0044025830C6100847
:1028600040C6100808B5054B33F82010044B002271
:1028700053F8200001F084FF002008BD30C6100886
:1028800040C6100808B5054B33F82010044B012250
:1028900053F8200001F074FF002008BD30C6100876
:1028A00040C61008024B03EBC00001F064BE00BF3D
:1028B0000408001040B991FAA1F10448B1FA81F17D
:1028C00000EBC10001F057BE704700BFDC070010ED
:1028D00001F056B910B9034B996070476FF00100D1
:1028E000704700BF1008001018B9034BDB680B607D
:1028F00070476FF0010070471008001038B9064BA0
:102900001B685B6C33B1054B1B680B6070476FF045
:10291000010070471846704730080010100800107A
:1029200038B9064B1B689B6C33B1054B5B680B6079
:1029300070476FF00100704718467047300800106C
:1029400010080010F0B50C4E1C24604334183427D6
:10295000A5680A4C305807FB054400FB0212A16C25
:10296000E56D21B955F822201A600020F0BD35F838
:10297000122092B2F8E700BF10080010F80800100B
:10298000F0B50B4E1C24604334183427A568094C5D
:10299000305807FB054400FB0212A16CE56D19B924
:1029A00045F822300020F0BD9BB225F81230F9E73F
:1029B00010080010F80800102DE9F74F1D460D9B78
:1029C000DFF848B003EB02090C9B06460F4614469D
:1029D00003EB010A4C4515D04FF01C08394608FBA3
:1029E00006F80BE02B68019122463046FFF7C8FF3E
:1029F0000BEB080301991B6901311D445145F1D1CD
:102A00000134E7E7002003B0BDE8F08F10080010A4
:102A10001FB5CDE90112062100910146054801F0DC
:102A20002BFD002814BF6FF00700002005B05DF8F3
:102A300004FB00BFDC0800102DE9F04F1C7BDD7AA1
:102A40001F7D1E7E93F81DC0DFF82481240404EB53
:102A500005249D7A2C445D7B04EB0564DD7C3F04FA
:102A600007EB05279D7C2F445D7D07EB0567DD7D2A
:102A7000360406EB05269D7D2E445D7E06EB05663D
:102A80001D7F05EB0C254FF01C0C0CFB00FC08EB2C
:102A90000C0E58F80CC00CFB0212DEF810C03149C5
:102AA000DEF808E04FF0340909FB0E1185B0C96D5E
:102AB0000CFB0219A5F12002072A1AD9A5F1100270
:102AC000082A34BF4FF0020B4FF0010BED087D4395
:102AD000721E05FB02441C446B4203931C234FF0FF
:102AE000000A03FB0088B24506D1002005B0BDE80E
:102AF000F08F4FF0000BE9E7D8F80C301A4D9A1E12
:102B0000534253415B004FF48032C5E90123002357
:102B1000FF22C5E9113BEB60EB642A65134B2B6088
:102B2000284601F000F988B90121284601F0CEF9C4
:102B300060B9012300934A463B462146284601F0EE
:102B40002FF918B93221284601F044F9D8F800309D
:102B5000D8F8102002FB0399039B0AF1010A1C44D8
:102B6000C1E700BFF8080010740800100010005200
:102B7000100800102DE9F3411E46274B0C461C217E
:102B800001FB00301546C368022BDDE908273ED162
:102B9000C7F3451040F2031EC7F3C42140F20F2CC7
:102BA0000EFB00F00CFB01F121301731800907F01A
:102BB0001F07890900020CFB07F7173740EA01409D
:102BC00040EA971040F07F47DFF854804FF44031DF
:102BD000C8E901134046114BC8F80C20C8F8003072
:102BE00001F0A1F8A8B90121404601F06FF980B9C0
:102BF00000962B4622463946404601F0D1F840B9AE
:102C00001921404602B0BDE8F04101F0E3B80023CD
:102C1000DAE702B0BDE8F0811008001000100052A1
:102C200074080010F7B51C46104E1C2343430D4694
:102C3000F118F3588F680E690D494FF0340C0CFBF6
:102C4000071102FB0352C96D06FB02112A199342B8
:102C500038BF5C1B089B0193002500950123224689
:102C6000FFF788FF284603B0F0BD00BF1008001032
:102C7000F8080010F0B5114D1C2444432E1985B0FE
:102C80002C593569B76803950D4D4FF0340C0CFB8A
:102C90000755039FED6D02FB041107FB0151756899
:102CA000D618AE4288BFAB1A013C0A9A0192009432
:102CB0000122FFF75FFF002005B0F0BD10080010F3
:102CC000F8080010F7B51C461C2343430C4EF518BA
:102CD000F3582E69AD6802FB03110A4A342707FB3B
:102CE00005221B1BD56D099A019200932246089B71
:102CF00006FB0151FFF73EFF002003B0F0BD00BF0F
:102D000010080010F8080010012B13B50ED8D35C82
:102D1000009315220B460146084801F039FB18B113
:102D20006FF0070002B010BD0020FBE7CDE90012F4
:102D300001463922014801F03CFBF0E7DC080010B5
:102D4000164B70B5D3F8E020154C42F04002C3F8A2
:102D5000E020D3F8E03086B003F04003009308256C
:102D60000126009B0396032301A920460493CDE985
:102D7000015601F01DFC29460022204601F000FD0D
:102D8000142000F003FF32462946204601F0F8FCEB
:102D90000A2000F0FBFE06B070BD00BF00440258E0
:102DA000001802582DE9F0414FF0A0441E460023C0
:102DB0009EB0C0E90043904601240422C0E90224E9
:102DC0000F464FF0640C05226946CDE900C2054666
:102DD000029301F0F9F8002858D12D4BCDF84C8022
:102DE000197800290CBF23460023CDE903064FEADA
:102DF0000323284E05934FF224424FF00203CDE9FE
:102E0000063702FB07664FF0000346F62532B6FB95
:102E1000F2F60BBF96220F221046102008BF78242E
:102E20009942CDE911204FF4004114BF0422402201
:102E3000CDE9141216924FF4005E4FF48052CDE9A2
:102E400017E24FF400684FF48062CDE9198240F632
:102E5000FF774FF400714FF48072CDE90837CDE968
:102E60001B124FF0040C4D2703A92846CDE90A3365
:102E7000CDE90DC7CDE90F640C931D9301F058F90E
:102E8000003818BF01201EB0BDE8F0812046FAE7E7
:102E90002C080010D8C14200F0B4154C0023C0E942
:102EA0000043144C0361247801F12306C0E9023386
:102EB0004531BCB902F20D14772302F2A31240F29D
:102EC0000D1501278361002347618386232780F83E
:102ED0003630C761466205628462C162F0BC02633B
:102EE00002F00CBA02F10F040F251F32E9E700BF10
:102EF000001000502C080010F0B58FB017689668CD
:102F00005468D368156905955269029400254FF0FD
:102F1000FF0CCDE906C504934FF4C06E4FF0070CCB
:102F20000A929B1B0A46E41B01A9CDE908EC019714
:102F300003960B940C93ADF834508DF8365002F094
:102F400049FA0FB0F0BD00B54FF00052B3B0002306
:102F5000CDE9002305228423CDE90A230223CDE90C
:102F60000C3318214FF40063CDE90E13684600239B
:102F7000CDE9103303F092F833B05DF804FB0000A4
:102F80002DE9F04F012991B004460F461D4600F28D
:102F90005381002840F05081531E012B00F24C81D8
:102FA000022AA74E0ABF134604238246C6E903231A
:102FB0004FF000001A9B73600CBF14464FF0050AD7
:102FC0003560FFF7BDFE9F4B9F48D3F8E02042F4E9
:102FD0000072C3F8E020D3F8E02002F400720392FC
:102FE0004FF0000802234FF48059039A0AA90122E6
:102FF000CDE90C83CDE90A9201F0DAFA01224946C3
:103000009148DFF86C9201F0BBFB8E4B8E48D3F8F1
:10301000E01041F40071C3F8E010D3F8E01001F4BF
:1030200000710491022304990D934FF0040B0AA937
:10303000CDE90AB801F0BCFA83480122594601F0F3
:103040009FFB42460F21582000F0C6FD582000F09B
:10305000F5FD42460F215A2000F0BEFD5A2000F037
:10306000EDFD42460F217B2000F0B6FD7B2000F0F5
:10307000E5FD764AC9F80020754A724B7549DFF8BC
:10308000F48111604FF0A042C8F80020D3F8E4208A
:1030900042F00802C3F8E420D3F8E42002F008026A
:1030A0000292029AD3F88C2042F00802C3F88C20D6
:1030B000D3F88C2022F00802C3F88C20D3F8D42057
:1030C00042F01002C3F8D420D3F8D42002F010024A
:1030D0000192019ADA6F42F01002DA67DA6F22F099
:1030E0001002DA67D3F8E42042F01002C3F8E420BB
:1030F000D3F8E42002F010020092009AD3F88C205A
:1031000042F01002C3F88C20D3F88C2022F0100279
:10311000C3F88C201A9A534629464046FFF742FED0
:1031200020B16FF0030011B0BDE8F08F4846FFF703
:103130000AFF0028F5D11A9A29464846FFF7ACFE47
:103140000028EED100F092FB01460028E9D11A9B3D
:103150000C90CDE90A05CDE90D340AAA4FF0504391
:1031600048460F93FFF7C8FE0546002861D1404648
:10317000DFF804A1DFF8049101F0E7F85946404672
:1031800001F0D2F8DFF8F8800595ADF8185006A9DF
:10319000314D09955046CDF81C80CDF82090FEF7B2
:1031A00055FE90B12D4B09952D4D01221A7006A99F
:1031B00000232846CDE907890593ADF81830FFF7BD
:1031C000FFFAE8B16FF0060017E0DFF8B8B005A924
:1031D0005046CBF800A0FEF79FFC0028E2D1059BEB
:1031E000802BDFD11F4B204ADBF800001360214603
:1031F0001B683A4698470028D4D10123B36192E76F
:10320000DFF8808005A92846C8F80050FEF71AFFAD
:103210000028D7D1059B402BD4D1144B124AD8F8A3
:103220000000136021461B683A4698470028E4D006
:10323000C8E76FF00300E0E76FF0010073E700BF3D
:1032400010080010004402580024025800100050DA
:103250007408001000100052D12810082C0800102B
:10326000540800100800001030080010540000102E
:10327000F8080010DC08001034080010112A1008AB
:10328000092D10080C08001007B54FF4F0730093D7
:1032900001224FF44873FFF773FE03B05DF804FB9F
:1032A000094A02604A684260012282608A68C260FC
:1032B0000A6802614FF4407C0022C0E905C2C26185
:1032C000CA68026202F02ABB0050005213B50C46D5
:1032D000A0B90C484178807800931346224648B93B
:1032E0000948FEF783F918B16FF0040002B010BD71
:1032F0000020FBE70448FEF721F9F4E76FF0010036
:10330000F4E700BFA0090010AC0900102DE9F74355
:103310000F461446002837D1D5B2C5F580759D42B9
:10332000DFF87480DFF86C9028BF1D46D61898F837
:1033300001101848FEF71AF820B16FF0040003B02E
:10334000BDE8F08398F801104846FEF73AF80028E7
:10335000F3D198F80110009523463A464846FEF707
:103360009AF80028E9D198F801104846FDF7FEFFC9
:103370000028E2D12C4404F58073B3422F4406D9CF
:10338000351BA642D3D8DAE76FF00100D7E74FF438
:103390008075F6E7AC090010A009001070B50D4665
:1033A0001646A0B90B4C0C486178FDF7DFFF58B901
:1033B00061780948FEF705F830B961780648334668
:1033C0002A46FEF787F908B16FF0040070BD6FF070
:1033D0000100FBE7A0090010AC09001010B504467D
:1033E00008461CB9FDF7B1FF204610BD6FF0010083
:1033F000FBE7000010B588B90A4C0B48A378617848
:103400004BB9FEF728FA10B16FF0040010BD02238B
:1034100023700020FAE7FEF7D4F9F4E76FF001001B
:10342000F4E700BFA0090010AC090010F8B50C4685
:10343000174630BB174D2B78022B25D0164EB2FA0B
:1034400082F35B091B013046F36002F067FAF0B9C2
:103450006B78032B0FD1032C05D101232B706C70DB
:10346000AF700020F8BD3046FEF78FF90028F4D089
:103470006FF00400F6E7032CEFD13046FEF769F950
:10348000F4E76FF00100EDE76FF01900EAE76FF085
:103490000300E7E7A0090010AC0900102DE9F04790
:1034A0000C46A4B0002840F0AB81034D2F782FB11B
:1034B000002024B0BDE8F087A0090010C24BC3482B
:1034C000D3F8D42042F48042C3F8D420D3F8D420D7
:1034D00002F480420192019ADA6F42F48042DA6784
:1034E000DA6F22F48042DA67D3F8E02042F0020279
:1034F000C3F8E020D3F8E02002F002020292029A20
:10350000D3F8E02042F04002C3F8E020D3F8E020F6
:1035100002F040020392039AD3F8E02042F008023E
:10352000C3F8E020D3F8E02002F008020492049AE5
:10353000D3F8E02042F02002C3F8E020D3F8E020E6
:1035400002F020020592059AD3F8E02042F0200212
:10355000C3F8E020D3F8E02002F020020692069A99
:10356000D3F8E02042F02002C3F8E020D3F8E020B6
:1035700002F020020792079AD3F8E02042F04002BE
:10358000C3F8E020D3F8E02002F040020892089A45
:10359000D3F8E02042F08002C3F8E020D3F8E02026
:1035A00002F080020992099AD3F8E02042F08002EA
:1035B000C3F8E020D3F8E02002F080020A920A9AD1
:1035C000D3F8E02042F04002C3F8E020D3F8E02036
:1035D00002F040020B920B9AD3F8E02042F0400236
:1035E000C3F8E020D3F8E03003F040030C930C9BC9
:1035F0004FF004090223CDE916930926032316A9E7
:103600004FF04008CDE918734FF00A0A1A9600F0FF
:10361000CFFF012316A96E481893CDF85880CDF836
:1036200068A000F0C5FF4FF4006316A9694816931F
:1036300018971A9600F0BCFF16A96748CDF8589065
:103640001A964FF4007900F0B3FF16A96348CDF83D
:103650005890CDF868A000F0ABFF082316A95E488B
:1036600016931A9600F0A4FF802316A95B481693C0
:103670001A9600F09DFF16A95548CDF8589000F015
:1036800097FF16A95548CDF8588000F091FF4FF4E8
:10369000804316A94E48169300F08AFF3A460F2140
:1036A0005C2000F099FA5C2000F0C8FA11A8FDF740
:1036B0004CFE63784A4ACDF8408052F823200E929F
:1036C000119A92FAA2F2B3FA83F3B2FA82F25B0988
:1036D000013A1B0143480D920DA90F93FFF7E0FD3E
:1036E000002840F090803F480321FEF7FAF80028B8
:1036F0007BD13C480321FEF714F9002875D1697885
:103700003848FDF733FE014600286ED13548FEF7F4
:10371000E8F80146002868D13248FEF702F9014670
:10372000002862D10123A8702E482B80FDF71EFED1
:1037300000285AD169782B48FDF785FE002854D11E
:103740004FF440731C93852316934FF040731F93DF
:103750000223CDE91D00CDE92030CDE92200ADF8EE
:1037600002001B9041F288321E4816A902F024F98B
:1037700000283AD11B4841F288320DF1020102F0D3
:10378000B8F990BB69781748FDF71BFE68BB812329
:103790001693BDF80230134823F0F0031B051B0DF0
:1037A00043F4004343F0800341F2883216A9ADF898
:1037B000023002F001F9C0B90A4841F288320DF135
:1037C000020102F03DF90FE00044025800040258E3
:1037D00000180258000C0258001C0258001402582D
:1037E0007CC61008AC09001010B16FF0040060E650
:1037F00062782178FFF71AFE00283FF459AEF4E70B
:103800006FF0010055E66FF0030052E61549164BC4
:1038100010B50122C0E90012826004212022C0E913
:10382000031240244FF4C072C0E9054200224FF455
:103830000064C0E907244FF4805488B044629A625F
:1038400007220223CDE903126944CDE90132CDE913
:103850000533079303F0C6FB003818BF012008B0FA
:1038600010BD00BF40410052F8090010F0B50546F8
:103870008FB0002840F0DD80714B7248D3F8D4201F
:10388000714C724E42F48052C3F8D420D3F8D42045
:1038900002F480520192019AD3F8D42042F001023E
:1038A000C3F8D420D3F8D42002F001020292029A85
:1038B000D3F8E02042F00802C3F8E020D3F8E0207B
:1038C00002F008020392039AD3F8E02042F01002BB
:1038D000C3F8E020D3F8E02002F010020492049A2A
:1038E000D3F8E02042F02002C3F8E020D3F8E02033
:1038F00002F020020592059AD3F8E02042F040023F
:10390000C3F8E020D3F8E02002F040020692069AC5
:10391000D3F8E02042F08002C3F8E020D3F8E020A2
:1039200002F080020792079AD3F8E02042F48072F6
:10393000C3F8E020D3F8E03003F480730893022248
:10394000089B0123CDE90A2303270C23CDE90C733F
:1039500009A94CF20373099300F02AFE4FF6837312
:103960003B48099309A900F023FE4FF63F0339486D
:10397000099309A900F01CFE48F237133648099351
:1039800009A900F015FE4FF6E0733448099309A920
:1039900000F00EFE40F2FF633148099309A900F0E0
:1039A00007FE4FF080414FF0805340F2022040F676
:1039B0000802C4E90113C4E9050280232022C4E9F6
:1039C0000723C4E903354FF00072A3622046254B5C
:1039D00023606262C4E90B55C4E90D553463266463
:1039E00001F095FD204601F022FD2A460F217A20A4
:1039F00000F0F2F87A2000F021F93046FFF706FFD8
:103A0000D0B919490823C1E9003740F20363C1E97D
:103A100002303023C1E9053008614FF400733046AD
:103A2000CB61FDF765FC002818BF6FF004000FB0F4
:103A3000F0BD6FF00100FAE74FF0FF30F7E700BF8D
:103A400000440258000C02582C0A0010F80900101B
:103A5000001002580014025800180258001C0258A6
:103A60000020025840000052980A0010034B3422F4
:103A700002FB0030006B01F069BD00BFF8090010C7
:103A800038B50F4B1A7805460AB9012038BD4FF4F6
:103A90007A73B3FBF2F30B4A1068B0FBF3F000F05B
:103AA000DBF804460028F0D10F2DEED80246294657
:103AB0004FF0FF3000F090F8034B20461D60E5E723
:103AC000A000001000000010A400001013B5214C4D
:103AD000214AD4F8D83043F48043C4F8D830D4F81D
:103AE000D83003F480430193019BD2F8003423F4CF
:103AF0007F2323F4706343F40143C2F80034D2F807
:103B0000003443F00103C2F80034032000F052F8FF
:103B100002F0DEF8A269A3691049C2F3032203F0A0
:103B20000F038A5CCB5C02F01F02D04003F01F033E
:103B3000D8400B4B18600B4B18600020FFF7A0FF1C
:103B4000044620B9FDF714FA204602B010BD012446
:103B5000FAE700BF0044025800400240E4BF1008EA
:103B60000400001000000010034A044B11681B7889
:103B70000B441360704700BFB80A0010A00000108B
:103B8000014B1868704700BFB80A001038B50446EA
:103B9000FFF7F6FF631C1CBF054B1B78054618BFDB
:103BA000E418FFF7EDFF431BA342FAD338BD00BF73
:103BB000A00000100749CA6822F4E0620302120460
:103BC00003F4E063120C134343F0BF6343F4003388
:103BD000CB60704700ED00E0164B30B5DC68C4F3F5
:103BE0000224C4F10703251D042B28BF0423062D3E
:103BF0004FF0FF358CBF033C002405FA03F321EAA4
:103C00000303A54022EA0502A340002843EA020379
:103C1000ACBF00F16040084A4FEA0313B8BF00F0A0
:103C20000F00DBB2AABF00F56140135480F80033E7
:103C300030BD00BF00ED00E014ED00E0002807DB20
:103C4000044A4109012300F01F00834042F821305B
:103C5000704700BF00E100E00138B0F1807F0BD277
:103C60004FF0E023054A5861F02182F8231000202C
:103C7000072298611A6170470120704700ED00E04B
:103C8000044B1B68C3F30313072B0CBF0320012055
:103C9000704700BF00ED00E070B50468049D666CDD
:103CA00045EA034306F04046334363644368E263F6
:103CB000B3F5403F30D185681DB1012D03D121F00E
:103CC0007F41A16370BD022D01F47F0301F47F40A9
:103CD000CAB207D1D90C800AC90241EA401141EAAF
:103CE000D201EEE7032D01F07F410AD1DB0CC00ABF
:103CF0009B0243EA401343EAD203C90F43EAC131AE
:103D0000DFE71B0D000B1B0243EA001343EA12130B
:103D1000090F43EA0131D4E7B3F5802F0CBF61618D
:103D2000E160CFE7704710B50446002836D090F820
:103D3000613003F0FF021BB980F86020FFF7F2FF4B
:103D4000022384F861302368E0691968626821F40D
:103D5000E021024321F040010A431A60596BA06937
:103D6000A26821F48371024321F001010A435A63DE
:103D70001A6CE168120C12040A431A64D4E90402B2
:103D8000596B520542EA005221F440110A435A632A
:103D900000200123606684F8613010BD0120FCE73B
:103DA00073B590F86050012D04464FF002050FD016
:103DB00080F861500126069D80F860600095FFF74D
:103DC0006BFF2268136833431360002002B070BD9C
:103DD0002846FBE773B50023019303681B68DB07E4
:103DE00004460D4618D42268D369526A13439E06CE
:103DF00006D5FFF7C5FE064623685A68D2063ED5AB
:103E0000236812229A60012384F861300020002385
:103E100084F8603002B070BDFFF7B2FE064623683A
:103E20005A689207DFD45A680192019A12F0210F62
:103E300014D0019A950642BF626E42F00202626699
:103E4000019AD00742BF626E42F0010262662122EF
:103E50009A60042384F861300120D8E7691CDFD020
:103E6000FFF78EFE801BA84201D8002DD7D1636ECC
:103E7000032043F02003636684F86100C7E75A68B3
:103E80000192019A12F0290F16D0019A160742BF2B
:103E9000626E42F004026266019A950642BF626E4B
:103EA00042F002026266019AD00742BF626E42F09F
:103EB000010262662922CBE7691C9ED0FFF760FEF3
:103EC000801BA842D3D8002D96D1D0E770B590F8CA
:103ED0006030012B4FF0020330D0012280F86020C7
:103EE0001C2202FB010280F86130D2E90B45936B82
:103EF0001B0543EA0543D56B526B234343EA455305
:103F0000A4F10905012D9ABF02F07F42134343EA51
:103F100002630268A1B9546A174921401943012D6F
:103F2000836A5162936103D8436B23F07F439362AA
:103F3000012380F86130002380F86030184670BD9E
:103F40000B2C01BF1C2404FB01040C4E246C14BF79
:103F50000B4E43EA8443D46924EA06042343D36125
:103F60001C2303FB0101012D8B6A13619EBF4B6B68
:103F700023F07F431362DBE7F0FFCC000F003FFF2D
:103F80000F0033FF2DE9F04107460D4614461E464B
:103F9000FFF7F6FD80463A68536FDB070AD50699AE
:103FA00044EA062343EA014343EA8513D36600202B
:103FB000BDE8F081FFF7E4FDA0EB0800B0F57A7FE3
:103FC000E9D90320F4E7704773B50D46044600288D
:103FD00000F0A980437C0BB9FFF7F5FF032363745E
:103FE000002300932368D3F8302442F08072C3F892
:103FF0003024D3F8303403F080730093009BFFF734
:10400000BFFD06462268D2F80C34D9047AD5D2F81E
:10401000303423F45E3323F4FE73C2F83034D5E930
:104020000003DB0243EA8003A868D2F8301443EAB5
:1040300000430B43C2F8303400230193D2F83034EC
:1040400043F00103C2F83034D2F8303403F00103F6
:1040500001930120019BFFF799FDFFF791FD0646B3
:104060002368D3F80C24D20556D5D3F8A020616874
:1040700042F00602C3F8A020D3F8942022F00302F5
:10408000C3F89420D3F894200A4342F00102C3F805
:104090009420D3F8A420E16822F00302C3F8A420FE
:1040A000D3F8A4200A43C3F8A4209A68A16822F098
:1040B000FF029A609A680A439A606A681B49012A5B
:1040C00038BF01224A43A96801F003018A402968E8
:1040D00046F2A8104143B2FBF1F2D3F8181421F0D4
:1040E0003F01C3F81814D3F8181400200A43C3F88A
:1040F0001824C3F8C400C3F8C80001236061A0619C
:10410000637407E0FFF73CFD801BB0F57A7F7FF614
:1041100079AF032002B070BDFFF732FD801BB0F510
:104120007A7F9DD9F5E70120F4E700BF00093D0043
:1041300070B5037C012B00F0EE800123037403684B
:104140004C685A6BCD684E6922F001025A63D3F86D
:10415000002422F00102C3F800249A6B22F003022B
:104160009A639A6B2A439A63DA6B0D6922F47F5241
:1041700022F03F02DA63DA6B2A43DA631A6C674D86
:104180002A401A641A6C32431A645A6C2A405A64E0
:104190005A6C8D692A435A64DA680D6822F003026A
:1041A000DA60DA682A43DA605A6922F007025A6153
:1041B000D1E908623243CE695D6932432A435A61CC
:1041C0001A6922F00F021A611A6922431A61D3F8A0
:1041D000002422F00E02C3F80024D3F80024032C9C
:1041E00042EA4402C3F8002407D11A698C6822F419
:1041F00080721A611A6922431A619A6C484C8D6A5E
:1042000022409A649A6C2A439A64DA6C4D6B22407D
:10421000DA64DA6CCC6A2243DA641A6D0C6B22F42D
:10422000FF4222F07F021A651A6D22431A655A6D09
:104230003C4C22405A655A6D2A435A659A6D8D6BE3
:1042400022409A659A6D2A439A65DA6D2240DA65B2
:10425000DA6DCC6B2243DA651A6E22F47F5222F0BB
:104260003F021A661A6E0C6C22431A669A6B4C6CEB
:1042700022F400429A639A6B22439A639A698C6C87
:1042800022F47F029A619A6942EA04429A619A6929
:10429000CC6C22F0FF029A619A6922439A619A6B70
:1042A0000C6D22F400529A639A6B22439A639A6BC4
:1042B0004C6D22F480529A639A6B22439A639A6BF4
:1042C0008C6D22F400629A639A6B22439A639A6B14
:1042D000CC6D22F480629A639A6B22439A639A6B44
:1042E0000C6E22F400729A639A6B22439A639A6B63
:1042F0004C6E896E22F480729A639A6B22439A63A1
:104300009A6B22F480429A639A6B0A439A63002361
:104310000374184670BD0220FCE700BF00E0FFFFF9
:1043200000F0FFFF00FCFFFF037C012B0BD00368B4
:10433000DA6A22F01F02DA62DA6A1143D9620023D4
:1043400003741846704702207047037C012B82B02B
:104350001CD0026800230093516841F001015160B4
:10436000516801F00101009100990193D2F8041401
:1043700041F00801C2F80414D2F80424037402F0D6
:1043800008020192019A184602B070470220FBE72A
:1043900037B5057C012D044609D001250574069D1D
:1043A0000095FFF7EFFD0023237403B030BD02201A
:1043B000FBE72DE9F84F1C46037C012BDDE90A9849
:1043C00006460F46154655D001230374FFF7D8FB68
:1043D0008346D6F800C0DCF8743013F0010A1CD014
:1043E000032C21464FF0000228BF03218A4220D12E
:1043F000A31ACCF8709042441BBB0134220245EA58
:10440000871192B2240241EA020504F47F04254395
:10441000CCF86C501846337409E0FFF7B1FBA0EB01
:104420000B00B0F57A7FD4D986F810A00320BDE840
:10443000F88F18F802300132D000834049EA0309AE
:10444000D4E7042B4FF000009E46014628BF4FF0F2
:10445000040E12F801804FEAC109013108FA09F887
:104460008E4540EA0800F4D1CCF87000A3EB0E03AF
:104470007244C1E70220DAE72DE9F7431E46037CC8
:10448000DDF82890DDF83080012B05460C461746F4
:104490006FD00123022E03740DD9C6F307230093B6
:1044A0003722F3B2FFF76EFD28B100232B740120F1
:1044B00003B0BDE8F083B9F1060F0FD10B9B2A685A
:1044C0001B0243EA841343F00603D366FFF758FB4D
:1044D0000446002E27DC00202874E9E7B9F1040F18
:1044E00005D1A4012B6844F00404DC66EEE7B9F1C1
:1044F000140F08D198F800202B68A40144EA022484
:1045000044F01404F1E7B9F1240FCED198F801205A
:104510002B68A40144EA024498F8002044EA0224EB
:1045200044F02404E1E72A68536F13F010030DD11F
:10453000042E106F324628BF0422D90020FA01F160
:10454000F95401339A42F8D11744B61AFFF718FB11
:10455000001BB0F57A7F03D900232B740320A7E753
:104560002B685A6F5206B4D4D3F8C0309B069CD443
:10457000AFE702209CE770B50468012604F01F0332
:104580009E400546FFF77CFBC4F301431B01032853
:1045900003F1B0430CBF8833C8331A68324205D0E8
:1045A0001E606B6813B1BDE87040184770BD000015
:1045B0002DE9F74FDFF8C49100234FF0B0440A68AB
:1045C00032FA03F502D103B0BDE8F08F4FF0010ECF
:1045D0000EFA03FE1EEA020200F0BA804E6806F0F0
:1045E00003054FEA43084FF0030C6F1E0CFA08FC5A
:1045F000012F6FEA0C0C34D8876807EA0C0ACF68E1
:1046000007FA08F747EA0A078760476827EA0E0EA5
:10461000C6F300179F4047EA0E074760C76807EADE
:104620000C0E8F6807FA08F747EA0E07022DC760DD
:1046300019D14FEAD30A00EB8A0A03F0070BDAF824
:1046400020704FEA8B0B4FF00F0E0EFA0BFE27EA8D
:104650000E0E0F6907FA0BF747EA0E07CAF820702B
:1046600001E0032DDAD1076805FA08F507EA0C071F
:104670003D4316F4403F05606AD0D9F8F45045F048
:104680000205C9F8F450D9F8F45023F0030707F1F4
:10469000B04705F0020507F58067019503F0030CAC
:1046A000019DD7F808E04FEA8C0C0F2505FA0CF5B0
:1046B0002EEA050E304DA8424CD005F58065A84283
:1046C0004AD005F58065A84248D005F58065A84226
:1046D00046D005F58065A84244D005F58065A8421E
:1046E00042D005F58065A84240D005F58065A84216
:1046F0003ED005F58065A8423CD005F58065A8420E
:104700000CBF09250A2505FA0CF545EA0E05BD6022
:104710002568D74316F4801F0CBF3D401543256024
:10472000656816F4001F0CBF3D4015436560D4F862
:10473000C45016F4003F0CBF3D401543C4F8C450AC
:10474000D4F8C050F60354BF3D401543C4F8C050E0
:10475000013334E70025D6E70125D4E70225D2E767
:104760000325D0E70425CEE70525CCE70625CAE7D3
:104770000725C8E70825C6E700000258004402588C
:104780000AB1816170470904FBE72DE9F043054652
:1047900085B095F8F8429DF830E09DF83480BDF87A
:1047A0003890012C25D0012485F8F8422C2404FBF4
:1047B0000154D009002702F07F0684F83D7084F888
:1047C000383084F8391084F83F8084F83A6084F8EF
:1047D0003B0084F83CE0A4F840902868CDF800E065
:1047E000CDE9018903F0E2FA85F8F87205B0BDE879
:1047F000F0830220FAE710B590F8F832012B044656
:1048000009D0012380F8F832006803F055FB00203E
:1048100084F8F80210BD0220FCE72DE9F0410646BD
:104820008AB0002843D090F8F932046803F0FF0200
:104830001BB980F8F82205F0B3FF032386F8F9329C
:10484000E36B344613F4807354F8100B08BFF36025
:1048500003F013F90FCC6D460FC50FCC0FC594E8CC
:10486000030085E8030006F10408374698E80E00C7
:10487000306803F0B3F857F8100B012103F003F987
:104880000FCFEC46ACE80F000FCFACE80F0094E878
:10489000030085E8030098E80E00306803F0B2F9E1
:1048A000012386F8F93200200AB0BDE8F08101202A
:1048B000FAE70000F0B42C2606FB01069DF8107004
:1048C000059DBDF818409DF81CC086F83B2086F871
:1048D0003F307FB90327022B86F8427086F83DC02F
:1048E0003CD0BB423AD0012B1FD12C2303FB010348
:1048F000002230E04FF0020C86F842C0032B14D89F
:1049000001A656F823F000BF19491008EB4810081B
:104910005D4910085D491008012F06D12AB92C23E2
:1049200003FB01039CB983F855702C2202FB0103A1
:10493000DC64002483F83910A3F860401946027B38
:104940005D641C650068F0BC383103F025BB93F84A
:104950005560002EE9D183F84220E6E72C2303FBC3
:1049600001032AB993F85560002EF4D00222F2E731
:1049700093F85420002AF9D1EDE700BF2DE9F04F5C
:10498000D0F8009085B00446484603F036F9012877
:1049900040F0F880206803F024F9002800F0F2804D
:1049A000206803F01EF9810248BF2368206844BFD5
:1049B0004FF400125A6103F014F9C20248BF236891
:1049C000206844BF4FF480125A6103F00AF9430192
:1049D00048BF2368206844BF4FF080625A6103F0EB
:1049E00000F9870748BF2368206844BF02225A6144
:1049F00003F0F7F8860018D523684FF000525A618B
:104A0000D9F84034DD0710D41021484603F06CF883
:104A1000484603F08FF8A369022B03D120680121D7
:104A200003F058F9204605F097FF206803F0D9F805
:104A3000C0013DD52568D5F840340293D5F84034FF
:104A40000393039B23F02E030393029B990709D53D
:104A5000029BDA0702D5204605F07AFF039B43F05C
:104A600002030393029B1B0718D5039B43F0080323
:104A70000393029B5F0740F19080A169022940F0F7
:104A80008480029B206803F4C023B3F5802F18BFF5
:104A9000012103F01FF9204605F063FF029B9E06EB
:104AA00042BF039B43F020030393039BC5F84034AC
:104AB000206803F096F8050705D5204605F044FF69
:104AC000236808225A61206803F08BF8C00642D59B
:104AD0002668B36923F01003B361376AC7F3434311
:104AE000022B33D1C7F30A18B8F1000F2ED007F00C
:104AF0000F072C2505FB0745696C39B32B6DEA6C54
:104B0000434493424DD84246304603F04AF86B6C1A
:104B1000B5F8401043446B6406F5A0662B6D7A012E
:104B200006EB4717434488452B653B690ED1C3F319
:104B3000C9435BB1B35823F0804343F00043B35003
:104B400095F8543083F0010385F854302268936956
:104B500043F010039361206803F043F8810111D5FD
:104B6000206803F0A4F909F5A06983464FF0000A14
:104B70004FF002082C27A3682668534515D84FF03C
:104B80000073736105B0BDE8F08F2369012B04BF8A
:104B90004EF66022C5F804247DE7204605F0E5FEC8
:104BA0007CE7042385F86030D0E70AF00F032BFA86
:104BB00003F3DA0740F1AD80D9F800305FFA8AF5E7
:104BC0001B042946304640F1548103F00EF8420799
:104BD00009D506F5A06303EB451304229A6007FB91
:104BE000054307220FE02068294602F0FEFFC305B7
:104BF00022D506F5A06303EB45134FF480729A604B
:104C000007FB0543082283F861202068294603F04A
:104C100053F92946206802F0E8FF10F4007F294686
:104C2000206836D006F5A06603F046F906EB451677
:104C30004FF40073B3606CE02068294602F0D5FFA2
:104C4000000709D506F5A06303EB451308229A6017
:104C500007FB05430622D6E72946206802F0C5FF78
:104C600041050AD506F5A06303EB45134FF48062B6
:104C70009A6007FB05430922C5E72068294602F030
:104C8000B4FF0206C5D506F5A06303EB45138022E9
:104C9000A4E702F0AAFFC3074DD506F5A06101EB1A
:104CA00045162023B360E36868014BB107FB054C50
:104CB0003269DCF84830C2F312029B1ACCF850304B
:104CC00007FB054301224FF0000C83F86120C3F875
:104CD0005CC0B26093F83F2012F0FD021ED1206844
:104CE000294603F0E9F81023B360E368012B07FBC2
:104CF000054508D12B6DB5F84020013B1344B3FBAB
:104D0000F2F3DE0705D595F8543083F0010385F8FA
:104D100054300AF1010A09F120092CE7012AE4D1F3
:104D20000E5846F000560E5083F860202946204663
:104D300005F016FED9E72068294602F056FF8006E6
:104D400005D506F5A06606EB4516202372E7206818
:104D5000294602F04AFF10F002034DD006F5A06686
:104D600006EB451307FB0542C3F8088092F8613053
:104D7000012B4FEA45110CD140F20123A2F860301B
:104D800007FB0543294693F86020204605F0E8FD1F
:104D9000BFE7023B072BF3D801A252F823F000BF74
:104DA000134D1008E1501008C14D1008E1501008D3
:104DB000F5501008FF501008E54D1008FF5010087E
:104DC00007FB054340F20222A3F8602093F83F302E
:104DD00013F0FD0FD4D1735823F0804343F0004308
:104DE0007350CDE707FB0543DA6D0132DA654FF406
:104DF0000172A3F86020C3E720680193294602F0FE
:104E0000F4FE10F040020FD006F5A06606EB451642
:104E10004022B26007FB0542019BD365052182F861
:104E200061102068294652E029462068019202F06C
:104E3000DCFEC1067FF56DAF07FB0543206893F8E4
:104E40003F10019A032907D1DA65042283F8612013
:104E5000294603F031F806E011F0FD0103D1E268C4
:104E6000D965002AF1D006F5A06606EB4516102399
:104E7000E0E602F0BAFE10F004030BD006F5A066DF
:104E800006EB45160423B360072207FB054383F8AE
:104E90006120C6E720680193294602F0A6FE82063B
:104EA00018D506F5A06606EB45162022B26007FB72
:104EB0000542206892F83D10019B01297FF429AF3B
:104EC00082F83D3040F20233A2F86030294602F009
:104ED000F3FF1EE72068294602F087FE10F40072F7
:104EE00007D006F5A06606EB45164FF40073B360D5
:104EF00097E720680192294602F077FE10F001033F
:104F00001BD007FB0543019ADA6520680193294607
:104F100002F06BFE06F5A066430606EB451605D5C6
:104F2000019B012283F83D204023B36007FB05422B
:104F30000123B36082F8613073E72068019329464A
:104F400002F053FE400613D507FB0542052182F807
:104F500061100121019B82F83D10D365206829462C
:104F600006F5A06602F0A8FF06EB4516402361E6B1
:104F70002946206802F039FE010709D506F5A0662A
:104F800006EB45160823B360062207FB05437EE7C0
:104F90002068294602F029FEC20612D507FB054308
:104FA0000022DA65042283F8612093F83D202AB9B3
:104FB00093F83C2012B9012283F83D20206829464D
:104FC00047E72068294602F010FE030624D5E3686F
:104FD00073B907FB0543072283F86120206829463F
:104FE00002F06AFF06F5A06606EB4516802321E66F
:104FF00007FB0543DA6D0132022ADA6509D900227E
:10500000DA65042283F860202946204605F0A8FCD2
:10501000E8E783F86080E5E72068294602F0E5FDCF
:1050200040050FD507FB0543092283F8612020685E
:10503000294606F5A06602F03FFF06EB45164FF441
:105040008063F7E52946206802F0CFFD81077FF5F0
:1050500060AE06F5A06606EB45136901C3F808804B
:1050600007FB054393F86120012A23D140F2012276
:10507000A3F8602093F83F20023A012A3FF680AE61
:10508000E26832B993F8552082F0010283F8552086
:1050900076E6012A7FF474AEDA6C002A3FF470AE33
:1050A000B3F84010013A0A44B2FBF1F2D2077FF59F
:1050B00067AEE7E7D31E062B3FF62BAE01A252F8F0
:1050C00023F000BFE1501008EB501008EB5010081F
:1050D000F5501008FF501008134D1008FF5010082D
:1050E00007FB054383F861804AE607FB054340F26E
:1050F00002227EE607FB054340F2052279E607FB24
:105100000543DA6D83F861800132022ADA6505D938
:105110000022DA65042283F8602031E683F860809B
:1051200059E600BF10B590F8F832012B04460CD0B8
:10513000012180F8F812006802F008FE206802F0F1
:1051400096FC002084F8F80210BD0220FCE710B5A0
:1051500090F8F832012B044609D0012380F8F83288
:10516000006802F0BFFF002084F8F80210BD0220A2
:10517000FCE7006802F0CCBD2C2303FB010191F891
:10518000600070472C2303FB0101086D7047006825
:1051900002F007BE006802F0F9BD0000044B2030A9
:1051A00053F82000034BC01A18BF0120704700BFFE
:1051B0000064025800010080024B41F4807143F802
:1051C0002010704700640258024A136918431061A6
:1051D000704700BF0065025808B5054BD8691A69C9
:1051E00022EA00021A61586105F034F808BD00BFD8
:1051F000006502580068D1F800C0D20184328318DB
:105200002DE9F043C6685D684C68D1F8189005F444
:1052100070455D60C5680CF10107C5F30B45C6F329
:105220000B463D44264445EA06455D60C668CD68A8
:10523000C6F30A062E449D6805F470459D60C76854
:105240008D68C7F30A0701353D4445EA06459D6070
:105250001D690E6925F007051D614FF0000E1E61E6
:105260009D6991F8327091F83180C3F818E091F897
:10527000305045EA096545EA082545EA07459D613C
:105280005D6925F0FF055D614D695D61DD6925F4AE
:10529000E06525F00705DD61D1E907573D43DD6194
:1052A0009D6A4D6AC3F828E09D62FEB1013E062E5C
:1052B0001ED8104DAD5DDE6A06F0E026DE62A4EB7E
:1052C0000C048E6AC96A6C436E43073444EA064490
:1052D000DC621C6B24F4FF6424F007041C63196374
:1052E000835843F001038350BDE8F0830425E2E7CF
:1052F0000125E0E784C610087047000038B5044671
:10530000002863D090F8A13003F0FF021BB980F8A9
:10531000A020FFF7F1FF022384F8A13023689A69E7
:1053200022F070429A61D4E901200243E068996951
:105330000243206902430A439A619A6824496069DA
:105340000A409A609A6842EA0042A06902439A6061
:10535000DA68E0690A40DA60DA6842EA0042206A04
:105360000243DA601A69606A0A401A611A6942EAFD
:105370000042A06A02431A615A690A405A615A6996
:10538000E16A42EA0142216B0A435A61DA6A94F8FF
:10539000350094F8361002F07F42DA62DD6A94F844
:1053A00034202A4342EA002242EA0142DA625A6B7E
:1053B00042F006025A639A6942F001029A610020A3
:1053C0000123C4F8A40084F8A13038BD0120FCE713
:1053D00000F800F02DE9F04190F8A030012B0646CE
:1053E0000F4694464FF002001FD04FF0010886F898
:1053F000A08086F8A10034240D4604FB02640FCD82
:1054000038340FC40FCD0FC40FCD0FC42B682360E9
:10541000304662463946FFF7EDFE33680020C3F898
:10542000248086F8A18086F8A000BDE8F08138B518
:105430000446FEF7A5FB0546002C66D0002384F841
:105440003C302268022384F83D30D36823F0010306
:10545000D3602368DA68D2074DD4D4E903210A4324
:10546000DA60D4E905210A43E1690A43216A0A4363
:10547000616A0A43E16A0A43216B0A43A1680A434D
:10548000A16A013942EA814261681A61B1F1804F33
:1054900002BF1A6942F040421A6100225A61626BEF
:1054A000002ABEBF5869524240F4802092B2B8BF71
:1054B00058611A62A26B002AB7BF5869186A40F493
:1054C00000205861BCBF186A524240EA0242B1F162
:1054D000804F1A6218BFC9B24FF0000214BF996220
:1054E0009A625A620123C4E9172200206266A2660A
:1054F00084F83D3038BDFEF743FB401B0528A8D992
:105500004023A366032384F83D300120F2E7D8B19D
:105510000268D36823F00103D3601F210023D36006
:10552000136153619361D361136253629362136396
:10553000536351608366C0E91733436680F83D309A
:1055400080F83C30184670470120704737B500237B
:105550000193594B4FF0A4421D680368044610683C
:1055600003F12E42403AC2F38412012101FA02F201
:10557000024200F09E801A68D10729D5DA689207A6
:1055800026D5DA6822F00202DA609A68A16E100667
:105590004CBF41F0020141F00101A166910542BFFB
:1055A000A16E41F00401A166D00542BFA16E41F099
:1055B0000801A166510542BFA16E41F01001A1662C
:1055C000120542BFA26E42F02002A26601225A607A
:1055D0001A68D00608D5DA68910605D510225A60F7
:1055E000A36C0BB12046984723681A68120708D5A8
:1055F000DA68D00605D508225A60E36C0BB1204664
:10560000984723681A68510708D5DA68120705D544
:1056100004225A60236D0BB12046984723681A680C
:10562000900724D5DA68510721D5DA6822F03E02C6
:10563000DA6094F83D20042A4FF000020CD10123D7
:1056400084F83D30A36D84F83C20002B31D02046F7
:1056500003B0BDE83040184702215960012384F8A7
:105660003D30636C84F83C200BB120469847A36E14
:10567000FBB14FF41653B5FBF3F5042384F83D302A
:105680002368DA6822F00102DA60019A0132AA4244
:10569000019202D8DA68D207F7D4002284F83C20BD
:1056A000DB68DB074CBF0323012384F83D30636DC7
:1056B000CBE703B030BD00BF0000001038B51E4C72
:1056C000236823F0010318430D462060C2B9FEF79A
:1056D000D7FA032813D1236923F001032361174B61
:1056E0001A6942F004021A61BFF34F8FBFF36F8F44
:1056F000012D10D130BF1A6922F004021A6138BDA1
:10570000012A0AD1FEF7BCFA0128F8D1636923F017
:1057100002036361E3E720BFEDE7FEF7B1FA032878
:105720000BBF2369636923F0040323F004030CBF58
:1057300023616361E3E700BF0048025800ED00E029
:1057400008B5FEF79DFA032801D120BF08BD40BF70
:10575000FBE70000024AD36843F08073D3607047D0
:10576000004802582DE9F0474E6A3EB1B2F1406F51
:105770001FBF8B6A046803F1FF332361D1F818A0BF
:10578000D1E9077EBAF1000F4CD04C6905680B686F
:10579000D1F834804FEA844C4AEA0604D1E90B0977
:1057A00044EA020ABEF1000F24D08E68EE614AEA94
:1057B0000E040E699FB13B43034343EA0903C868E3
:1057C00043EA08033343034343EA0C032343B2F1A0
:1057D000406F6B6101D04B68AB61BDE8F08703435C
:1057E00043EA090343EA0803334343EA0C03234330
:1057F0006B61F2E767B13B43034343EA0903C868BF
:1058000043EA0803034343EA0C0343EA0A03DEE7DF
:10581000034343EA090343EA080444EA0C0343EA66
:105820000A03E5E7BEF1000F29D046EA0E05046839
:105830004E698B68E361D1E90B8E0B69D1F834C0F6
:105840001543B6048FB13B4343EA0803C86843EAF3
:105850000E0343EA0C03034333432B43B2F1406F7F
:105860006361BAD04B68A361B7E743EA080343EA30
:105870000E0343EA0C0333432B436361ADE7AFB13F
:10588000CC6A006846EA0703134323430C6B2343A7
:105890004C6B2343CC6823434C69B2F1406F43EA1D
:1058A0008443436199D04B68836196E7002E94D07E
:1058B000CB6A0068334313430A6B13434A6B1343A9
:1058C0004A6943EA8243436187E72DE9F041DDF805
:1058D000188004460E4615461F46226893683342D8
:1058E00014BF01230023AB4201D1002012E0B8F124
:1058F000FF3FF3D0FEF744F9C01B404502D8B8F192
:10590000000FEAD1042384F84130636C43F00103B3
:1059100063640120BDE8F0817047000030B585B0B8
:105920000446FEF72DF90346002C40D094F84120A0
:105930003AB903902046FFF7EFFF41F28832039B0C
:10594000A2642068A1680268013922F4F85242EA90
:1059500001220260A26C0092202100222046FFF763
:10596000B4FF10BBE569E36822682B43256A116820
:105970002B43656821F07F4143EA056321F0D001A4
:105980000B431360D4E905310B432169556843EAA1
:105990000143084929400B435360136843F0010356
:1059A00013600123606484F8413005B030BD0120EC
:1059B000FBE700BFFEF8E0FF2DE9F043044685B0A9
:1059C00017468946FEF7DCF894F84020012A034682
:1059D00034D0012284F8402094F84120012A5FFA53
:1059E00082F84FF0020627D100226264039084F807
:1059F0004160009720212046FFF767FF0546A0B9C8
:105A0000024649462046FFF7ADFED9F82420039B05
:105A10004AB90097424631462046FFF756FF0546F1
:105A200018B92368DE6084F84180002384F8403090
:105A3000284605B0BDE8F0833546F6E70225F7E7CE
:105A4000F0B5044685B016460F46FEF799F894F86F
:105A500040202568012A034649D0012284F84020CD
:105A600094F84120012AD0B23FD100226264002F75
:105A700036D0122284F841202A690132E2622A6972
:105A800067620132A2626A6922F040626A61E26A78
:105A90008AB90096012202212046FFF716FF10B9AD
:105AA00023680222DA60012384F84130002384F85D
:105AB000403005B0F0BD009601220421204603933A
:105AC000FFF703FF0028EED1626A039B127885F886
:105AD0002020626A01326262E26A013AE262D6E73B
