:020000040810E2
:1000000000800410C11010082D0D1008370D1008C5
:100010003D0D1008430D1008490D100800000000A8
:100020000000000000000000000000004F0D10085C
:100030005D0D1008000000006B0D1008790D100810
:1000400011111008111110081111100811111008C8
:1000500011111008111110081111100811111008B8
:1000600011111008111110081111100811111008A8
:100070001111100811111008111110081111100898
:100080001111100811111008111110081111100888
:100090001111100811111008111110081111100878
:1000A0001111100811111008111110081111100868
:1000B0001111100811111008111110081111100858
:1000C0001111100811111008111110081111100848
:1000D0001111100811111008111110081111100838
:1000E0001111100811111008000000001111100862
:1000F0001111100811111008111110081111100818
:100100001111100811111008111110081111100807
:1001100011111008111110081111100811111008F7
:1001200011111008111110081111100811111008E7
:1001300011111008111110081111100811111008D7
:10014000111110081111100800000000000000003B
:1001500011111008111110081111100811111008B7
:1001600011111008111110081111100811111008A7
:1001700011111008850D1008111110080000000061
:100180001111100811111008111110081111100887
:100190001111100811111008111110081111100877
:1001A0001111100811111008111110081111100867
:1001B0001111100811111008111110081111100857
:1001C0001111100811111008111110081111100847
:1001D0001111100811111008111110081111100837
:1001E0001111100811111008111110081111100827
:1001F0001111100811111008111110081111100817
:100200001111100811111008111110081111100806
:1002100011111008111110081111100811111008F6
:1002200011111008111110081111100811111008E6
:100230001111100811111008990D10081111100852
:1002400011111008111110081111100811111008C6
:1002500011111008111110081111100811111008B6
:1002600011111008111110081111100811111008A6
:100270001111100811111008111110081111100896
:1002800011111008111110081111100800000000C0
:080290001111100811111008F2
:1002A00010B5054C237833B9044B13B10448AFF3B0
:1002B00000800123237010BD4401001000000000E5
:1002C000A0DE100808B5034B1BB103490348AFF388
:1002D000008008BD0000000048010010A0DE1008EA
:1002E00010F8012B11F8013B012A28BF9A42F7D0E0
:1002F000D01A70470000000000000000000000005D
:1003000001F0FF01102A2BDB10F0070F08D010F8C6
:10031000013B013A8B422DD010F0070F42B3F6D1CA
:10032000F0B441EA012141EA014122F007047FF0E3
:1003300000070023F0E80256083C85EA010586EA3A
:10034000010685FA47F5A3FA87F586FA47F6A5FA76
:1003500087F68EB9EED1F0BC01F0FF0102F0070282
:1003600032B110F8013B013A83EA010313B1F8D12D
:100370000020704701387047002D06BF354603380E
:10038000073815F0010F07D1013015F4807F02BF47
:10039000013015F4C03F0130F0BC0138704700BF98
:1003A00053B94AB9002908BF00281CBF4FF0FF31DC
:1003B0004FF0FF3000F070B9ADF1080C6DE904CEDC
:1003C00000F006F8DDF804E0DDE9022304B0704730
:1003D0002DE9F047089E0D4604460F46002B4AD1F2
:1003E0008A42944665D9B2FA82F343B102FA03FC19
:1003F000C3F120029F4020FA02F217439C404FEACB
:100400001C4E1FFA8CF5B7FBFEF1220C0EFB117788
:1004100042EA074201FB05F090420AD91CEB0202B6
:1004200001F1FF3780F01C81904240F219810239BE
:100430006244121AA4B2B2FBFEF00EFB102244EA90
:10044000024400FB05F5A5420AD91CEB040400F1A7
:10045000FF3280F00781A54240F2048164440238F3
:1004600040EA0140641B00211EB1DC400023C6E9C4
:100470000043BDE8F0878B4208D9002E00F0ED80E4
:100480000021C6E900050846BDE8F087B3FA83F10C
:10049000002949D1AB4202D3824200F2F880841A8B
:1004A00065EB030201201746002EE2D0C6E90047A3
:1004B000DFE702B9FFDEB2FA82F3002B40F0908052
:1004C0008A1A4FEA1C471FFA8CFE0121B2FBF7F58E
:1004D00007FB1520220C42EA00420EFB05F0904279
:1004E00008D91CEB020205F1FF3802D2904200F25B
:1004F000CB804546121AA4B2B2FBF7F007FB1022DC
:1005000044EA02440EFB00FEA64508D91CEB040495
:1005100000F1FF3202D2A64500F2BB801046A4EBE8
:100520000E0440EA05409FE7C1F120078B4022FA04
:1005300007FC4CEA030C05FA01F420FA07F3FD402E
:100540004FEA1C492343B5FBF9F81FFA8CFE09FB5F
:1005500018551C0C44EA054408FB0EF5A54202FAA6
:1005600001F200FA01F00BD91CEB040408F1FF3A88
:1005700080F08880A54240F28580A8F1020864449A
:10058000641B9DB2B4FBF9F309FB134445EA044430
:1005900003FB0EFEA64508D91CEB040403F1FF354E
:1005A0006CD2A6456AD9023B644443EA0843A3FBE4
:1005B0000295A4EB0E04AC42C846AE4656D353D0C7
:1005C00056B1B0EB080264EB0E0404FA07F7CA4018
:1005D000CC401743C6E9007418460021BDE8F087F7
:1005E000C3F1200102FA03FC20FA01F225FA01F11D
:1005F0009D402A434FEA1C471FFA8CFEB1FBF7F0DF
:1006000007FB1015110C41EA054100FB0EF58D4268
:1006100004FA03F408D91CEB010100F1FF382FD2D2
:100620008D422DD902386144491B92B2B1FBF7F5D6
:1006300007FB151142EA014205FB0EF1914208D970
:100640001CEB020205F1FF3816D2914214D9023D8B
:100650006244521A45EA004138E73146304608E71D
:100660003946E6E61046FBE64845A9D2B9EB020852
:1006700065EB0C0E013BA3E74546EAE72B4694E702
:100680004046D1E7D0467BE7023D624432E7084668
:100690000AE76444023842E7704700BF80B400AF05
:1006A000094BD3F88830084A43F47003C2F8883005
:1006B000054B1B69044A43F01003136100BFBD469C
:1006C0005DF8047B704700BF00ED00E080B487B0A8
:1006D00000AF284BD3F8E030264A43F00203C2F8BB
:1006E000E030244BD3F8E03003F002037B617B69F8
:1006F000204BD3F8E0301F4A43F00103C2F8E0304A
:100700001C4BD3F8E03003F001033B613B69194B0C
:10071000D3F8E030174A43F00403C2F8E030154B39
:10072000D3F8E03003F00403FB60FB68114BD3F80F
:10073000E030104A43F48073C2F8E0300D4BD3F838
:10074000E03003F48073BB60BB680A4BD3F8E03041
:10075000084A43F08003C2F8E030064BD3F8E0309B
:1007600003F080037B607B6800BF1C37BD465DF8EB
:10077000047B70470044025880B586B002AFF86031
:10078000B9607A60FB689B6AB3F1FF3F01D1094B06
:100790000CE0FB68596AFB689A6A012301937B6845
:1007A0000093BB68F8680AF099F9034618461037B9
:1007B000BD4680BD29F8FFFF80B584B002AF0BF0C5
:1007C00041FA002101200BF03FFB0346002B01D032
:1007D00000F084F900237B6000230093084B4FF066
:1007E000FF32084908480BF0C5FB78607B68002B96
:1007F00001DA00F073F900BF0837BD4680BD00BFC5
:100800000D081008B8DE1008B001001080B485B0E3
:1008100000AFF860B9607A603B60074ABB681B684C
:100820001360064B01221A60002318461437BD4698
:100830005DF8047B704700BFAC010010A8010010F8
:1008400080B584B000AF78600023FB603B1D0422BC
:1008500019460648FFF790FFF860FB68002B01DAA5
:1008600000F03CF900BF1037BD4680BDB00100105C
:1008700080B500AF1B4B1B78022B23D1002000F06A
:10088000F9F9194B1B68002B01D10BF091FB164BAA
:100890001B68002B02D0144B00221A6000F0E2FC0F
:1008A0000346124A1360114B1A68114B1B689A4297
:1008B00008D040220F4910480BF005FE0B4B1B6877
:1008C0000B4A1360074B1B78032B08D1002000F064
:1008D000EFF9044B00221A7007480BF074FD00BFBB
:1008E00080BD00BF40070010A8010010A401001047
:1008F000A0010010600100106803001080B582B0F4
:1009000000AF7860032000F0B5F900F007F803208D
:1009100000F0CEF900BF0837BD4680BD90B587B066
:1009200002AF204BBB6020480BF0B1FD03469B0893
:10093000FB812DE0BB681B783B71BB680133BB605A
:10094000BB681B787B71BB680133BB60BB681B78DD
:10095000BB71BB680133BB60BB681B78FB71BB68B4
:100960000133BB603B79002B12D07868FFF768FF3A
:10097000FB89C3F110013B7918467B791C46BB7992
:10098000FA79019200932346024608480CF0AAFB2C
:10099000FB895A1EFA81002BCCD100BF00BF14374F
:1009A000BD4690BD6001001068030010CCDE100849
:1009B00080B582B000AF234BD3F8E030214A43F03A
:1009C0000073C2F8E0301F4BD3F8E03003F000733F
:1009D0007B607B68012002F0A5FC02F049FD01224A
:1009E0000221002002F0CAFC174B1B681B0903F010
:1009F0000F03072B08D1154BD3F80431134A43F0EA
:100A00000103C2F8043107E0104BD3F814310F4A48
:100A100043F00103C2F8143100F07CFBFFF7CCFE79
:100A2000FFF754FE00F062F800F082FA0BF0E8FAEB
:100A300000F00EF800F038F80BF008FBFFF718FF95
:100A4000FAE700BF0044025800ED00E000640258DD
:100A500080B500AF002000F0C9F8012000F0C6F812
:100A6000022000F0C3F8032000F0C0F8002000F0DE
:100A700001F9012000F0FEF8022000F0FBF803204D
:100A800000F0F8F84FF4967000F0F8FB002000F04A
:100A90000FF9012000F00CF9022000F009F9032001
:100AA00000F006F900BF80BD80B500AF0A200CF051
:100AB0002BFB07480CF084FB06480CF081FB064832
:100AC0000CF07EFB0A200CF01FFB00BF80BD00BFB6
:100AD000E8DE100810DF100838DF100880B500AF1E
:100AE00072B600BF022000F0C5F8FEE780B58AB0FC
:100AF00000AF3B462822002118460CF041FC204B59
:100B0000204A1A601E4B00225A601D4B7F229A60B9
:100B10001B4BFF22DA601A4B00221A61184B00228D
:100B20009A61174B0022DA61154B00225A61144872
:100B300004F01CFD0346002B01D0FFF7CFFF01237B
:100B40003B600123BB600023FB6000233B6100236B
:100B50007B610023BB610023FB6100233B62802398
:100B60007B623B461946064804F018FE0346002BFC
:100B700001D0FFF7B3FF00BF2837BD4680BD00BFDF
:100B8000F00100100040005880B5B4B000AF7860AC
:100B900007F10803C822002118460CF0F1FB7B681E
:100BA0001B68104A934219D14FF480024FF00003A2
:100BB000C7E902234FF40073C7F8C03007F10803F8
:100BC000184602F067FE0346002B01D0FFF786FFB0
:100BD000054B1B6F044A43F40043136700BFD03733
:100BE000BD4680BD004000580044025880B58AB020
:100BF00000AF0346FB7100237B621B4BD3F8E03050
:100C0000194A43F48073C2F8E030174BD3F8E03050
:100C100003F48073FB60FB68FB79144A52F82330BD
:100C20003B6101237B610123BB610323FB61FB79F2
:100C30000F4A52F8233007F110021146184600F00F
:100C400065FCFB790A4A52F82300FB79074A52F8FF
:100C500023309BB20122194600F008FE7B6A184639
:100C60002837BD4680BD00BF0044025800E7100889
:100C70000800001080B584B000AF0346FB7100236C
:100C8000FB60FB79084A52F82300FB79074A52F8C7
:100C900023309BB20022194600F0E8FDFB6818469D
:100CA0001037BD4680BD00BF0800001000E71008E7
:100CB00080B584B000AF0346FB710023FB60FB7975
:100CC000084A52F82300FB79074A52F823309BB2B6
:100CD0000122194600F0CAFDFB6818461037BD46D0
:100CE00080BD00BF0800001000E7100880B582B08A
:100CF00000AF0D4BD3F8F4300B4A43F00203C2F8B7
:100D0000F430094BD3F8F43003F002037B607B68C6
:100D1000002206217E2000F0B0FB7E2000F0C7FB01
:100D200000BF0837BD4680BD0044025880B500AF03
:100D300002F094FDFEE780B400AFFEE780B400AFA0
:100D4000FEE780B400AFFEE780B400AFFEE780B4FA
:100D500000AF00BFBD465DF8047B704780B400AFB4
:100D600000BFBD465DF8047B704780B400AF00BF94
:100D7000BD465DF8047B704780B500AF00F05EFAB9
:100D800000BF80BD80B500AF024800F0F3FF00BF98
:100D900080BD00BF4407001080B500AF02F0D4FA58
:100DA00000BF80BD80B400AF01231846BD465DF88A
:100DB000047B704780B582B000AF786039600CF07A
:100DC00063FB034616221A604FF0FF3318460837BC
:100DD000BD4680BD80B582B000AF78604FF0FF3176
:100DE0007868FFF7E7FFFEE780B586B000AFF860F0
:100DF000B9607A6000237B610AE0AFF300800146AE
:100E0000BB685A1CBA60CAB21A707B6901337B6135
:100E10007A697B689A42F0DB7B6818461837BD46D2
:100E200080BD80B586B000AFF860B9607A600023FD
:100E30007B6109E0BB685A1CBA601B78184600F059
:100E40002DF97B6901337B617A697B689A42F1DB1A
:100E50007B6818461837BD4680BD80B483B000AFAC
:100E600078604FF0FF3318460C37BD465DF8047BC1
:100E7000704780B483B000AF786039603B684FF44E
:100E800000525A60002318460C37BD465DF8047BBB
:100E9000704780B483B000AF7860012318460C37E8
:100EA000BD465DF8047B704780B485B000AFF86044
:100EB000B9607A60002318461437BD465DF8047B9C
:100EC0007047000080B586B000AF7860144A154BBB
:100ED000D31A7B617B693B61134B1B68002B02D1EA
:100EE000114B124A1A60104B1A687B6813443A6916
:100EF0009A4207D20CF0C8FA03460C221A604FF04F
:100F0000FF3309E0084B1B68FB60074B1A687B68DE
:100F10001344054A1360FB6818461837BD4680BD68
:100F2000008004100008000014020010980B00104C
:100F300080B500AF224B234A1A60214B4FF4E132B7
:100F40005A601F4B00229A601D4B0022DA601C4B36
:100F500000221A611A4B0C225A61194B00229A6125
:100F6000174B0022DA61164B00221A62144B002242
:100F70005A62134B00229A62114804F0EEFC0346B9
:100F8000002B01D0FFF7AAFD00210D4805F07EFDE2
:100F90000346002B01D0FFF7A1FD0021084805F012
:100FA000B3FD0346002B01D0FFF798FD044805F080
:100FB00034FD0346002B01D0FFF790FD00BF80BD3C
:100FC000180200100010014080B5BCB000AF78607E
:100FD00007F1DC0300221A605A609A60DA601A6135
:100FE00007F11003C822002118460CF0C9F97B68EC
:100FF0001B68274A934246D14FF001024FF000038D
:10100000C7E904230023C7F8903007F110031846FE
:1010100002F040FC0346002B01D0FFF75FFD1D4BA3
:10102000D3F8F0301B4A43F01003C2F8F030194BEC
:10103000D3F8F03003F01003FB60FB68154BD3F8D6
:10104000E030144A43F00103C2F8E030114BD3F80A
:10105000E03003F00103BB60BB684FF4C063C7F826
:10106000DC300223C7F8E0300023C7F8E430002367
:10107000C7F8E8300723C7F8EC3007F1DC0319465E
:10108000054800F043FA00BFF037BD4680BD00BF01
:1010900000100140004402580000025880B582B0A0
:1010A00000AF7860391D4FF47A730122034804F0D1
:1010B000A4FC7B6818460837BD4680BD18020010A6
:1010C000DFF834D0FFF7EAFA0C480D490D4A002347
:1010D00002E0D458C4500433C4188C42F9D30A4AED
:1010E0000A4C002301E013600432A242FBD30CF04F
:1010F000D1F9FFF75DFC704700800410000000107C
:10110000440100100CE8100844010010940B00107A
:10111000FEE7000080B582B000AF284BD3F8D8308E
:10112000264A43F48043C2F8D830244BD3F8D83051
:1011300003F480433B603B68214B1B6823F47F230F
:1011400023F470631E4A43F4014313601C4B1B6875
:101150001B4A43F001031360032000F083F902F0FF
:10116000A5F90246154B9B691B0A03F00F031549AD
:10117000CB5C03F01F0322FA03F37B600F4B9B69E8
:1011800003F00F030F4AD35C03F01F037A6822FABF
:1011900003F30D4A13600C4B1B680C4A13600020CC
:1011A00000F016F80346002B01D0012302E0FFF700
:1011B0009DFD002318460837BD4680BD00440258F7
:1011C00000440240F0E61008040000100000001087
:1011D00080B582B000AF7860154B1B78002B01D131
:1011E000012321E0134B1A68114B1B7819464FF469
:1011F0007A73B3FBF1F3B2FBF3F3184600F065F931
:101200000346002B01D001230EE07B680F2B0AD888
:10121000002279684FF0FF3000F02FF9064A7B6812
:101220001360002300E0012318460837BD4680BD47
:101230001C000010000000101800001080B400AF67
:10124000064B1B781A46064B1B681344044A13606E
:1012500000BFBD465DF8047B704700BF1C00001056
:10126000AC02001080B400AF034B1B681846BD46AB
:101270005DF8047B704700BFAC02001080B584B0FD
:1012800000AF7860FFF7EEFFB8607B68FB60FB683B
:10129000B3F1FF3F05D00A4B1B781A46FB68134495
:1012A000FB6000BFFFF7DEFF0246BB68D31AFA6897
:1012B0009A42F7D800BF00BF1037BD4680BD00BFBF
:1012C0001C00001080B485B000AF78607B6803F02C
:1012D0000703FB600C4BDB68BB60BA684FF6FF038B
:1012E0001340BB60FB681A02BB68134343F0BF6343
:1012F00043F40033BB60044ABB68D36000BF1437BB
:10130000BD465DF8047B704700ED00E080B400AF9F
:10131000044BDB681B0A03F007031846BD465DF863
:10132000047B704700ED00E080B483B000AF03465B
:10133000FB80B7F90630002B0BDBFB8803F01F02A4
:101340000749B7F906305B09012000FA02F241F8BB
:10135000232000BF0C37BD465DF8047B704700BFFB
:1013600000E100E080B483B000AF03463960FB8049
:10137000B7F90630002B0ADB3B68DAB20C49B7F943
:1013800006301201D2B20B4483F800230AE03B6816
:10139000DAB20849FB8803F00F03043B1201D2B212
:1013A0000B441A7600BF0C37BD465DF8047B7047CE
:1013B00000E100E000ED00E080B489B000AFF8602B
:1013C000B9607A60FB6803F00703FB61FB69C3F156
:1013D0000703042B28BF0423BB61FB690433062BDE
:1013E00002D9FB69033B00E000237B614FF0FF3231
:1013F000BB6902FA03F3DA43BB681A407B699A407F
:101400004FF0FF317B6901FA03F3D9437B680B404E
:10141000134318462437BD465DF8047B704700002F
:1014200080B582B000AF78607B68013BB3F1807F0C
:1014300001D301230FE00A4A7B68013B53600F216F
:101440004FF0FF30FFF78EFF054B00229A60044BF0
:1014500007221A60002318460837BD4680BD00BF2A
:1014600010E000E080B582B000AF78607868FFF7E8
:1014700029FF00BF0837BD4680BD80B586B000AFEC
:101480000346B9607A60FB81FFF740FF78617A68B4
:10149000B9687869FFF790FF0246B7F90E30114638
:1014A0001846FFF75FFF00BF1837BD4680BD80B507
:1014B00082B000AF0346FB80B7F906301846FFF74D
:1014C00033FF00BF0837BD4680BD80B582B000AF96
:1014D00078607868FFF7A4FF034618460837BD46D2
:1014E00080BD000080B400AF074B1B681B0903F0F0
:1014F0000F03072B01D1032300E001231846BD464B
:101500005DF8047B704700BF00ED00E080B489B057
:1015100000AF786039600023FB61894B7B6194E107
:101520003B681A680121FB6901FA03F313403B6130
:101530003B69002B00F086813B685B6803F0030386
:10154000012B05D03B685B6803F00303022B30D10D
:101550007B689B68BB61FB695B00032202FA03F3B3
:10156000DB43BA691340BB613B68DA68FB695B0027
:1015700002FA03F3BA691343BB617B68BA699A60E4
:101580007B685B68BB610122FB6902FA03F3DB4302
:10159000BA691340BB613B685B681B0903F0010239
:1015A000FB6902FA03F3BA691343BB617B68BA694A
:1015B0005A603B685B6803F00303032B17D07B681A
:1015C000DB68BB61FB695B00032202FA03F3DB43C8
:1015D000BA691340BB613B689A68FB695B0002FA19
:1015E00003F3BA691343BB617B68BA69DA603B688D
:1015F0005B6803F00303022B23D1FB69DA087B68E5
:10160000083253F82230BB61FB6903F007039B00EB
:101610000F2202FA03F3DB43BA691340BB613B6854
:101620001A69FB6903F007039B0002FA03F3BA6926
:101630001343BB61FB69DA087B680832B96943F878
:1016400022107B681B68BB61FB695B00032202FA06
:1016500003F3DB43BA691340BB613B685B6803F08B
:101660000302FB695B0002FA03F3BA691343BB612F
:101670007B68BA691A603B685B6803F44033002BEF
:1016800000F0E0802F4BD3F8F4302E4A43F00203F1
:10169000C2F8F4302B4BD3F8F43003F00203FB60B4
:1016A000FB68294AFB699B08023352F82330BB616F
:1016B000FB6903F003039B000F2202FA03F3DB43F1
:1016C000BA691340BB617B68204A934252D07B6861
:1016D0001F4A934231D07B681E4A93422BD07B68CD
:1016E0001D4A934225D07B681C4A93421FD07B68D9
:1016F0001B4A934219D07B681A4A934213D07B68E5
:10170000194A93420DD07B68184A934207D07B68F0
:10171000174A934201D109232DE00A232BE0082325
:1017200029E0072327E0062325E0052323E00423FF
:1017300021E003231FE002231DE001231BE000BF83
:10174000C00000580044025800040058000002582D
:101750000004025800080258000C025800100258F9
:101760000014025800180258001C025800200258A9
:10177000002402580023FA6902F003029200934009
:10178000BA691343BB613849FB699B080233BA69E4
:1017900041F823204FF0B0431B68BB613B69DB433A
:1017A000BA691340BB613B685B6803F48013002B8C
:1017B00003D0BA693B691343BB614FF0B042BB69C8
:1017C00013604FF0B0435B68BB613B69DB43BA69B0
:1017D0001340BB613B685B6803F40013002B03D02C
:1017E000BA693B691343BB614FF0B042BB695360B8
:1017F0007B695B68BB613B69DB43BA691340BB61D2
:101800003B685B6803F40033002B03D0BA693B6983
:101810001343BB617B69BA695A607B691B68BB6112
:101820003B69DB43BA691340BB613B685B6803F407
:101830008033002B03D0BA693B691343BB617B69DA
:10184000BA691A60FB690133FB613B681A68FB697E
:1018500022FA03F3002B7FF463AE00BF00BF2437EE
:10186000BD465DF8047B70470004005880B483B027
:1018700000AF78600B467B8013467B707B78002B33
:1018800003D07A887B689A6103E07B881A047B68BE
:101890009A6100BF0C37BD465DF8047B7047F0B518
:1018A0008FB00AAF78607B68002B01D1012354E030
:1018B0007B681B68FB607B6893F8F932DBB2002B16
:1018C00006D17B68002283F8F82278680AF0FCFED3
:1018D0007B68032283F8F922FB68DB6B03F48073D7
:1018E000002B02D17B680022DA607B681B681846F7
:1018F00005F015FA7B681B683B607E686D4606F153
:1019000010040FCC0FC50FCC0FC594E8030085E879
:101910000300331D0ECB386805F082F97B681B6825
:101920000121184605F00CFA7B681B683B607E6855
:101930006D4606F110040FCC0FC50FCC0FC594E80F
:10194000030085E80300331D0ECB386805F0B4FBB7
:101950007B68012283F8F922002318461437BD461C
:10196000F0BD90B589B004AF7860084611461A46BC
:101970000346FB700B46BB7013467B707B6893F885
:10198000F832012B01D1022376E07B68012283F833
:10199000F822FB787A682C2101FB03F313443D33D2
:1019A00000221A70FB787A682C2101FB03F31344A0
:1019B00038337A781A70FB787A682C2101FB03F3AC
:1019C000134440333A8D1A80FB787A682C2101FB4E
:1019D00003F313443933FA781A70FB787A682C21B0
:1019E00001FB03F313443F3397F824201A70FB786C
:1019F000BA7802F07F02D0B27A682C2101FB03F39F
:101A000013443A3302461A7097F90230002B09DA70
:101A1000FB787A682C2101FB03F313443B3301224A
:101A20001A7008E0FB787A682C2101FB03F3134459
:101A30003B3300221A70FB787A682C2101FB03F3F8
:101A400013443C3397F820201A707B6818687C7820
:101A5000BA78F9783B8D029397F82430019397F880
:101A600020300093234605F0A9FC0346FB737B68F6
:101A7000002283F8F822FB7B18461437BD4690BD40
:101A800080B584B000AF78600B46FB700023FB7319
:101A90007B6893F8F832012B01D102230FE07B68B9
:101AA000012283F8F8227B681B68FA7811461846F1
:101AB00005F0FBFE7B68002283F8F822FB7B1846CA
:101AC0001037BD4680BD000080B582B000AF7860A1
:101AD000084611461A460346FB700B46BB70134678
:101AE0007B70FB787A682C2101FB03F313443B33B2
:101AF000BA781A70FB787A682C2101FB03F313443F
:101B00003F337A781A703B7C002B12D1FB787A68CD
:101B10002C2101FB03F31344423303221A70FB7898
:101B20007A682C2101FB03F313443D333A7F1A708A
:101B300008E0FB787A682C2101FB03F3134442335D
:101B400002221A707B78032B00F2C68001A252F8A1
:101B500023F000BF651B1008C51C1008C91B100826
:101B6000471C10083B7C012B40F0B880BB78002B51
:101B700040F0B4803B8B002B08D1FB787A682C2195
:101B800001FB03F31344553301221A70FB787A6882
:101B90002C2101FB03F3134455331B78002B09D18F
:101BA000FB787A682C2101FB03F3134442330022B3
:101BB0001A7093E0FB787A682C2101FB03F313443D
:101BC000423302221A7089E0BB78002B1DD1FB78CA
:101BD0007A682C2101FB03F3134455331B78002B47
:101BE00009D1FB787A682C2101FB03F313444233BB
:101BF00000221A7073E0FB787A682C2101FB03F352
:101C00001344423302221A7069E0FB787A682C216F
:101C100001FB03F3134454331B78002B09D1FB78E9
:101C20007A682C2101FB03F31344423300221A701B
:101C300055E0FB787A682C2101FB03F3134442330F
:101C400002221A704BE0BB78002B1DD1FB787A681A
:101C50002C2101FB03F3134455331B78002B09D1CE
:101C6000FB787A682C2101FB03F3134442330022F2
:101C70001A7034E0FB787A682C2101FB03F31344DB
:101C8000423302221A702AE0FB787A682C2101FB89
:101C900003F3134454331B78002B09D1FB787A6883
:101CA0002C2101FB03F31344423300221A7016E087
:101CB000FB787A682C2101FB03F3134442330222A0
:101CC0001A700CE0FB787A682C2101FB03F31344B3
:101CD000423300221A7002E000BF00E000BFFB7830
:101CE0007A682C2101FB03F3134444337A691A60A8
:101CF000FB783A8B79682C2000FB03F30B444C33C0
:101D00001A60FB787A682C2101FB03F313446033DB
:101D100000221A70FB787A682C2101FB03F313442C
:101D2000503300221A60FB787A682C2101FB03F300
:101D300013443933FA781A70FB787A682C2101FB46
:101D400003F31344613300221A707B681868FB7830
:101D50002C2202FB03F338337A68D1187B68DB68E6
:101D6000DBB21A4605F04EFC034618460837BD465E
:101D700080BD00BF80B586B000AF78607B681B680F
:101D80003B613B69FB607B681B68184605F052F9B4
:101D90000346012B40F0FA807B681B68184605F06B
:101DA00015F90346002B00F0F0807B681B6818468D
:101DB00005F00CF9034603F40013B3F5001F04D13A
:101DC0007B681B684FF400125A617B681B681846D9
:101DD00005F0FCF8034603F48013B3F5801F04D12B
:101DE0007B681B684FF480125A617B681B68184639
:101DF00005F0ECF8034603F08063B3F1806F04D183
:101E00007B681B684FF080625A617B681B681846CC
:101E100005F0DCF8034603F00203022B03D17B68D4
:101E20001B6802225A617B681B68184605F0CEF8D1
:101E3000034603F00053B3F1005F20D17B681B68B9
:101E40004FF000525A61FB6803F588631B6803F08A
:101E50000103002B13D11021386904F0BDFF38694C
:101E600004F0EEFF7B689B69022B05D17B681B6841
:101E70000121184605F0DAF978680AF079FD7B68E7
:101E80001B68184605F0A2F8034603F08073B3F10F
:101E9000807F02D1786801F0A3F97B681B6818463F
:101EA00005F094F8034603F00803082B06D1786880
:101EB0000AF042FD7B681B6808225A617B681B6838
:101EC000184605F083F8034603F01003102B01D1E8
:101ED000012300E00023002B12D07B681B689A6965
:101EE0007B681B6822F010029A61786801F0A6F8FE
:101EF0007B681B689A697B681B6842F010029A61D4
:101F00007B681B68184605F061F8034603F0007310
:101F1000B3F1007F3AD17B681B68184605F0B4FC2A
:101F2000B86000237B6125E07B6903F00F03BA688A
:101F300022FA03F303F00103002B18D07B695A0146
:101F4000FB68134403F5A0631B6803F40043B3F577
:101F5000004F06D17B69DBB21946786800F0ABF818
:101F600005E07B69DBB21946786800F0B5FC7B6957
:101F700001337B617B689B687A699A42D4D37B6822
:101F80001B684FF000725A6100E000BF1837BD4671
:101F900080BD80B582B000AF78607B6893F8F8327E
:101FA000012B01D1022313E07B68012283F8F82280
:101FB0007B681B680121184605F09FF97B681B6848
:101FC000184604F09BFE7B68002283F8F822002369
:101FD00018460837BD4680BD80B582B000AF786036
:101FE0007B6893F8F832012B01D102230DE07B6866
:101FF000012283F8F8227B681B68184605F08EFDE5
:102000007B68002283F8F822002318460837BD4673
:1020100080BD80B582B000AF78607B681B681846D1
:1020200005F041F9034618460837BD4680BD80B427
:1020300083B000AF78600B46FB70FB787A682C2188
:1020400001FB03F3134460331B7818460C37BD467D
:102050005DF8047B704780B483B000AF78600B46B6
:10206000FB70FB787A682C2101FB03F31344503397
:102070001B6818460C37BD465DF8047B704780B579
:1020800082B000AF78607B681B68184605F085F960
:10209000034618460837BD4680BD80B582B000AF04
:1020A00078607B681B68184605F060F9034618469F
:1020B0000837BD4680BD80B586B000AF78600B465E
:1020C000FB707B681B687B617B693B617B681B687D
:1020D000FA781146184604F08CFF034603F0040317
:1020E000042B19D1FB785A013B69134403F5A06313
:1020F0001A4604239360FB787A682C2101FB03F3D2
:102100001344613307221A707B681B68FA78114602
:10211000184605F0CAFB9AE07B681B68FA781146FE
:10212000184604F066FF034603F48073B3F5807F1E
:102130001AD1FB785A013B69134403F5A0631A4690
:102140004FF480739360FB787A682C2101FB03F3D2
:102150001344613308221A707B681B68FA781146B1
:10216000184605F0A2FB72E07B681B68FA781146FE
:10217000184604F03EFF034603F00803082B19D16C
:10218000FB785A013B69134403F5A0631A46082300
:102190009360FB787A682C2101FB03F313446133CD
:1021A00006221A707B681B68FA781146184605F0FB
:1021B0007CFB4CE07B681B68FA781146184604F0FB
:1021C00018FF034603F48063B3F5806F1AD1FB78E0
:1021D0005A013B69134403F5A0631A464FF4806328
:1021E0009360FB787A682C2101FB03F3134461337D
:1021F00009221A707B681B68FA781146184605F0A8
:1022000054FB24E07B681B68FA781146184604F0FA
:10221000F0FE034603F08003802B18D1FB785A01AF
:102220003B69134403F5A0631A4680239360FB784F
:102230007A682C2101FB03F31344613307221A70DF
:102240007B681B68FA781146184605F02EFB7B6800
:102250001B68FA781146184604F0CBFE034603F4D7
:102260000073B3F5007F11D17B681B68FA781146C3
:10227000184605F01AFBFB785A013B69134403F535
:10228000A0631A464FF40073936022E37B681B68D7
:10229000FA781146184604F0ACFE034603F0010339
:1022A000012B40F0F080FB785A013B69134403F5A1
:1022B000A0631A46202393607B68DB68002B19D04B
:1022C000FB787A682C2101FB03F313444833196827
:1022D000FB785A013B69134403F5A0631B69C3F300
:1022E0001202FB788A1A79682C2000FB03F30B4456
:1022F00050331A60FB787A682C2101FB03F31344F6
:10230000613301221A70FB787A682C2101FB03F3F8
:1023100013445C3300221A60FB785A013B69134472
:1023200003F5A0631A4601239360FB787A682C2199
:1023300001FB03F313443F331B78002B09D0FB78D8
:102340007A682C2101FB03F313443F331B78022BE3
:1023500010D17B681B68FA781146184605F0A5FA7B
:10236000FB785A013B69134403F5A0631A46102316
:10237000936039E0FB787A682C2101FB03F3134466
:102380003F331B78032B09D0FB787A682C2101FBA3
:1023900003F313443F331B78012B25D1FB785A01FB
:1023A0003B69134403F5A0631B68FA7851013A694D
:1023B0000A4402F5A06243F000531360FB787A6888
:1023C0002C2101FB03F31344603301221A70FB78C4
:1023D0007A682C2101FB03F3134460331A78FB78ED
:1023E000194678680AF0D2FA7B68DB68012B35D190
:1023F000FB787A682C2101FB03F3134450331B68EC
:10240000FA7879682C2000FB02F20A4440321288E4
:102410001344013BFA7879682C2000FB02F20A444D
:1024200040321288B3FBF2F303F00103002B00F0FB
:102430005082FB787A682C2101FB03F31344543358
:102440001A78FB7882F00102D0B27A682C2101FB65
:1024500003F31344543302461A703AE2FB787A6865
:102460002C2101FB03F3134454331A78FB7882F0D8
:102470000102D0B27A682C2101FB03F313445433D8
:1024800002461A7025E27B681B68FA7811461846E6
:1024900004F0AFFD034603F02003202B09D1FB78A5
:1024A0005A013B69134403F5A0631A462023936045
:1024B0000FE27B681B68FA781146184604F099FD14
:1024C000034603F00203022B40F06881FB785A01B7
:1024D0003B69134403F5A0631A4602239360FB781B
:1024E0007A682C2101FB03F3134461331B78012B21
:1024F00012D1FB787A682C2101FB03F3134461337A
:1025000002221A70FB787A682C2101FB03F3134432
:10251000603301221A7033E1FB787A682C2101FBC9
:1025200003F3134461331B78062B12D1FB787A68CE
:102530002C2101FB03F31344613302221A70FB7850
:102540007A682C2101FB03F31344603305221A70CF
:1025500016E1FB787A682C2101FB03F31344613305
:102560001B78072B09D0FB787A682C2101FB03F339
:10257000134461331B78092B58D1FB787A682C21DE
:1025800001FB03F31344613302221A70FB7879686C
:102590002C2203FB02F20A445C3212680132796891
:1025A0002C2000FB03F30B445C331A60FB787A6841
:1025B0002C2101FB03F313445C331B68022B12D95B
:1025C000FB787A682C2101FB03F313445C3300226F
:1025D0001A60FB787A682C2101FB03F31344603303
:1025E00004221A70CCE0FB787A682C2101FB03F3FB
:1025F0001344603302221A70FB785A013B6913447A
:1026000003F5A0631B68FB60FB6823F08043FB605D
:10261000FB6843F00043FB60FB785A013B691344BD
:1026200003F5A0631A46FB681360A9E0FB787A689B
:102630002C2101FB03F3134461331B78052B09D1D3
:10264000FB787A682C2101FB03F3134461330222E7
:102650001A7095E0FB787A682C2101FB03F3134490
:1026600061331B78032B09D1FB787A682C2101FB9D
:1026700003F31344613302221A7081E0FB787A6815
:102680002C2101FB03F3134461331B78042B3FD14E
:10269000FB787A682C2101FB03F313446133022297
:1026A0001A70FB787A682C2101FB03F31344603322
:1026B00002221A70FB787A682C2101FB03F3134481
:1026C0003F331B78002B09D0FB787A682C2101FB63
:1026D00003F313443F331B78022B51D1FB785A018B
:1026E0003B69134403F5A0631B68FB60FB6823F0A0
:1026F0008043FB60FB6843F00043FB60FB785A01BA
:102700003B69134403F5A0631A46FB68136037E086
:10271000FB787A682C2101FB03F3134461331B78A7
:10272000082B22D1FB787A682C2101FB03F3134498
:10273000613302221A70FB7879682C2203FB02F2C3
:102740000A445C321268013279682C2000FB03F3E2
:102750000B445C331A60FB787A682C2101FB03F38D
:102760001344603304221A700AE0FB787A682C2143
:1027700001FB03F3134461331B78022B00F0A880A4
:10278000FB787A682C2101FB03F3134460331A7839
:10279000FB78194678680AF0F9F89AE07B681B68BC
:1027A000FA781146184604F024FC034603F040036F
:1027B000402B22D1FB785A013B69134403F5A063F7
:1027C0001A4640239360FB787A682C2101FB03F3BF
:1027D0001344613305221A70FB787A682C2101FBBF
:1027E00003F313445C3300221A607B681B68FA7899
:1027F0001146184605F059F86BE07B681B68FA78BB
:102800001146184604F0F5FB034603F01003102BA5
:102810005FD1FB787A682C2101FB03F313443F332B
:102820001B78032B19D1FB787A682C2101FB03F369
:1028300013445C3300221A60FB787A682C2101FB78
:1028400003F31344613304221A707B681B68FA781F
:102850001146184605F029F830E0FB787A682C21FB
:1028600001FB03F313443F331B78002B09D0FB78A3
:102870007A682C2101FB03F313443F331B78022BAE
:102880001CD1FB787A682C2101FB03F313445C33E1
:1028900000221A607B68DB68002B0FD1FB787A6816
:1028A0002C2101FB03F31344613304221A707B686B
:1028B0001B68FA781146184604F0F7FFFB785A01B6
:1028C0003B69134403F5A0631A461023936000E0AC
:1028D00000BF1837BD4680BD80B586B000AF7860B8
:1028E0000B46FB707B681B687B617B693B617B6887
:1028F0001B68FA781146184604F07BFB034603F088
:102900000403042B19D1FB785A013B69134403F5E6
:10291000A0631A4604239360FB787A682C2101FB9C
:1029200003F31344613307221A707B681B68FA783B
:102930001146184604F0B9FF7DE37B681B68FA78FE
:102940001146184604F055FB034603F02003202BE4
:1029500036D1FB785A013B69134403F5A0631A464C
:1029600020239360FB787A682C2101FB03F3134446
:102970003D331B78012B40F05E83FB787A682C2175
:1029800001FB03F313443D3300221A70FB787A688D
:102990002C2101FB03F31344603302221A70FB78ED
:1029A0007A682C2101FB03F31344613303221A706C
:1029B0007B681B68FA781146184604F076FF3AE304
:1029C0007B681B68FA781146184604F012FB034630
:1029D00003F40073B3F5007F11D1FB785A013B6912
:1029E000134403F5A0631A464FF4007393607B68A9
:1029F0001B68FA781146184604F057FF1BE37B6802
:102A00001B68FA781146184604F0F3FA034603F0FF
:102A10000103012B40D1FB787A682C2101FB03F3E1
:102A200013445C3300221A607B681B68FA781146F5
:102A3000184604F0DEFA034603F04003402B11D1A0
:102A4000FB787A682C2101FB03F313443D33012208
:102A50001A70FB785A013B69134403F5A0631A46C8
:102A600040239360FB785A013B69134403F5A0634C
:102A70001A4601239360FB787A682C2101FB03F34B
:102A80001344613301221A707B681B68FA7811467F
:102A9000184604F00AFFCEE27B681B68FA781146FC
:102AA000184604F0A6FA034603F04003402B2BD14E
:102AB000FB787A682C2101FB03F313446133052270
:102AC0001A70FB787A682C2101FB03F313443D3321
:102AD00001221A70FB787A682C2101FB03F313445E
:102AE0005C3300221A607B681B68FA78114618462E
:102AF00004F0DBFEFB785A013B69134403F5A06345
:102B00001A464023936096E27B681B68FA78114668
:102B1000184604F06EFA034603F00803082B19D197
:102B2000FB785A013B69134403F5A0631A46082356
:102B30009360FB787A682C2101FB03F31344613323
:102B400006221A707B681B68FA781146184604F052
:102B5000ACFE70E27B681B68FA781146184604F0F8
:102B600048FA034603F01003102B3FD1FB787A6834
:102B70002C2101FB03F313445C3300221A60FB7821
:102B80007A682C2101FB03F31344613304221A7089
:102B9000FB787A682C2101FB03F313443D331B7847
:102BA000002B12D1FB787A682C2101FB03F313442C
:102BB0003C331B78002B08D1FB787A682C2101FB71
:102BC00003F313443D3301221A707B681B68FA78C3
:102BD0001146184604F069FEFB785A013B6913441C
:102BE00003F5A0631A461023936024E27B681B68F8
:102BF000FA781146184604F0FCF9034603F0800306
:102C0000802B61D17B68DB68002B10D1FB787A6860
:102C10002C2101FB03F31344613307221A707B68F4
:102C20001B68FA781146184604F03FFE42E0FB7834
:102C300079682C2203FB02F20A445C3212680132EA
:102C400079682C2000FB03F30B445C331A60FB789B
:102C50007A682C2101FB03F313445C331B68022BBD
:102C60001FD9FB787A682C2101FB03F313445C33F2
:102C700000221A60FB787A682C2101FB03F31344CD
:102C8000603304221A70FB787A682C2101FB03F36D
:102C9000134460331A78FB781946786809F076FE99
:102CA00008E0FB787A682C2101FB03F313446033BE
:102CB00002221A70FB785A013B69134403F5A063A2
:102CC0001A4680239360B6E17B681B68FA78114648
:102CD000184604F08EF9034603F48063B3F5806F61
:102CE0001AD1FB787A682C2101FB03F3134461337A
:102CF00009221A707B681B68FA781146184604F09E
:102D0000D4FDFB785A013B69134403F5A0631A46CE
:102D10004FF4806393608EE17B681B68FA781146FC
:102D2000184604F066F9034603F00203022B40F054
:102D30008281FB785A013B69134403F5A0631A466C
:102D400002239360FB787A682C2101FB03F3134480
:102D500061331B78012B40F08780FB787A682C2147
:102D600001FB03F31344613302221A70FB787A6883
:102D70002C2101FB03F31344603301221A70FB780A
:102D80007A682C2101FB03F313443F331B78022B99
:102D90000AD0FB787A682C2101FB03F313443F33FC
:102DA0001B78032B40F038817B68DB68002B13D144
:102DB000FB787A682C2101FB03F3134455331A780E
:102DC000FB7882F00102D0B27A682C2101FB03F378
:102DD0001344553302461A707B68DB68012B40F0C0
:102DE0001B81FB787A682C2101FB03F313444C33DD
:102DF0001B68002B00F01081FB787A682C2101FB06
:102E000003F313444C331B68FA7879682C2000FBD9
:102E100002F20A44403212881344013BFA7879687E
:102E20002C2000FB02F20A4440321288B3FBF2F37A
:102E3000BB60BB6803F00103002B00F0ED80FB7862
:102E40007A682C2101FB03F3134455331A78FB787D
:102E500082F00102D0B27A682C2101FB03F3134403
:102E6000553302461A70D7E0FB787A682C2101FBB3
:102E700003F3134461331B78032B09D1FB787A6881
:102E80002C2101FB03F31344613302221A70C3E0C7
:102E9000FB787A682C2101FB03F3134461331B7820
:102EA000042B12D1FB787A682C2101FB03F3134425
:102EB000613302221A70FB787A682C2101FB03F33C
:102EC0001344603302221A70A6E0FB787A682C2142
:102ED00001FB03F3134461331B78052B12D1FB78FC
:102EE0007A682C2101FB03F31344613302221A7028
:102EF000FB787A682C2101FB03F313446033022230
:102F00001A7089E0FB787A682C2101FB03F31344E3
:102F100061331B78062B12D1FB787A682C2101FBD8
:102F200003F31344613302221A70FB787A682C2170
:102F300001FB03F31344603305221A706CE0FB7845
:102F40007A682C2101FB03F3134461331B78072BB0
:102F500009D0FB787A682C2101FB03F31344613319
:102F60001B78092B66D1FB787A682C2101FB03F3CF
:102F70001344613302221A70FB7879682C2203FB18
:102F800002F20A445C321268013279682C2000FB9C
:102F900003F30B445C331A60FB787A682C2101FB45
:102FA00003F313445C331B68022B12D9FB787A6855
:102FB0002C2101FB03F313445C3300221A60FB78DD
:102FC0007A682C2101FB03F31344603304221A7046
:102FD00021E0FB787A682C2101FB03F31344603372
:102FE00002221A70FB785A013B69134403F5A0636F
:102FF0001B68FB60FB6823F08043FB60FB6843F0C9
:103000000043FB60FB785A013B69134403F5A0635E
:103010001A46FB68136000BFFB787A682C2101FB1D
:1030200003F3134460331A78FB781946786809F083
:10303000ADFC00E000BF1837BD4680BD80B58AB04A
:1030400000AF78607B681B687B627B6A3B627B6851
:103050001B681B6AFB61FB6903F00F03BB61FB6923
:103060005B0C03F00F037B61FB691B09C3F30A03CD
:103070003B617B69022B04D07B69052B00F0A980A2
:10308000AAE03B69002B00F0A6807A68BB692C217E
:1030900001FB03F3134444331B68002B00F09B80B7
:1030A0007A68BB692C2101FB03F3134450331A687F
:1030B0003B691A447968BB692C2000FB03F30B447D
:1030C0004C331B689A427AD87B6818687A68BB6967
:1030D0002C2101FB03F3134444331B683A6992B279
:1030E000194603F01BFF7A68BB692C2101FB03F32F
:1030F000134444331A683B691A447968BB692C202D
:1031000000FB03F30B4444331A607A68BB692C213B
:1031100001FB03F3134450331A683B691A4479687E
:10312000BB692C2000FB03F30B4450331A60BB69CE
:103130005A013B6A134403F5A0631B69DB0CC3F31C
:103140000903FB607A68BB692C2101FB03F313447C
:1031500040331B881A463B6993423CD1FB68002BE5
:1031600039D0BB695A013B6A134403F5A0631B685D
:10317000BB60BB6823F08043BB60BB6843F0004387
:10318000BB60BB695A013B6A134403F5A0631A464E
:10319000BB6813607A68BB692C2101FB03F31344FD
:1031A00054331B7883F00103D8B27A68BB692C21B1
:1031B00001FB03F31344543302461A700BE07A68A0
:1031C000BB692C2101FB03F31344603304221A7002
:1031D00001E000BF00E000BF00BF2837BD4680BD52
:1031E00080B586B000AF78607B681B687B617B69C7
:1031F0003B613B6903F588631B68FB603B6903F532
:1032000088631B68BB60BB6823F02E03BB60FB6850
:1032100003F00203022B0BD1FB6803F00103012B27
:1032200002D1786809F096FBBB6843F00203BB60EB
:10323000FB6803F00803082B32D1BB6843F0080396
:10324000BB60FB6803F00403042B26D17B689B69F9
:10325000022B13D1FB6803F4C023B3F5802F06D1F2
:103260007B681B680221184603F0E0FF11E07B68D1
:103270001B680121184603F0D9FF0AE07B681B692F
:10328000012B06D13B6903F580631A464EF6602395
:103290005360786809F088FB02E0786809F092FBD7
:1032A000FB6803F02003202B03D1BB6843F020030D
:1032B000BB603B6903F588631A46BB68136000BFB7
:1032C0001837BD4680BD000080B483B000AF786081
:1032D000084A7B68203352F82330074A934201D1D1
:1032E000002300E0012318460C37BD465DF8047B3F
:1032F000704700BF006402580001008080B483B0B2
:1033000000AF7860396006493B6843F480727B689F
:1033100041F8232000BF0C37BD465DF8047B7047A1
:103320000064025880B483B000AF7860054B1A681F
:1033300004497B6813430B6000BF0C37BD465DF842
:10334000047B70471065025880B582B000AF0A4B0D
:10335000DB687B60084B1A687B68DB4306491340D7
:103360000B60054A7B685360786808F05BFC00BF1F
:103370000837BD4680BD00BF1065025880B584B0D7
:1033800000AFF8600B467A60FB72374B1B6823F086
:1033900001023549FB6813430B607B68002B23D186
:1033A000FEF7A0F80346032B58D12F4B1B692E4A7A
:1033B00023F0010313612D4B1B692C4A43F00403D6
:1033C0001361BFF34F8F00BFBFF36F8F00BFFB7A56
:1033D000012B01D130BF00E020BF244B1B69234AE1
:1033E00023F0040313613CE07B68012B23D1FEF73B
:1033F00079F80346012B33D11B4B5B691A4A23F042
:1034000002035361194B1B69184A43F0040313610B
:10341000BFF34F8F00BFBFF36F8F00BFFB7A012B4D
:1034200001D130BF00E020BF104B1B690F4A23F0D1
:103430000403136115E0FEF755F80346032B06D18C
:10344000094B1B69084A23F00403136109E0064B8A
:103450005B69054A23F00403536102E000BF00E00A
:1034600000BF1037BD4680BD0048025800ED00E0A7
:1034700080B500AFFEF736F80346032B01D120BF1D
:1034800001E040BF20BF00BF80BD000080B400AF9E
:10349000054BDB68044A43F08073D36000BFBD4630
:1034A0005DF8047B704700BF0048025880B489B0C3
:1034B00000AFB34B1B6903F03803182B00F25581A2
:1034C00001A252F823F000BF2D3510086B37100809
:1034D0006B3710086B3710086B3710086B37100804
:1034E0006B3710086B371008533510086B3710080E
:1034F0006B3710086B3710086B3710086B371008E4
:103500006B3710086B371008593510086B371008E7
:103510006B3710086B3710086B3710086B371008C3
:103520006B3710086B3710085F351008944B1B6819
:1035300003F02003002B09D0914B1B68DB0803F03C
:103540000303904A22FA03F3BB6111E18D4BBB6187
:103550000EE18D4BBB610BE18C4BBB6108E1884BED
:103560009B6A03F003037B61854B9B6A1B0903F095
:103570003F033B61824BDB6A03F00103FB60804B3E
:103580005B6BDB08C3F30C03FA6802FB03F307EE83
:10359000903AF8EE677AC7ED027A3B69002B00F0AB
:1035A000E1807B69022B00F083807B69022B00F2B3
:1035B000A1807B69002B03D07B69012B56D099E059
:1035C0006F4B1B6803F02003002B2DD06C4B1B6846
:1035D000DB0803F003036B4A22FA03F37B607B688A
:1035E00007EE903AF8EE676A3B6907EE903AF8EE1C
:1035F000677A86EEA77A624B1B6BC3F3080307EE6C
:10360000903AF8EE676A97ED026ADFED615AC6EE0E
:10361000257A76EEA77AF7EE006A77EEA67A67EE5D
:10362000277AC7ED077A87E03B6907EE903AF8EE14
:10363000677ADFED586A86EEA77A514B1B6BC3F3AE
:10364000080307EE903AF8EE676A97ED026ADFED3D
:10365000505AC6EE257A76EEA77AF7EE006A77EE34
:10366000A67A67EE277AC7ED077A65E03B6907EE31
:10367000903AF8EE677ADFED486A86EEA77A404B1B
:103680001B6BC3F3080307EE903AF8EE676A97EDF9
:10369000026ADFED3F5AC6EE257A76EEA77AF7EE9C
:1036A000006A77EEA67A67EE277AC7ED077A43E0DD
:1036B0003B6907EE903AF8EE677ADFED386A86EEFE
:1036C000A77A2F4B1B6BC3F3080307EE903AF8EE73
:1036D000676A97ED026ADFED2E5AC6EE257A76EE1E
:1036E000A77AF7EE006A77EEA67A67EE277AC7ED3B
:1036F000077A21E03B6907EE903AF8EE677ADFED52
:10370000266A86EEA77A1E4B1B6BC3F3080307EEEF
:10371000903AF8EE676A97ED026ADFED1D5AC6EE41
:10372000257A76EEA77AF7EE006A77EEA67A67EE4C
:10373000277AC7ED077A00BF114B1B6B5B0A03F0BA
:103740007F0301333B603B6807EE903AB8EE677A3F
:10375000D7ED076AC6EE877AFCEEE77A17EE903A65
:10376000BB6105E00023BB6102E0074BBB6100BF0A
:10377000BB6918462437BD465DF8047B704700BF1F
:10378000004402580090D00300093D0040787D01BC
:10379000000000460024744C0024744A20BCBE4B38
:1037A00080B582B000AFFFF781FE0246114B9B69E6
:1037B0001B0A03F00F031049CB5C03F01F0322FA2E
:1037C00003F37B600B4B9B6903F00F030A4AD35C46
:1037D00003F01F037A6822FA03F3084A1360074BC9
:1037E0001B68074A1360054B1B6818460837BD461F
:1037F00080BD00BF00440258F0E61008040000102D
:103800000000001080B500AFFFF7CAFF0246064B6C
:10381000DB691B0903F007030449CB5C03F01F03BA
:1038200022FA03F3184680BD00440258F0E610085F
:1038300080B500AFFFF7B4FF0246064BDB691B0AF9
:1038400003F007030449CB5C03F01F0322FA03F3E0
:10385000184680BD00440258F0E6100880B500AF5D
:10386000074B5B6E03F48063B3F5806F05D100F006
:1038700009F8034B4FF480629A6600BF80BD00BF19
:103880000044025880B400AF00BFBD465DF8047B21
:10389000704700002DE9B04FCCB000AFC7F81C0155
:1038A000002387F82F31002387F82E31D7F81C31F9
:1038B000D3E9002302F00064002554EA050349D04F
:1038C000D7F81C31DB6EB3F5401F2FD0B3F5401F86
:1038D00028D8B3F5001F1AD0B3F5001F22D8002B4B
:1038E00003D0B3F5801F07D01CE0B84BDB6AB74AA2
:1038F00043F40033D3621AE0D7F81C3108330221B5
:10390000184601F0CFFC034687F82F310FE0D7F8B7
:103910001C3128330221184601F076FD034687F852
:103920002F3104E0012387F82F3100E000BF97F822
:103930002F31002B0AD1A54B1B6D23F44011D7F872
:103940001C31DB6EA14A0B43136503E097F82F315E
:1039500087F82E31D7F81C31D3E9002302F48078A0
:103960004FF0000958EA090347D0D7F81C31DB6D46
:10397000042B2AD801A252F823F000BF9139100875
:103980009F391008B5391008D3391008D3391008F9
:103990008E4BDB6A8D4A43F40033D3621AE0D7F8CA
:1039A0001C3108330021184601F07CFC034687F8DF
:1039B0002F310FE0D7F81C3128330021184601F0D1
:1039C00023FD034687F82F3104E0012387F82F31C8
:1039D00000E000BF97F82F31002B0AD17B4B1B6D05
:1039E00023F00701D7F81C31DB6D784A0B431365D0
:1039F00003E097F82F3187F82E31D7F81C31D3E93F
:103A0000002302F4007A4FF0000B5AEA0B034CD06B
:103A1000D7F81C311B6EB3F5807F30D0B3F5807FB3
:103A200029D8C02B2DD0C02B25D8802B18D0802B87
:103A300021D8002B02D0402B07D01CE0634BDB6A5F
:103A4000624A43F40033D3621CE0D7F81C310833D8
:103A50000021184601F026FC034687F82F3111E0BB
:103A6000D7F81C3128330021184601F0CDFC03465D
:103A700087F82F3106E0012387F82F3102E000BFDD
:103A800000E000BF97F82F31002B0AD14F4B1B6D80
:103A900023F4E071D7F81C311B6E4C4A0B431365BD
:103AA00003E097F82F3187F82E31D7F81C31D3E98E
:103AB000002302F48063C7F810310023C7F81431E3
:103AC000D7E944120B46134353D0D7F81C31D3F82F
:103AD000AC30B3F5000F35D0B3F5000F2ED8B3F5E9
:103AE000C00F31D0B3F5C00F28D8B3F5800F1AD06E
:103AF000B3F5800F22D8002B03D0B3F5001F07D0F9
:103B00001CE0324BDB6A314A43F40033D3621CE0E1
:103B1000D7F81C3108330021184601F0C3FB0346D7
:103B200087F82F3111E0D7F81C31283300211846CF
:103B300001F06AFC034687F82F3106E0012387F87D
:103B40002F3102E000BF00E000BF97F82F31002BBB
:103B50000BD11E4B9B6D23F46001D7F81C31D3F8B9
:103B6000AC301A4A0B43936503E097F82F3187F87E
:103B70002E31D7F81C31D3E9002302F40063C7F8D3
:103B800008310023C7F80C31D7E942120B46134322
:103B900056D0D7F81C31D3F8B030B3F1806F38D09D
:103BA000B3F1806F31D8B3F1407F34D0B3F1407FAF
:103BB0002BD8B3F1007F1DD0B3F1007F25D8002BA7
:103BC00006D0B3F1807F0AD01FE000BF0044025846
:103BD000A24BDB6AA14A43F40033D3621CE0D7F85E
:103BE0001C3108330021184601F05CFB034687F8BE
:103BF0002F3111E0D7F81C3128330021184601F08D
:103C000003FC034687F82F3106E0012387F82F31A4
:103C100002E000BF00E000BF97F82F31002B0BD16E
:103C20008E4B9B6D23F0E061D7F81C31D3F8B03098
:103C30008A4A0B43936503E097F82F3187F82E31BA
:103C4000D7F81C31D3E9002302F00073C7F8003124
:103C50000023C7F80431D7E940120B4613433AD08A
:103C6000D7F81C31DB6C302B1FD0302B19D8202B10
:103C70000CD0202B15D8002B19D0102B11D1774B3D
:103C8000DB6A764A43F40033D36211E0D7F81C3183
:103C900008330221184601F005FB034687F82F314F
:103CA00006E0012387F82F3102E000BF00E000BFEB
:103CB00097F82F31002B0AD1684BDB6C23F03001D1
:103CC000D7F81C31DB6C654A0B43D36403E097F8EB
:103CD0002F3187F82E31D7F81C31D3E9002302F4B5
:103CE0008053C7F8F8300023C7F8FC30D7E93E12FC
:103CF0000B46134351D0D7F81C315B6EB3F5804FA0
:103D000035D0B3F5804F2ED8B3F5405F31D0B3F541
:103D1000405F28D8B3F5005F1AD0B3F5005F22D812
:103D2000002B03D0B3F5805F07D01CE04B4BDB6A60
:103D30004A4A43F40033D3621CE0D7F81C310833FD
:103D40000021184601F0AEFA034687F82F3111E042
:103D5000D7F81C3128330021184601F055FB0346E3
:103D600087F82F3106E0012387F82F3102E000BFEA
:103D700000E000BF97F82F31002B0AD1374B1B6DA5
:103D800023F4E041D7F81C315B6E344A0B431365D2
:103D900003E097F82F3187F82E31D7F81C31D3E99B
:103DA000002302F40053C7F8F0300023C7F8F430C2
:103DB000D7E93C120B46134356D0D7F81C319B6E03
:103DC000B3F5A02F33D0B3F5A02F2CD8B3F5802FA7
:103DD0002FD0B3F5802F26D8B3F5403F2BD0B3F5C5
:103DE000403F20D8B3F5003F12D0B3F5003F1AD8BA
:103DF000002B22D0B3F5803F15D1D7F81C31083302
:103E00000121184601F04EFA034687F82F3115E0DC
:103E1000D7F81C3128330121184601F0F5FA034682
:103E200087F82F310AE0012387F82F3106E000BF21
:103E300004E000BF02E000BF00E000BF97F82F31B0
:103E4000002B0DD1054B1B6D23F4E021D7F81C315D
:103E50009B6E024A0B43136506E000BF0044025804
:103E600097F82F3187F82E31D7F81C31D3E900238A
:103E700002F48043C7F8E8300023C7F8EC30D7E9F4
:103E80003A120B46134355D0D7F81C31D3F8B4304F
:103E9000B3F1A04F33D0B3F1A04F2CD8B3F1804F82
:103EA0002FD0B3F1804F26D8B3F1405F2BD0B3F1C0
:103EB000405F20D8B3F1005F12D0B3F1005F1AD891
:103EC000002B22D0B3F1805F15D1D7F81C31083315
:103ED0000121184601F0E6F9034687F82F3115E075
:103EE000D7F81C3128330121184601F08DFA03461A
:103EF00087F82F310AE0012387F82F3106E000BF51
:103F000004E000BF02E000BF00E000BF97F82F31DF
:103F1000002B0BD1B74B9B6D23F0E041D7F81C3140
:103F2000D3F8B430B34A0B43936503E097F82F31CD
:103F300087F82E31D7F81C31D3E9002302F08063D3
:103F4000C7F8E0300023C7F8E430D7E938120B4651
:103F500013432AD0D7F81C311B6D002B11D0B3F5B9
:103F6000807F0AD1D7F81C3108330121184601F0AF
:103F700099F9034687F82F3104E0012387F82F31A0
:103F800000E000BF97F82F31002B0AD1994BDB6C72
:103F900023F48071D7F81C311B6D964A0B43D36410
:103FA00003E097F82F3187F82E31D7F81C31D3E989
:103FB000002302F40043C7F8D8300023C7F8DC30F0
:103FC000D7E936120B46134337D0D7F81C315B6F55
:103FD000B3F1005F0ED0B3F1005F16D8002B18D0FC
:103FE000B3F1805F11D1834BDB6A824A43F4003323
:103FF000D3620FE0D7F81C3108330121184601F0D5
:1040000051F9034687F82F3104E0012387F82F3157
:1040100000E000BF97F82F31002B0AD1754B1B6DC4
:1040200023F04051D7F81C315B6F724A0B43136584
:1040300003E097F82F3187F82E31D7F81C31D3E9F8
:10404000002302F08073C7F8D0300023C7F8D430C3
:10405000D7E934120B4613433AD0D7F81C319B6C86
:10406000032B1DD801A252F823F000BFA94010086D
:104070007D4010088B401008A94010085D4BDB6A9A
:104080005C4A43F40033D3620FE0D7F81C310833A5
:104090000221184601F006F9034687F82F3104E0A3
:1040A000012387F82F3100E000BF97F82F31002B54
:1040B0000AD1504BDB6C23F00301D7F81C319B6C09
:1040C0004C4A0B43D36403E097F82F3187F82E3125
:1040D000D7F81C31D3E9002302F48003C7F8C830B5
:1040E0000023C7F8CC30D7E932120B46134300F057
:1040F000A080414B1B68404A43F480731360FDF776
:10410000B1F8C7F828010BE0FDF7ACF80246D7F884
:104110002831D31A642B03D9032387F82F3105E004
:10412000354B1B6803F48073002BEDD097F82F31CB
:10413000002B7AD12F4B1A6FD7F81C31D3F8B83037
:10414000534003F44073002B15D02A4B1B6F23F40C
:104150004073C7F82431274B1B6F264A43F4803342
:104160001367244B1B6F234A23F480331367214AC0
:10417000D7F824311367D7F81C31D3F8B830B3F52A
:10418000807F18D1FDF76EF8C7F828010DE0FDF724
:1041900069F80246D7F82831D21A41F288339A4298
:1041A00003D9032387F82F3105E0124B1B6F03F06F
:1041B0000203002BEBD097F82F31002B30D1D7F82A
:1041C0001C31D3F8B83003F44073B3F5407F15D1F8
:1041D000084B1B6923F47C51D7F81C31D3F8B83055
:1041E0001B0923F07F4323F03003024A0B43136182
:1041F0000AE000BF0044025800480258D44B1B6933
:10420000D34A23F47C531361D14B196FD7F81C3177
:10421000D3F8B830C3F30B03CD4A0B43136708E060
:1042200097F82F3187F82E3103E097F82F3187F870
:104230002E31D7F81C31D3E9002302F00103C7F86F
:10424000C0300023C7F8C430D7E930120B461343FF
:1042500000F08B80D7F81C31D3F88030282B6BD836
:1042600001A252F823F000BF41431008394310085F
:1042700039431008394310083943100839431008EE
:1042800039431008394310080D431008394310080A
:1042900039431008394310083943100839431008CE
:1042A00039431008394310082343100839431008D4
:1042B00039431008394310083943100839431008AE
:1042C0003943100839431008414310083943100896
:1042D000394310083943100839431008394310088E
:1042E0003943100839431008414310083943100876
:1042F000394310083943100839431008394310086E
:10430000394310083943100841431008D7F81C31CD
:1043100008330121184600F0C5FF034687F82F3106
:104320000FE0D7F81C3128330121184601F06CF852
:10433000034687F82F3104E0012387F82F3100E08E
:1043400000BF97F82F31002B0BD1814B5B6D23F011
:104350003801D7F81C31D3F880307D4A0B435365C0
:1043600003E097F82F3187F82E31D7F81C31D3E9C5
:10437000002302F00203C7F8B8300023C7F8BC30AE
:10438000D7E92E120B46134342D0D7F81C31DB6F0E
:10439000052B25D801A252F823F000BFE9431008ED
:1043A000B5431008CB431008E9431008E94310084F
:1043B000E9431008D7F81C3108330121184600F0F2
:1043C00071FF034687F82F310FE0D7F81C312833EF
:1043D0000121184601F018F8034687F82F3104E050
:1043E000012387F82F3100E000BF97F82F31002B11
:1043F0000AD1574B5B6D23F00701D7F81C31DB6FF7
:10440000534A0B43536503E097F82F3187F82E3159
:10441000D7F81C31D3E9002302F00403C7F8B03009
:104420000023C7F8B430D7E92C120B46134344D00D
:10443000D7F81C31D3F89830052B25D801A252F8B3
:1044400023F000BF914410085D4410087344100825
:10445000914410089144100891441008D7F81C3179
:1044600008330121184600F01DFF034687F82F315D
:104470000FE0D7F81C3128330121184600F0C4FFA3
:10448000034687F82F3104E0012387F82F3100E03D
:1044900000BF97F82F31002B0BD12D4B9B6D23F0D4
:1044A0000701D7F81C31D3F89830294A0B4393659C
:1044B00003E097F82F3187F82E31D7F81C31D3E974
:1044C000002302F02003C7F8A8300023C7F8AC305F
:1044D000D7E92A120B46134357D0D7F81C31D3F82B
:1044E0009430B3F1A04F35D0B3F1A04F2CD8B3F135
:1044F000804F31D0B3F1804F26D8B3F1405F2DD03B
:10450000B3F1405F20D8B3F1005F12D0B3F1005F88
:104510001AD8002B24D0B3F1805F15D1D7F81C3105
:1045200008330021184600F0BDFE034687F82F31FE
:1045300017E0D7F81C3128330221184600F064FF39
:10454000034687F82F310CE0012387F82F3108E06C
:104550000044025800BF04E000BF02E000BF00E0DA
:1045600000BF97F82F31002B0BD1C24B5B6D23F0AE
:10457000E041D7F81C31D3F89430BE4A0B43536561
:1045800003E097F82F3187F82E31D7F81C31D3E9A3
:10459000002302F04003C7F8A0300023C7F8A4307E
:1045A000D7E928120B46134355D0D7F81C31D3F85E
:1045B000A030B3F5A05F33D0B3F5A05F2CD8B3F52E
:1045C000805F2FD0B3F5805F26D8B3F5406F2BD036
:1045D000B3F5406F20D8B3F5006F12D0B3F5006F7C
:1045E0001AD8002B22D0B3F5806F15D1D7F81C3123
:1045F00008330021184600F055FE034687F82F3196
:1046000015E0D7F81C3128330221184600F0FCFED3
:10461000034687F82F310AE0012387F82F3106E09F
:1046200000BF04E000BF02E000BF00E000BF97F859
:104630002F31002B0BD18F4B9B6D23F4E051D7F81A
:104640001C31D3F8A0308B4A0B43936503E097F8F5
:104650002F3187F82E31D7F81C31D3E9002302F02F
:104660008003C7F898300023C7F89C30D7E926129A
:104670000B46134355D0D7F81C31D3F8A430B3F50B
:10468000204F33D0B3F5204F2CD8B3F5004F2FD0A7
:10469000B3F5004F26D8B3F5C04F2BD0B3F5C04FBC
:1046A00020D8B3F5804F12D0B3F5804F1AD8002B25
:1046B00022D0B3F5005F15D1D7F81C3108330021A3
:1046C000184600F0EFFD034687F82F3115E0D7F8C4
:1046D0001C3128330221184600F096FE034687F865
:1046E0002F310AE0012387F82F3106E000BF04E0F4
:1046F00000BF02E000BF00E000BF97F82F31002BA1
:104700000BD15C4B9B6D23F46041D7F81C31D3F87F
:10471000A430584A0B43936503E097F82F3187F88C
:104720002E31D7F81C31D3E9002302F00803C7F873
:1047300090300023C7F89430D7E924120B46134376
:104740001ED0D7F81C31D3F88830B3F5805F0CD178
:10475000D7F81C3128330221184600F055FE0346D5
:10476000002B02D0012387F82E31424B5B6D23F4DE
:104770004051D7F81C31D3F888303E4A0B4353657B
:10478000D7F81C31D3E9002302F01003C7F88830B2
:104790000023C7F88C30D7E922120B4613431ED0F2
:1047A000D7F81C31D3F89C30B3F5807F0CD1D7F803
:1047B0001C3128330221184600F026FE0346002B48
:1047C00002D0012387F82E312A4B9B6D23F44071D0
:1047D000D7F81C31D3F89C30264A0B439365D7F8A1
:1047E0001C31D3E9002302F40023C7F880300023F2
:1047F000C7F88430D7E920120B46134340D0D7F8CE
:104800001C31D3F8A830B3F5003F22D0B3F5003FF8
:104810001BD8002B03D0B3F5803F0BD015E0D7F8A1
:104820001C3108330021184600F03CFD034687F890
:104830002F310FE0D7F81C3128330221184600F041
:10484000E3FD034687F82F3104E0012387F82F3179
:1048500000E000BF97F82F31002B0DD1054B9B6D69
:1048600023F44031D7F81C31D3F8A830014A0B4368
:10487000936505E00044025897F82F3187F82E31F0
:10488000D7F81C31D3E9002302F48023BB6700234F
:10489000FB67D7E91E120B4613433BD0D7F81C31F8
:1048A000D3F88C30B3F5401F1FD0B3F5401F18D894
:1048B000B3F5801F03D0B3F5001F07D011E0644BA0
:1048C000DB6A634A43F40033D3620FE0D7F81C314C
:1048D00028330121184600F097FD034687F82F3151
:1048E00004E0012387F82F3100E000BF97F82F3153
:1048F000002B0BD1564B5B6D23F44011D7F81C31C4
:10490000D3F88C30524A0B43536503E097F82F31AC
:1049100087F82E31D7F81C31D3E9002302F4803315
:104920003B6700237B67D7E91C120B46134331D04A
:10493000D7F81C315B6D002B03D0B3F5803F07D057
:1049400011E0434BDB6A424A43F40033D3620EE08A
:10495000D7F81C3108330221184600F0A3FC0346A7
:1049600087F82F3103E0012387F82F3100BF97F834
:104970002F31002B0AD1364BDB6C23F48031D7F872
:104980001C315B6D324A0B43D36403E097F82F313F
:1049900087F82E31D7F81C31D3E9002302F00053F9
:1049A000BB660023FB66D7E91A120B4613430CD0F3
:1049B000D7F81C3128330221184600F025FD0346A4
:1049C000002B02D0012387F82E31D7F81C31D3E910
:1049D000002302F400333B6600237B66D7E91812FC
:1049E0000B4613433AD0D7F81C31D3F88430B3F5D3
:1049F000407F18D0B3F5407F11D8B3F5007F14D0B5
:104A0000B3F5007F0BD8002B11D0B3F5807F06D112
:104A10000F4BDB6A0E4A43F40033D36208E00123F4
:104A200087F82F3104E000BF02E000BF00E000BFC4
:104A300097F82F31002B0DD1054B5B6D23F440719E
:104A4000D7F81C31D3F88430014A0B43536505E095
:104A50000044025897F82F3187F82E31D7F81C31CF
:104A6000D3E9002302F48013BB650023FB65D7E97B
:104A700016120B46134309D0AA4B1B6D23F00041BD
:104A8000D7F81C319B6FA74A0B431365D7F81C312D
:104A9000D3E9002302F080533B6500237B65D7E90F
:104AA00014120B4613430AD09E4B1B6923F480411A
:104AB000D7F81C31D3F8BC309A4A0B431361D7F8AE
:104AC0001C31D3E9002302F40013BB640023FB6410
:104AD000D7E912120B46134309D0924B1B6D23F0FA
:104AE0008071D7F81C311B6F8E4A0B431365D7F8C2
:104AF0001C31D3E9002302F080433B6400237B6434
:104B0000D7E910120B4613430ED0864B1B69854A1A
:104B100023F400431361834B1969D7F81C31D3F890
:104B2000C030804A0B431361D7F81C31D3E900230E
:104B300002F00043BB630023FB63D7E90E120B4670
:104B4000134309D0774BDB6C23F04051D7F81C316D
:104B50009B6D744A0B43D364D7F81C31D3E900230F
:104B600002F400033B6300237B63D7E90C120B467E
:104B700013430AD06B4B5B6D23F44001D7F81C3113
:104B8000D3F89030674A0B435365D7F81C31D3E90B
:104B900000230021B96203F00103FB62D7E90A1286
:104BA0000B46134311D0D7F81C31083300211846A7
:104BB00000F078FB034687F82F3197F82F31002B50
:104BC00003D097F82F3187F82E31D7F81C31D3E96D
:104BD00000230021396203F002037B62D7E9081247
:104BE0000B46134311D0D7F81C3108330121184666
:104BF00000F058FB034687F82F3197F82F31002B30
:104C000003D097F82F3187F82E31D7F81C31D3E92C
:104C100000230021B96103F00403FB61D7E9061208
:104C20000B46134311D0D7F81C3108330221184624
:104C300000F038FB034687F82F3197F82F31002B0F
:104C400003D097F82F3187F82E31D7F81C31D3E9EC
:104C500000230021396103F008037B61D7E90412C6
:104C60000B46134311D0D7F81C31283300211846C6
:104C700000F0CAFB034687F82F3197F82F31002B3D
:104C800003D097F82F3187F82E31D7F81C31D3E9AC
:104C900000230021B96003F01003FB60D7E9021282
:104CA0000B46134311D0D7F81C3128330121184685
:104CB00000F0AAFB034687F82F3197F82F31002B1D
:104CC00003D097F82F3187F82E31D7F81C31D3E96C
:104CD00000230021396003F020037B60D7E9001234
:104CE0000B46134311D0D7F81C3128330221184644
:104CF00000F08AFB034687F82F3197F82F31002BFD
:104D000003D097F82F3187F82E3197F82E31002BEA
:104D100001D1002300E00123184607F59877BD462E
:104D2000BDE8B08F0044025880B500AFFEF738FDF3
:104D30000246064B1B6A1B0903F007030449CB5CC0
:104D400003F01F0322FA03F3184680BD0044025803
:104D5000F0E6100880B489B000AF7860A14B9B6A80
:104D600003F00303BB619F4B9B6A1B0B03F03F03E4
:104D70007B619C4BDB6A1B0903F001033B61994B90
:104D8000DB6BDB08C3F30C033A6902FB03F307EEAA
:104D9000903AF8EE677AC7ED037A7B69002B00F052
:104DA0001181BB69022B00F08380BB69022B00F2EA
:104DB000A180BB69002B03D0BB69012B56D099E0C1
:104DC000884B1B6803F02003002B2DD0854B1B68FC
:104DD000DB0803F00303844A22FA03F3BB60BB68D9
:104DE00007EE903AF8EE676A7B6907EE903AF8EEC4
:104DF000677A86EEA77A7B4B9B6BC3F3080307EEBB
:104E0000903AF8EE676A97ED036ADFED785AC6EEDE
:104E1000257A76EEA77AF7EE006A77EEA67A67EE45
:104E2000277AC7ED077A87E07B6907EE903AF8EEBC
:104E3000677ADFED6F6A86EEA77A6A4B9B6BC3F3E6
:104E4000080307EE903AF8EE676A97ED036ADFED24
:104E5000675AC6EE257A76EEA77AF7EE006A77EE05
:104E6000A67A67EE277AC7ED077A65E07B6907EED9
:104E7000903AF8EE677ADFED5F6A86EEA77A594BD3
:104E80009B6BC3F3080307EE903AF8EE676A97ED61
:104E9000036ADFED565AC6EE257A76EEA77AF7EE6C
:104EA000006A77EEA67A67EE277AC7ED077A43E0C5
:104EB0007B6907EE903AF8EE677ADFED4F6A86EE8F
:104EC000A77A484B9B6BC3F3080307EE903AF8EEC2
:104ED000676A97ED036ADFED455AC6EE257A76EEEE
:104EE000A77AF7EE006A77EEA67A67EE277AC7ED23
:104EF000077A21E07B6907EE903AF8EE677ADFEDFA
:104F00003D6A86EEA77A374B9B6BC3F3080307EE27
:104F1000903AF8EE676A97ED036ADFED345AC6EE11
:104F2000257A76EEA77AF7EE006A77EEA67A67EE34
:104F3000277AC7ED077A00BF2A4B9B6B5B0A03F009
:104F40007F0307EE903AF8EE677AB7EE007A37EE15
:104F5000877AD7ED076AC6EE877AFCEEE77A17EE16
:104F6000902A7B681A601F4B9B6B1B0C03F07F031E
:104F700007EE903AF8EE677AB7EE007A37EE877A66
:104F8000D7ED076AC6EE877AFCEEE77A17EE902A2D
:104F90007B685A60134B9B6B1B0E03F07F0307EE7D
:104FA000903AF8EE677AB7EE007A37EE877AD7ED67
:104FB000076AC6EE877AFCEEE77A17EE902A7B68DE
:104FC0009A6008E07B6800221A607B6800225A60C1
:104FD0007B6800229A6000BF2437BD465DF8047BE1
:104FE000704700BF004402580090D0030000004604
:104FF0000024744C0024744A20BCBE4B80B489B099
:1050000000AF7860A14B9B6A03F00303BB619F4B29
:105010009B6A1B0D03F03F037B619C4BDB6A1B0A01
:1050200003F001033B61994B5B6CDB08C3F30C039A
:105030003A6902FB03F307EE903AF8EE677AC7EDA0
:10504000037A7B69002B00F01181BB69022B00F011
:105050008380BB69022B00F2A180BB69002B03D0C7
:10506000BB69012B56D099E0884B1B6803F02003E5
:10507000002B2DD0854B1B68DB0803F00303844A0B
:1050800022FA03F3BB60BB6807EE903AF8EE676A5A
:105090007B6907EE903AF8EE677A86EEA77A7B4B4B
:1050A0001B6CC3F3080307EE903AF8EE676A97EDBE
:1050B000036ADFED785AC6EE257A76EEA77AF7EE28
:1050C000006A77EEA67A67EE277AC7ED077A87E05F
:1050D0007B6907EE903AF8EE677ADFED6F6A86EE4D
:1050E000A77A6A4B1B6CC3F3080307EE903AF8EEFD
:1050F000676A97ED036ADFED675AC6EE257A76EEAA
:10510000A77AF7EE006A77EEA67A67EE277AC7ED00
:10511000077A65E07B6907EE903AF8EE677ADFED93
:105120005F6A86EEA77A594B1B6CC3F3080307EE40
:10513000903AF8EE676A97ED036ADFED565AC6EECD
:10514000257A76EEA77AF7EE006A77EEA67A67EE12
:10515000277AC7ED077A43E07B6907EE903AF8EECD
:10516000677ADFED4F6A86EEA77A484B1B6CC3F374
:10517000080307EE903AF8EE676A97ED036ADFEDF1
:10518000455AC6EE257A76EEA77AF7EE006A77EEF4
:10519000A67A67EE277AC7ED077A21E07B6907EEEA
:1051A000903AF8EE677ADFED3D6A86EEA77A374BE4
:1051B0001B6CC3F3080307EE903AF8EE676A97EDAD
:1051C000036ADFED345AC6EE257A76EEA77AF7EE5B
:1051D000006A77EEA67A67EE277AC7ED077A00BFF6
:1051E0002A4B1B6C5B0A03F07F0307EE903AF8EE44
:1051F000677AB7EE007A37EE877AD7ED076AC6EEA0
:10520000877AFCEEE77A17EE902A7B681A601F4BCC
:105210001B6C1B0C03F07F0307EE903AF8EE677AE5
:10522000B7EE007A37EE877AD7ED076AC6EE877A4F
:10523000FCEEE77A17EE902A7B685A60134B1B6CE2
:105240001B0E03F07F0307EE903AF8EE677AB7EE95
:10525000007A37EE877AD7ED076AC6EE877AFCEEDA
:10526000E77A17EE902A7B689A6008E07B68002254
:105270001A607B6800225A607B6800229A6000BF37
:105280002437BD465DF8047B704700BF00440258D8
:105290000090D003000000460024744C0024744A9F
:1052A00020BCBE4B80B584B000AF7860396000236D
:1052B000FB73544B9B6A03F00303032B01D10123BF
:1052C0009BE0504B1B684F4A23F080631360FBF751
:1052D000C9FFB86008E0FBF7C5FF0246BB68D31AF8
:1052E000022B01D9032388E0464B1B6803F00063BF
:1052F000002BF0D1434B9B6A23F47C327B681B6804
:105300001B03404913438B627B685B68013BC3F31B
:1053100008027B689B68013B5B029BB21A437B6877
:10532000DB68013B1B0403F4FE031A437B681B6923
:10533000013B1B0603F0FE43324913438B63314BA1
:10534000DB6A23F0C0027B685B692E491343CB62A2
:105350002C4BDB6A23F020027B689B6929491343AD
:10536000CB62284BDB6A274A23F01003D362254B1C
:10537000DB6B23F47F4323F0F8037A68D269D20011
:1053800020491343CB631F4BDB6A1E4A43F01003D3
:10539000D3623B68002B06D11A4BDB6A194A43F4EF
:1053A0000023D3620FE03B68012B06D1154BDB6A6B
:1053B000144A43F48013D36205E0124BDB6A114AAE
:1053C00043F40013D3620F4B1B680E4A43F0806313
:1053D0001360FBF747FFB86008E0FBF743FF0246A6
:1053E000BB68D31A022B01D9032306E0054B1B68C7
:1053F00003F00063002BF0D0FB7B18461037BD464E
:1054000080BD00BF0044025880B584B000AF786012
:1054100039600023FB73544B9B6A03F00303032B97
:1054200001D101239BE0504B1B684F4A23F080536E
:105430001360FBF717FFB86008E0FBF713FF0246A5
:10544000BB68D31A022B01D9032388E0464B1B68A3
:1054500003F00053002BF0D1434B9B6A23F07C7286
:105460007B681B681B05404913438B627B685B6844
:10547000013BC3F308027B689B68013B5B029BB264
:105480001A437B68DB68013B1B0403F4FE031A43E9
:105490007B681B69013B1B0603F0FE433249134343
:1054A0000B64314BDB6A23F440627B685B692E49F5
:1054B0001343CB622C4BDB6A23F400727B689B693D
:1054C00029491343CB62284BDB6A274A23F48073B4
:1054D000D362254B5B6C23F47F4323F0F8037A6897
:1054E000D269D200204913434B641F4BDB6A1E4A2A
:1054F00043F48073D3623B68002B06D11A4BDB6AFE
:10550000194A43F48003D3620FE03B68012B06D1B4
:10551000154BDB6A144A43F40003D36205E0124BD7
:10552000DB6A114A43F08073D3620F4B1B680E4A4B
:1055300043F080531360FBF795FEB86008E0FBF77B
:1055400091FE0246BB68D31A022B01D9032306E061
:10555000054B1B6803F00053002BF0D0FB7B184673
:105560001037BD4680BD00BF0044025880B584B0EE
:1055700000AF78600123FB737B68002B73D07B68DE
:1055800093F82130DBB2002B06D17B68002283F830
:1055900020207868FBF7F8FA7B68022283F8212044
:1055A0007B681B68DB6803F01003102B52D07B680C
:1055B0001B68CA225A627B681B6853225A62786849
:1055C00000F07AF80346FB73FB7B002B26D17B6847
:1055D0001B689B687A68126823F4E00323F0400399
:1055E00093607B681B6899687B685A687B681B6955
:1055F0001A437B689B691A437B681B680A439A605D
:105600007B689B6819047B68DA687B681B680A43BF
:105610001A61786800F084F80346FB73FB7B002B6B
:1056200013D17B681B68DA6C7B681B6822F003026D
:10563000DA647B681B68D96C7B68DA697B685B69B4
:105640001A437B681B680A43DA647B681B68FF2285
:105650005A6201E00023FB73FB7B002B03D17B68C4
:10566000012283F82120FB7B18461037BD4680BD00
:1056700080B584B000AF78607B681B680D4ADA6043
:10568000FBF7F0FDF86009E0FBF7ECFD0246FB6874
:10569000D31AB3F57A7F01D9032307E07B681B682F
:1056A000DB6803F02003002BEED0002318461037F0
:1056B000BD4680BD5FFF030080B584B000AF786059
:1056C0000023FB737B681B68DB6803F04003002B3F
:1056D00020D17B681B684FF0FF32DA60FBF7C2FD18
:1056E000B8600DE0FBF7BEFD0246BB68D31AB3F508
:1056F0007A7F05D90323FB737B68032283F821207B
:105700007B681B68DB6803F04003002B02D1FB7B46
:10571000032BE7D1FB7B18461037BD4680BD000048
:1057200080B584B000AF78600023FB731A4BDB6850
:10573000194A23F04003D360174B9B6803F0200302
:10574000002B0CD17868FFF793FF0346002B1ED087
:105750007B68032283F821200323FB7317E00E4BA1
:105760009B680D4A23F0200393607868FFF780FF61
:105770000346002B05D07B68032283F821200323F6
:10578000FB73054B9B68044A43F020039360FB7B4B
:1057900018461037BD4680BD0040005880B485B023
:1057A00000AF786039607B6893F82030012B01D11D
:1057B0000223CCE07B68012283F820207B68022250
:1057C00083F821207B681B681B6CFB603B681B68AF
:1057D000FA681343FB603B689B68082B03D03B6867
:1057E0009B68022B06D13B681B685B00FA68134379
:1057F000FB6006E03B681B685B00DB43FA68134014
:10580000FB603B68DB68002B1ED03B681B6803F025
:105810000103002B03D0FB6843F40033FB603B68BB
:105820001B6803F00803002B03D0FB6843F48013CC
:10583000FB603B681B6803F02003002B22D0FB6851
:1058400043F40003FB601DE03B681B6803F00103A9
:10585000002B03D0FB6823F40033FB603B681B681C
:1058600003F00803002B03D0FB6823F48013FB60D4
:105870003B681B6803F02003002B03D0FB6823F474
:105880000003FB603B681B69002B1ED03B681B6854
:1058900003F00103002B03D0FB6843F48023FB607B
:1058A0003B681B6803F00803002B03D0FB6843F43C
:1058B0000013FB603B681B6803F02003002B22D021
:1058C000FB6843F08073FB601DE03B681B6803F0DE
:1058D0000103002B03D0FB6823F48023FB603B68AB
:1058E0001B6803F00803002B03D0FB6823F40013AC
:1058F000FB603B681B6803F02003002B03D0FB68B0
:1059000023F08073FB60FB6823F47F4323F0800364
:10591000FB603B685A693B689B691A433B68DB69DB
:105920001A433B681B6A1A433B685B6A1343FA6875
:105930001343FB607B681B68FA681A647B6801226A
:1059400083F821207B68002283F82020002318465A
:105950001437BD465DF8047B704780B582B000AF58
:1059600078607B68002B01D1012342E07B68D3F88B
:105970008830002B06D17B68002283F88420786869
:10598000FBF722FB7B682422C3F888207B681B6816
:105990001A687B681B6822F001021A60786800F0C0
:1059A000BBF80346012B01D1012322E07B689B6AEF
:1059B000002B02D0786800F017FE7B681B685A68DD
:1059C0007B681B6822F490425A607B681B689A6867
:1059D0007B681B6822F02A029A607B681B681A6841
:1059E0007B681B6842F001021A60786800F09EFE36
:1059F000034618460837BD4680BD80B58AB002AF61
:105A0000F860B9603B601346FB80FB68D3F88830D0
:105A1000202B7BD1BB68002B02D0FB88002B01D14F
:105A2000012374E0FB680022C3F89020FB68212268
:105A3000C3F88820FBF716FC7861FB68FA88A3F8A6
:105A40005420FB68FA88A3F85620FB689B68B3F5DE
:105A5000805F08D1FB681B69002B04D10023FB6128
:105A6000BB68BB6103E0BB68FB610023BB6130E046
:105A70003B6800937B6900228021F86800F000FFFA
:105A80000346002B05D0FB682022C3F8882003239F
:105A90003DE0FB69002B0BD1BB691B881A46FB68F4
:105AA0001B68C2F308029A62BB690233BB6107E05C
:105AB000FB691A78FB681B689A62FB690133FB611A
:105AC000FB68B3F856309BB2013B9AB2FB68A3F86F
:105AD0005620FB68B3F856309BB2002BC8D13B6808
