:020000040800F2
:10000000000008244D0E0008790D0008810D00083D
:10001000830D0008850D0008870D00080000000012
:10002000000000000000000000000000890D000832
:100030008B0D0008000000008D0D00088F0D0008DA
:100040009D0E00089D0E00089D0E00089D0E0008E4
:100050009D0E00089D0E00089D0E00089D0E0008D4
:100060009D0E00089D0E00089D0E00089D0E0008C4
:100070009D0E00089D0E00089D0E00089D0E0008B4
:100080009D0E00089D0E00089D0E00089D0E0008A4
:100090009D0E00089D0E00089D0E00089D0E000894
:1000A0009D0E00089D0E00089D0E00089D0E000884
:1000B0009D0E00089D0E00089D0E00089D0E000874
:1000C0009D0E00089D0E00089D0E00089D0E000864
:1000D0009D0E00089D0E00089D0E00089D0E000854
:1000E0009D0E00089D0E0008000000009D0E0008F7
:1000F0009D0E00089D0E00089D0E00089D0E000834
:100100009D0E00089D0E00089D0E00089D0E000823
:100110009D0E00089D0E00089D0E00089D0E000813
:100120009D0E0008970D00089D0E00089D0E00080A
:100130009D0E00089D0E00089D0E00089D0E0008F3
:100140009D0E00089D0E0008000000000000000049
:100150009D0E00089D0E00089D0E00089D0E0008D3
:100160009D0E00089D0E00089D0E00089D0E0008C3
:100170009D0E00089D0E00089D0E00080000000066
:100180009D0E00089D0E00089D0E00089D0E0008A3
:100190009D0E00089D0E00089D0E00089D0E000893
:1001A0009D0E00089D0E00089D0E00089D0E000883
:1001B0009D0E00089D0E00089D0E00089D0E000873
:1001C0009D0E00089D0E00089D0E00089D0E000863
:1001D0009D0E00089D0E00089D0E00089D0E000853
:1001E0009D0E00089D0E00089D0E00089D0E000843
:1001F0009D0E00089D0E00089D0E00089D0E000833
:100200009D0E00089D0E00089D0E00089D0E000822
:100210009D0E00089D0E00089D0E00089D0E000812
:100220009D0E00089D0E00089D0E00089D0E000802
:100230009D0E0008930D00089D0E00089D0E0008FD
:100240009D0E00089D0E00089D0E00089D0E0008E2
:100250009D0E00089D0E00089D0E00089D0E0008D2
:100260009D0E00089D0E00089D0E00089D0E0008C2
:100270009D0E00089D0E00089D0E00089D0E0008B2
:100280009D0E00089D0E00089D0E00080000000055
:080290009D0E00089D0E000800
:1002A00010B5054C237833B9044B13B10448AFF3B0
:1002B00000800123237010BD800100240000000095
:1002C000B4D0000808B5034B1BB103490348AFF392
:1002D000008008BD0000000084010024B4D00008A4
:1002E00010F8012B11F8013B012A28BF9A42F7D0E0
:1002F000D01A70470000000000000000000000005D
:1003000001F0FF01102A2BDB10F0070F08D010F8C6
:10031000013B013A8B422DD010F0070F42B3F6D1CA
:10032000F0B441EA012141EA014122F007047FF0E3
:1003300000070023F0E80256083C85EA010586EA3A
:10034000010685FA47F5A3FA87F586FA47F6A5FA76
:1003500087F68EB9EED1F0BC01F0FF0102F0070282
:1003600032B110F8013B013A83EA010313B1F8D12D
:100370000020704701387047002D06BF354603380E
:10038000073815F0010F07D1013015F4807F02BF47
:10039000013015F4C03F0130F0BC0138704700BF98
:1003A00081F0004102E000BF83F0004330B54FEA26
:1003B00041044FEA430594EA050F08BF90EA020F93
:1003C0001FBF54EA000C55EA020C7FEA645C7FEA26
:1003D000655C00F0E2804FEA5454D4EB5555B8BF49
:1003E0006D420CDD2C4480EA020281EA030382EABA
:1003F000000083EA010180EA020281EA0303362D4C
:1004000088BF30BD11F0004F4FEA01314FF4801C1E
:100410004CEA113102D0404261EB410113F0004F30
:100420004FEA03334CEA133302D0524263EB4303E7
:1004300094EA050F00F0A780A4F10104D5F1200E85
:100440000DDB02FA0EFC22FA05F2801841F10001E0
:1004500003FA0EF2801843FA05F359410EE0A5F1B4
:1004600020050EF1200E012A03FA0EFC28BF4CF0E5
:10047000020C43FA05F3C01851EBE37101F000459B
:1004800007D54FF0000EDCF1000C7EEB00006EEBA8
:100490000101B1F5801F1BD3B1F5001F0CD3490832
:1004A0005FEA30004FEA3C0C04F101044FEA445289
:1004B00012F5800F80F09A80BCF1004F08BF5FEA10
:1004C000500C50F1000041EB045141EA050130BDF0
:1004D0005FEA4C0C404141EB0101013C28BFB1F502
:1004E000801FE9D291F0000F04BF01460020B1FA4D
:1004F00081F308BF2033A3F10B03B3F120020CDA20
:100500000C3208DD02F1140CC2F10C0201FA0CF0FD
:1005100021FA02F10CE002F11402D8BFC2F1200C62
:1005200001FA02F120FA0CFCDCBF41EA0C01904018
:10053000E41AA2BF01EB0451294330BD6FEA040461
:100540001F3C1CDA0C340EDC04F11404C4F120024C
:1005500020FA04F001FA02F340EA030021FA04F35E
:1005600045EA030130BDC4F10C04C4F1200220FAB5
:1005700002F001FA04F340EA0300294630BD21FAF3
:1005800004F0294630BD94F0000F83F4801306BFB9
:1005900081F480110134013D4EE77FEA645C18BFAD
:1005A0007FEA655C29D094EA050F08BF90EA020F44
:1005B00005D054EA000C04BF1946104630BD91EA3C
:1005C000030F1EBF0021002030BD5FEA545C05D13F
:1005D0004000494128BF41F0004130BD14F580047E
:1005E0003CBF01F5801130BD01F0004545F0FE41F2
:1005F00041F470014FF0000030BD7FEA645C1ABF27
:10060000194610467FEA655C1CBF0B46024650EA5D
:10061000013406BF52EA033591EA030F41F4002189
:1006200030BD00BF90F0000F04BF0021704730B50F
:100630004FF4806404F132044FF000054FF00001E4
:1006400050E700BF90F0000F04BF0021704730B5A5
:100650004FF4806404F1320410F0004548BF40427A
:100660004FF000013EE700BF42004FEAE2014FEACF
:1006700031014FEA02701FBF12F07F4393F07F4FAA
:1006800081F06051704732F07F4208BF704793F0AD
:100690007F4F04BF41F40021704730B54FF46074C0
:1006A00001F0004521F000411CE700BF50EA0102C3
:1006B00008BF704730B54FF000050AE050EA01026C
:1006C00008BF704730B511F0004502D5404261EBDC
:1006D00041014FF4806404F132045FEA915C3FF41D
:1006E000D8AE4FF003025FEADC0C18BF03325FEABA
:1006F000DC0C18BF033202EBDC02C2F1200300FA6B
:1007000003FC20FA02F001FA03FE40EA0E0021FA8F
:1007100002F11444BDE600BF2B4BD3F8882042F40D
:100720007002C3F888201A6942F010021A61274A41
:10073000136803F00F03062B05D8136823F00F038B
:1007400043F007031360224B1A6842F001021A605B
:1007500000221A611F4A19680A401C491A600A6877
:10076000120705D50A6822F00F0242F007020A605C
:10077000002219499A61DA611A6299621749D962AD
:10078000174919635A639963DA6319645A641968DB
:1007900021F4802119601A664FF0B042D2F8E4309B
:1007A00043F48043C2F8E4300E4B1B681B0C1B045F
:1007B000B3F1005F03D20C4B0122C3F808210B4BAD
:1007C00043F2D2021A60704700ED00E000200052B0
:1007D000004402587FEDF6EA000202020000FF0129
:1007E000800201010010005C0080005100400052B6
:1007F00008B53C22114B4BF680301A60104A1B683A
:10080000116802220A60CA6010220B61C1E901026C
:10081000002001F0BBFE08B100F0C0F84FF4FA7000
:1008200002F00AFA074900204FF4006281F8040838
:1008300001F034FF044B02221A7008BD08000024A6
:100840009C010024C0010024A0010024214B0120B0
:1008500010B51B78022B3BD11F4C01F0CDFB94F857
:100860000438012B15D14FF48071204609F07AFF2E
:10087000002384F80438BFF34F8F184AE11820335F
:10088000B3F5806FC2F86812F8D1BFF34F8FBFF392
:100890006F8F94F80438022B16D14FF480711048F2
:1008A00009F060FF002384F80438BFF34F8F4FF442
:1008B00080630C48094AC11A203BC2F86812FAD179
:1008C000BFF34F8FBFF36F8F012001F085FB002036
:1008D00010BD00BFA0010024C001002400ED00E015
:1008E000C0050024C0090024034B1B78022B04BF61
:1008F000024A82F804387047A0010024C001002495
:10090000044B1B78022B02BF034B012283F80428FF
:10091000704700BFA0010024C0010024022001F0A4
:100920005BBB000000B5002389B01A48079303A9F8
:10093000CDE90533184BD3F8E02042F00402C3F8A8
:10094000E020D3F8E02002F004020092009AD3F8ED
:10095000E02042F00102C3F8E020D3F8E02002F0EA
:1009600001020192019AD3F8E02042F08002C3F81C
:10097000E0204FF48072D3F8E03003F0800302935C
:10098000029B0223CDE9032303F014F909B05DF8BB
:1009900004FB00BF000002580044025808B572B6BC
:1009A000022001F019FBFEE730B59DB04C2200217A
:1009B00009A80BF0CCFA2022002101A80BF0C7FAFD
:1009C000042003F053FE00230093284BDA6A22F040
:1009D0000102DA62DB6A03F001030093244B9A6997
:1009E00042F440429A619A6902F440420092009AAD
:1009F0009A699404FCD54FF480332B2140250224BE
:100A00000C201694CDE909130123CDE90C35CDE96D
:100A10000E330523CDE917340023CDE9190309A8C6
:100A20001B93CDE91244CDE9144503F05BFE08B1F8
:100A3000FFF7B4FF3F2203232146039001A8069548
:100A4000CDE901230823CDE904354FF48063CDE9D6
:100A5000073504F0EBF901460028E9D14FF4802274
:100A600004F0ECF804F038F91DB030BD0004005873
:100A7000004802587FB510220021684640F2011458
:100A80000BF065FA02F056F9012300200394ADF84B
:100A9000003048F21F73CDE90103684602F068F99F
:100AA000464BADF800404FF060546846CDE9014335
:100AB0004FF48073039302F05BF9042002F048F9CD
:100AC0003F4B5A6912F4003211D1BFF34F8FBFF37D
:100AD0006F8FC3F85022BFF34F8FBFF36F8F5A69E8
:100AE00042F400325A61BFF34F8FBFF36F8F344A25
:100AF000536913F4803323D1C2F88430BFF34F8F8E
:100B0000D2F8803043F6E074C3F3C900C3F34E3328
:100B10005B0103EA0406014646EA81750139C2F821
:100B20006052F9D2203B13F1200FF2D1BFF34F8F67
:100B3000536943F480335361BFF34F8FBFF36F8F1B
:100B40004FF480331F4D2C6814F4004415D0013B42
:100B5000F9D1FFF723FF00F079F8FFF7E3FE00F08B
:100B6000ABF8022001F00AFA09F070FCFFF740FE32
:100B700000F052F8FFF76AFEFAE702F01DF8FFF7FF
:100B800013FFD5F8E030204643F00073C5F8E0309D
:100B9000D5F8E03003F000730093009B03F09AF95E
:100BA0002146204603F0A4F94FF48033054A11682A
:100BB0000904D0D4013BFAD1CBE700BF0F000003FA
:100BC00000ED00E0004402580A680020024B1A6061
:100BD0000122024B1A607047DC090024D809002466
:100BE000014B00221A607047200A0024064B07B50B
:100BF00006480093064B06F017F9064B01221A60CF
:100C000003B05DF804FB00BFE10B0008E00900241D
:100C1000C90B0008200A002410B5094C23682BB921
:100C2000084B1B68012B01D106F00EF923682BB18C
:100C3000054B186806F05EFA0023236010BD00BF64
:100C4000D8090024200A0024DC09002413B5164C1E
:100C500006F000F81549202220460BF092F94FF0DB
:100C6000FF3300201249C4E90933C4E90B0006F040
:100C700023F808B1FFF792FE0B4806F0EBF8A26AE2
:100C8000501C04D102B0BDE81040FFF787BE04231A
:100C900001210548CDE90031064B616A0AF066FA88
:100CA0000028EFDB02B010BDE0090024F7D00008F7
:100CB000ED0B0008D409002407B5002309480A4AAF
:100CC000C0E9002305F0AEFC08B1FFF767FE01A9FB
:100CD000044805F0DFFC01980AF0B6FF03B05DF8A8
:100CE00004FB00BF240A00240018024810B5B4B069
:100CF0000446C822002102A80BF029F922680E4BF5
:100D00009A4217D14FF40032002302A8CDE9022302
:100D100004F0F8FA08B1FFF741FE084BD3F8DC20E5
:100D200042F04002C3F8DC20D3F8DC3003F040038B
:100D30000193019B34B010BD0018024800440258D2
:100D40000C4B07B5D3F8F42006217D2042F00202B7
:100D5000C3F8F4200022D3F8F43003F00203019327
:100D6000019B01F093FF7D2003B05DF804EB01F0DF
:100D7000BFBF00BF0044025808B504F0C5F9FEE744
:100D8000FEE7FEE7FEE7FEE770477047704701F0B9
:100D900041BF03F0BDB8002001F0EABC012070475C
:100DA00008B50BF057F9162303604FF0FF3008BD6C
:100DB00008B50BF04FF916230360FEE770B50D463A
:100DC00014460E46731B9C4201DC204670BDAFF3F7
:100DD000008006F8010BF5E770B50D4614460E4687
:100DE000731B9C4201DC204670BD16F8010BAFF36B
:100DF0000080F5E74FF0FF3070474FF400530020BC
:100E00004B60704701207047002070470B4A034633
:100E1000116810B509B90A491160106809490A4CEE
:100E20000344091B8B4206D90BF014F90C23036011
:100E30004FF0FF3010BD1360FCE700BF380A0024FC
:100E4000085703240000082400080000DFF834D00D
:100E5000FFF762FC0C480D490D4A002302E0D4580C
:100E6000C4500433C4188C42F9D30A4A0A4C0023F4
:100E700001E013600432A242FBD30BF0F1F8FFF75C
:100E8000F9FD7047000008240000002470010024D0
:100E900068C001088001002404570324FEE710B451
:100EA00004690089A4465DF8044B604710B4C46827
:100EB0000089A4465DF8044B6047012937B50CBF93
:100EC0004FF40073102300F118050DF10602ADF880
:100ED00006304FF484610223284600F08EFF04465A
:100EE00002230DF1060240F22241284600F085FF60
:100EF0002044003818BF0120404203B030BD00211B
:100F0000FFF7DBBFFFF7FBBF13B501210446ADF8C8
:100F10000610FFF7D2FF68B902230DF1060204F1B3
:100F20001800194600F069FF003818BF0120404240
:100F300002B010BD4FF0FF30FAE773B50E46012145
:100F40000546FFF7BAFF012E044639D018354FF495
:100F500000730DF106024FF48461ADF806302846A7
:100F60000223002600F049FF044402230DF106028B
:100F700040F22241284600F040FF044402230DF1D4
:100F800006022D212846ADF8066000F036FF044425
:100F900002230DF106022E21284600F02EFF044404
:100FA00002230DF106020521284600F026FF044425
:100FB00002230DF106023146284600F01EFF0444CC
:100FC000201E18BF0120404202B070BD0021FFF773
:100FD000B4BF012973B5064615463DD13E2A29D92D
:100FE0000021FFF76AFF40F27F130446ADF8063098
:100FF000183602230DF106021C21304600F0FDFEDA
:10100000044402230DF106021D21304600F0F5FED6
:10101000044402230DF106022621304600F0EDFEC5
:10102000022304440DF106022721304600F0E5FEBC
:10103000204402E03AB9FFF740FF003818BF012012
:10104000404202B070BD45F4A0750021FFF735FFA6
:101050000446ADF80650CBE7183642F480750223FB
:101060000DF106024FF480613046ADF8065000F0F5
:10107000C4FE044602230DF1060240F2014130464F
:1010800000F0BBFE044402230DF1060240F20441CD
:10109000304600F0B2FE022304440DF1060240F295
:1010A0000541C2E745F22263994207B500F11800F5
:1010B0002BD00BD842F61133994224D0B1F57A5F88
:1010C0001DD0B1F5FA5F0DD083230CE04AF64443FE
:1010D00099421CD00F4B994213D0B1F5FA4FF3D17E
:1010E000632300E00323ADF806300DF1060202236E
:1010F0004FF4047100F081FE03B05DF804FB33236C
:10110000F1E7A323EFE71323EDE74323EBE7732393
:10111000E9E700BF0077010037B504460D4654F8F3
:10112000183B98470DF10601204600F07EFEBDF801
:1011300006302B6003B030BD89B2183008B500F01E
:10114000C2FE003818BF0120404208BD002313B57D
:101150000C4618300DF10601ADF8063000F0D3FE54
:1011600058B9BDF80630022B04D0032B02D0012B56
:1011700018BF0346236002B010BD4FF0FF30FAE7FE
:1011800089B2183008B500F070FE003818BF012091
:10119000404208BD13B50C4618300DF1060100F0B1
:1011A00084FE20B9BDF80630236002B010BD4FF0B8
:1011B000FF30FAE7002313B50C4618300DF1060195
:1011C000ADF8063000F043FE20BBBDF806300A2B18
:1011D0000AD8DFE803F0060B090E110914171A09E3
:1011E0001D004FF4FA53236002B010BD42F61133D4
:1011F000F9E74FF47A53F6E745F22263F3E74FF449
:10120000FA43F0E74AF64443EDE74BF68033EAE76A
:10121000024BE8E74FF0FF30E6E700BF0077010040
:101220000021183008B500F0F4FD003818BF012087
:10123000404208BD012913B5144600F118000DF114
:1012400006010CD100F0F6FD90B96422BDF806301D
:1012500053433F22B3FBF2F3237002B010BD00F002
:1012600080FE28B96422BDF806305343EF22F1E72F
:101270004FF0FF30F1E770B5436904460D469847DB
:10128000064663699847831BAB42FAD370BD0000E2
:101290002DE9F04300F1180485B04FF003080F4624
:1012A00002230DF10E024FF4817106462046ADF87F
:1012B0000E8000F0A2FD002305460DF10E0240F65F
:1012C0001701ADF80E302046022300F096FD0223F0
:1012D00005440DF10E024FF48171204600F08DFDA2
:1012E0006C2305440DF10E02ADF80E3039210223B6
:1012F000204600F082FD3B68054413B31323ADF88C
:101300000E3002230DF10E020121204600F075FD82
:10131000322105EB00083046FFF7ADFF7D68012D57
:1013200012D0032D46D0002D70D13B68013B042B19
:1013300000F2D480DFE813F033028F00D501D20031
:101340006D02ADF80E80DCE740F60C430DF10E02A5
:1013500005212046ADF80E30022300F04EFD00239B
:1013600080440DF10E0240F20161ADF80E302046CE
:10137000022300F042FD804402230DF10E0240F2F0
:101380000261204600F039FD02238044ADF80E30A2
:101390000DF10E0240F20461204600F02EFD804463
:1013A00002230DF10E0240F20561204600F025FDFA
:1013B0008044BAE7396840F60F730DF10E02052933
:1013C000ADF80E304FF0020319D1204600F015FDA4
:1013D000804402230DF10E0240F201612046ADF877
:1013E0000E5000F00AFD804402230DF10E0240F27F
:1013F0000261204600F001FD80440223C8E7052178
:10140000204600F0FAFC01238044AAE740F20333AF
:101410000DF10E0205212046ADF80E30022300F03A
:10142000ECFC012380440DF10E0240F20161ADF8A5
:101430000E302046022300F0E0FC022380440DF130
:101440000E0240F20261204600F0D7FC00238044E7
:10145000ADF80E30D1E74FF443630DF10E020421D5
:101460002046ADF80E30022300F0C7FCDB23804499
:101470000DF10E024FF48A61ADF80E3020460223C2
:1014800000F0BBFC4FF4C04380440DF10E02ADF8F8
:101490000E3002232046194600F0AFFC02238044A0
:1014A0000DF10E024FF4C1612046ADF80E3000F090
:1014B000A4FC022380440DF10E0240F20961204693
:1014C00000F09BFC0E2280440223ADF80E206A44FB
:1014D0004FF4E061204600F090FC8044B96830464B
:1014E000FFF7E0FD3B6808EB0005052B40F0E181CC
:1014F00000213046FFF720FE032105443046FFF768
:101500003FFE01210544204600F00BFD0023054469
:101510000DF10E0240F20231ADF80E3020460223EA
:1015200000F06BFC0A2305440DF10E024FF402712A
:10153000ADF80E302046022300F05FFC0123054485
:101540000DF10E02ADF80E304FF40071022320466B
:1015500000F053FC7B680544002B00F08C80022BCC
:1015600040F0BC81D7F80080B8F1000F40F0B681A0
:101570004FF480722D212046DFF83095ADF80E2013
:101580000DF10E02019300F038FC019B05440DF1B2
:101590000E022E21204600F030FC99F80020054470
:1015A000019B012A40F08C814FF401424FF4887175
:1015B0002046ADF80E200DF10E0200F01EFC40F2A8
:1015C0004511054489F800803046FFF754FE00239A
:1015D0000DF10E024FF48461ADF80E300223204667
:1015E0004FF0C00900F009FC054402230DF10E0282
:1015F0004FF4C2612046ADF80E9000F0FEFB0544AA
:1016000002230DF10E0240F2116120464FF0100846
:1016100000F0F3FB054402230DF10E024FF4846148
:101620002046ADF80E8000F0E8FB054402230DF1E2
:101630000E0240F212612046ADF80E9000F0DDFB84
:10164000054402230DF10E0240F21361204600F022
:10165000D4FB054402230DF10E0240F22241204644
:10166000ADF80E8000F0C9FB05443A7C01213046FC
:10167000FFF7AFFC05443B6863B35A1E012A00F232
:10168000D18113230DF10E0201212046ADF80E3059
:10169000022300F0B2FB022305440DF10E024FF4C9
:1016A000C4612046ADF80E3000F0A7FB4FF4605245
:1016B0000544ADF80E2002230DF10E0240F2114157
:1016C000204600F09AFB05443A7C00213046FFF7A3
:1016D00080FC0544281E18BF0120404205B0BDE82B
:1016E000F08311230DF10E0228212046ADF80E30B3
:1016F000022300F082FB352380440DF10E022921E4
:10170000ADF80E302046022300F077FB0223804420
:101710000DF10E022A21204600F06FFB40F2033348
:1017200080440DF10E020421ADF80E302046022354
:1017300000F063FBDB2380440DF10E024FF488615F
:10174000ADF80E302046022300F057FB46F250332E
:1017500080440DF10E02ADF80E30022320461946EA
:1017600000F04BFB022380440DF10E0240F20661B3
:101770002046ADF80E3000F040FB80440DF10E0223
:10178000022340F20761204600F037FB48F20D02C9
:101790008044ADF80E2002230DF10E0298E64FF4BE
:1017A00043730DF10E0204212046ADF80E300223E2
:1017B00000F023FBDB2380440DF10E024FF488611F
:1017C000ADF80E302046022300F017FB46F25033EE
:1017D00080440DF10E02ADF80E300223204619466A
:1017E00000F00BFB022380440DF10E0240F2066173
:1017F0002046ADF80E3000F000FB022380440DF1CE
:101800000E0240F20761204600F0F7FA0D228044F4
:10181000BFE740F63C730DF10E0204212046ADF8FF
:101820000E30022300F0E9FADB2380440DF10E02B2
:101830004FF48A61ADF80E302046022300F0DDFA45
:10184000022380440DF10E024FF48861204600F01F
:10185000D4FA46F2A03380440DF10E02ADF80E30FA
:1018600002232046194600F0C8FA022380440DF1F5
:101870000E0240F206612046ADF80E3000F0BDFACF
:10188000804402230DF10E0240F20761204600F071
:10189000B4FA804402230DF10E024FF4C1612046D8
:1018A00000F0ABFA022380440DF10E0240F2096110
:1018B000A9E7F9683046FFF73FFC022105441DE621
:1018C00048F208124FF488712046ADF80E200DF151
:1018D0000E0200F092FA3221054475E64FF440788A
:1018E00002230DF10E0203212046ADF80E8000F018
:1018F00084FA002305440DF10E022221ADF80E30CA
:101900002046022300F079FA054402230DF10E026D
:101910002321204600F071FA022305440DF10E0246
:1019200036212046ADF80E8000F067FA43F203033B
:1019300005440DF10E020121ADF80E3020460223C0
:1019400000F05BFA3B6805440DF10E02052B4FF0E9
:10195000510120460CBF40F205230523ADF80E309F
:10196000022300F04AFA43F2033305440DF10E025C
:101970000121ADF80E302046022300F03EFA22236A
:1019800005440DF10E026021ADF80E302046022311
:1019900000F033FA49F6257305440DF10E024C218F
:1019A000ADF80E302046022300F027FA0F2105443F
:1019B0003046FFF760FC01230DF10E022D21ADF83A
:1019C0000E302046022300F018FA022305440DF1E0
:1019D0000E022E21204600F010FA4FF44C730544FD
:1019E0000DF10E020321ADF80E302046022300F067
:1019F00004FA332305440DF10E025421ADF80E30E4
:101A00002046022300F0F9F940F201110544304666
:101A1000FFF731FCEE230DF10E026021ADF80E3020
:101A20000223DCE5052B23D113230DF10E02012146
:101A30002046ADF80E30022300F0DFF90223054402
:101A40000DF10E024FF4C4612046ADF80E3000F0E7
:101A5000D4F94FF4C052054402234FF48261ADF82B
:101A60000E2020460DF10E0200F0C7F9054422E6D3
:101A70000B230DF10E0218212046ADF80E30022383
:101A800000F0BBF9022305440DF10E021A21204695
:101A900000F0B3F94FF4C05305440DF10E02ADF858
:101AA0000E304FF4826102230AE600BF0C000024CE
:101AB0000229F7B5064600F1180501D0042976D1B0
:101AC000002702230DF1060201212846ADF8067019
:101AD00000F093F940F2033304460DF106020521AC
:101AE000ADF806302846022300F087F901230444AC
:101AF0000DF1060240F20161ADF8063028460223DE
:101B000000F07BF9044402230DF1060240F2026169
:101B1000284600F072F9044402230DF1060240F257
:101B200004612846ADF8067000F067F9022304440A
:101B30000DF1060240F20561284600F05EF94FF40F
:101B4000807304440DF106022D21ADF806302846BD
:101B5000022300F052F9022304440DF106022E2163
:101B6000284600F04AF94FF4014304440DF10602FF
:101B70004FF48871ADF806302846022300F03DF995
:101B80004FF4967104443046FFF775FB02230DF1C4
:101B900006024FF48461ADF80670284600F02DF976
:101BA0002044003818BF0120404203B0F0BD012995
:101BB00040F0D38040F60C430DF106020521284683
:101BC000ADF80630022300F018F9002304460DF1A9
:101BD000060240F20161ADF806302846022300F00B
:101BE0000CF9044402230DF1060240F2026128467A
:101BF00000F003F9022304440DF1060240F20461EF
:101C00002846ADF8063000F0F8F8022304440DF140
:101C1000060240F205614FF44077284600F0EDF8E7
:101C2000022304440DF1060203212846ADF8067094
:101C300000F0E3F8002304440DF106022221ADF880
:101C400006302846022300F0D8F8044402230DF1A0
:101C500006022321284600F0D0F8022304440DF1A7
:101C6000060236212846ADF8067000F0C6F843F2A9
:101C7000030304440DF106020121ADF806302846A5
:101C8000022300F0BAF8052304440DF106025121A5
:101C9000ADF806302846022300F0AFF843F20333D4
:101CA00004440DF106020121ADF806302846022356
:101CB00000F0A3F8222304440DF106026021ADF8E0
:101CC00006302846022300F098F849F625730444AC
:101CD0000DF106024C21ADF806302846022300F033
:101CE0008CF80F2104443046FFF7C5FA01230DF1AB
:101CF00006022D21ADF806302846022300F07DF8BB
:101D0000022304440DF106022E21284600F075F846
:101D10004FF44C7304440DF106020321ADF8063074
:101D20002846022300F069F8332304440DF106022B
:101D30005421ADF806302846022300F05EF840F248
:101D4000011104443046FFF796FAEE230DF1060226
:101D50006021ADF8063002231FE740F60F730DF146
:101D6000060205212846ADF80630022300F045F8AA
:101D7000012304460DF1060240F20161ADF8063080
:101D80002846022300F039F8022304440DF106022C
:101D900040F20261284600F030F8022304440DF1BD
:101DA000060240F20461ADF8063034E790B14A68AB
:101DB0000B6842600A8903600281CA68C2600A69CE
:101DC00002614A6900624261044AC261044A826156
:101DD00003B118474FF0FF30704700BF9F0E000857
:101DE000AD0E000838B5D0E901501446A8470028C8
:101DF00002DB23885BBA238038BD128852BA13B540
:101E00000468ADF806200DF106028068A04702B014
:101E100010BD07B50223ADF806100DF10602002132
:101E2000FFF7EBFF03B05DF804FB0A460223002135
:101E3000FFF7D8BF10B50A460C4602231C21FFF756
:101E4000D1FF18B9238803F03F03238010BD10B5DC
:101E50000A460C4602234FF40471FFF7C3FF18B97A
:101E60002388C3F30313238010BD002337B50D4629
:101E7000ADF806300DF1060202234FF4407104461E
:101E8000FFF7B0FF78B9BDF806300DF10602204625
:101E900023F0180343EAC5010223ADF806104FF4FE
:101EA0004071FFF7AAFF03B030BD10B50A460C46DB
:101EB00002234FF44071FFF795FF18B92388C3F34D
:101EC000C103238010BD002337B50D46ADF80630A1
:101ED0000DF1060202234FF440710446FFF782FF22
:101EE00078B9BDF806300DF10602204623F06003F4
:101EF00043EA45110223ADF806104FF44071FFF795
:101F00007CFF03B030BD10B50A460C4602234FF4E7
:101F10004071FFF767FF18B92388C3F3411323808B
:101F200010BD002337B50D46ADF806300DF10602A1
:101F300002234FF440710446FFF754FF78B9BDF80F
:101F400006300DF10602204623F4804343EA853132
:101F50000223ADF806104FF44071FFF74EFF03B0B7
:101F600030BD10B50A460C4602234FF48061FFF7DE
:101F700039FF08B92378238010BD0000134BD3F834
:101F8000E02042F4807230B5C3F8E02089B0D3F885
:101F9000E030012403A903F480730293029B0C4BED
:101FA00053F82050032306930A4B039553F820005F
:101FB000CDE90444019001F0FDFD01982246A9B24B
:101FC00001F082FF002009B030BD00BF004402587C
:101FD0000CD100081CD1000808B5054B002233F8CD
:101FE0002010044B53F8200001F06EFF002008BDC4
:101FF0000CD100081CD1000808B5054B012233F8AC
:102000002010044B53F8200001F05EFF002008BDB3
:102010000CD100081CD1000810B5342388B0184C2E
:10202000ADF8103002A9174B20460293164B0393CC
:10203000164B0693164B0593164B0793FFF7B6FE08
:10204000C0B92046FFF7ECF818B16FF0040008B0F3
:1020500010BD01A92046FFF75FF80028F5D1019ACD
:1020600048F694139A4208D10B4B0C4A1A600C4B59
:102070001C60ECE76FF00700E9E76FF00600E6E7A9
:102080008C0A00244D280008B9270008352B0008C9
:10209000012B0008692B0008400A002410000024CE
:1020A0003C0A00242DE9F041CB4C96B010260027C5
:1020B000D4F8F030054611A9C84843F48003C4F8A9
:1020C000F030D4F8F03003F480030093009BD4F890
:1020D000E03043F01003C4F8E030D4F8E03003F00F
:1020E00010030193019BD4F8E03043F01003C4F8CF
:1020F000E030D4F8E03003F010030293029BD4F8F0
:10210000E03043F01003C4F8E030D4F8E03003F0DE
:1021100010030393039B0223CDE9116303230626D7
:10212000CDE91373159601F045FD202311A9AB48A5
:102130001193159601F03EFD402311A9A748119374
:10214000A74F159601F036FD2B68BB4200F09C802E
:10215000A44B93F89130012B12D0D4F8E03011A9A0
:10216000A14843F04003C4F8E030D4F8E0301596BD
:1021700003F040030493049B8023119301F01AFDA4
:102180002A689A4B9A427BD1934C4FF070080026F4
:1021900011A9D4F8F030914843F48003C4F8F0302A
:1021A000D4F8F03003F480030593059BD4F8E030B5
:1021B00043F01003C4F8E030D4F8E03003F010032B
:1021C0000693069B0223CDE9118306234FF00308F3
:1021D0001593CDE9136801F0EDFCD4F8E03011A9B6
:1021E000814843F04003C4F8E030D4F8E03003F015
:1021F00040030793079B8023119301F0DBFCD4F885
:10220000D8304FF4807143F00203C4F8D830D4F8CA
:10221000D830774C03F002032046C5F8804008937D
:10222000089B744BE660DB68A563102B15BF4FF469
:1022300080524FF400624FF480434FF40053C4E9DE
:102240000523572363604FF4806323614FF4003309
:10225000C4E907130423C4E909384023A360664B8B
:10226000C4E90B66236001F0E1F8204600F03EFF70
:10227000392032460E2100F009FD392000F038FDEA
:102280002B68BB4240F08980534C0227002611A9DD
:10229000D4F8F430514843F40013C4F8F430D4F8BF
:1022A000F43003F400130993099BD4F8E03043F0B1
:1022B0001003C4F8E030D4F8E03003F010030A93C0
:1022C0000A9BD4F8E03043F00403C4F8E030D4F8BB
:1022D000E03003F004030B930B9B0423CDE911378B
:1022E0000A23CDE91367159301F064FC012311A9BA
:1022F00042481197CDE9133301F05CFCD4F8E0308B
:1023000011A9364843F01003C4F8E030D4F8E030A7
:1023100003F010030C930C9B3023CDE911370823F5
:10232000CDE91367159301F045FCD4F8E0304FF484
:10233000806C4FF4005E0F2743F40013C4F8E030C4
:10234000D4F8E0302E4C03F400132046C5F8844046
:102350000D930D9B4FF40063E6602663A563C4E90B
:1023600004C34FF48073C4E906E34FF40033C4E9B7
:1023700008360323C4E90A36224BC4E901762360F8
:1023800001F054F8204600F0B1FE82203246394672
:1023900000F07CFC822000F0ABFC2A681A4B9A42C9
:1023A00079D10D4C0026082211A9D4F8F0300B4841
:1023B00043F48003C4F8F030D4F8F03003F4800321
:1023C0000E930E9BD4F8E03043F01003C4F8E030D5
:1023D000D4F8E0301AE000BF004402580010025860
:1023E00004540058B40A002400180258045801404C
:1023F0005C0C0024440A002428040240000802580F
:10240000E40B00241C5402582458014003F010032C
:102410000F930F9B0223CDE91123CDE9136306230C
:10242000159301F0C7FBD4F8D8304FF480614FF416
:10243000005043F00203C4F8D830D4F8D830174C19
:1024400003F00203C5F884401093109B5823E66004
:102450002663A563C4E901364FF40063C4E904139D
:102460004FF48073C4E906034FF400332046C4E9F7
:1024700008360323C4E90A36094B236000F0D6FF6F
:10248000204600F033FE3C2032460F2100F0FEFBD8
:102490003C2000F02DFC16B0BDE8F081E40B0024D8
:1024A000700402400268136823F4803310B513608F
:1024B0000446CB688A68C3620B6803624B6843605A
:1024C0000023C0E912230A69836102654A694364F3
:1024D00082608A6942610122C261CA69036180F82F
:1024E0003830C260C0E90C33C0E90933C0E90F33AA
:1024F0000A6A42654A6AC36682654FF48032C0E95F
:1025000017234FF48022C0E91923042303678B6A41
:10251000436704F029F922680038136818BF0120C6
:1025200043F48033136010BD10B5B2B00C4668465A
:1025300003F01AFC42F611339C4222D045F222638A
:102540009C421ED04AF644439C4240F2AD130EBF5B
:10255000262207224FF4AC736846CDE903324FF4CC
:1025600080720023CDE9002301231793CDE90533C1
:102570001923029302F0C6FE003818BF012032B0C2
:1025800010BD262240F2AD13E6E7000001282DE938
:10259000F041054690B00C466CD824223A4E0968AA
:1025A0004243B318B050626859609A60A268DA601A
:1025B000E2685A6122691A610022DA61FFF72CFD94
:1025C00000285AD1DFF8D08061684046FFF7ACFFA1
:1025D0000746002854D12D4B4046C8F80030FFF77D
:1025E00061FD6368802140460C97CDE905370123E2
:1025F0000993E3685A1E534253411B030893A3688F
:10260000202B0CBFE023802307934023CDE90D133B
:102610004FF4005305A9CDE90A7305230F93FFF783
:1026200041FF20BBA36869460090202B0CBF032309
:102630000023039363680293236801932369642B47
:102640009BBFC3EB831364223F23B3FBF2F30493DA
:102650000F4B104A1B6810681B68984768B9242301
:1026600003FB05660223F36110B0BDE8F0816FF053
:102670000300F9E76FF00100F6E76FF00400F3E7FD
:102680006FF00800F0E700BF440A0024045801403E
:10269000400A00243C0A00244C0B0024012810B5F9
:1026A0001DD82423144C03FB0044E368DB08B2FB71
:1026B000F3F2B2F5803F12D2E36933F0020311D195
:1026C00092B20E4804F00EFA78B90D4B0D4A1B6811
:1026D0001068DB68984758B90123E36110BD6FF0BB
:1026E0000100FBE76FF00200F8E76FF00300F5E789
:1026F0006FF00400F2E700BF440A00244C0B0024F2
:10270000400A00243C0A0024012838B505460C463E
:1027100025D8144A6429144B10689CBFC1EB811260
:1027200064211B6888BF3F225B6A98BFB2FBF1F24D
:102730004FF0010198BFD2B298470C4A60B92423E8
:1027400003FB052334B901219961242303FB0522EE
:10275000146138BD9861F8E76FF00400F5E76FF099
:102760000100F6E73C0A0024400A0024440A002441
:1027700020B9034BD3F8800001F04CB8704700BF7C
:102780004C0B0024002008B5FEF7AEF808BD002071
:1027900008B5FEF7B5F808BD7047000002680020D4
:1027A00008B5044B9A4202D1FEF7B8F808BDFFF70E
:1027B000F3FFFBE704580140104A08B51368013BDA
:1027C00013600BB1002008BD4FF480510C4801F09C
:1027D000DBFA0B484FF4005101F0D6FA094A0A48D7
:1027E000D2F8F43023F08003C2F8F43001F01CFD7D
:1027F0000028E7D06FF00700E5E700BFD40C002405
:10280000000C025800440258DC1600240023012268
:1028100010B5416004460362C0E90232C0E90433E6
:10282000C0E9063301F0AEFC014608B1012010BD3D
:10283000204601F0D0FE01460028F7D1204601F0E5
:10284000F0FE003818BF0120F1E70000A44BA548B6
:102850002DE9F04F036093B0A34B1C68002C40F0AF
:10286000CF8001221A6001F0B1FE002840F0C8803C
:102870009E4D4FF0120802270426D5F8E0300DA92E
:102880009B4843F00803C5F8E030D5F8E03003F08A
:1028900008030A930A9BD5F8E03043F00803C5F813
:1028A000E030D5F8E0300F9403F008030B930B9B56
:1028B0004FF48053CDE91076CDE90D3801F07AF967
:1028C0004FF400530DA98A481196CDE90D38CDE992
:1028D0000F4701F06FF9D5F8F43043F08003C5F8E5
:1028E000F430D5F8F43003F080030C930C9BD5F84A
:1028F0009C3043F08003C5F89C30D5F89C3023F021
:102900008003C5F89C3002F0EBFB002872D0794BB5
:1029100040F6F6162246A14603EB50034FF0100A8C
:10292000DFF8D8B1B3FBF0F06FF01D0300EB40050A
:10293000A6EB800601465B1B26EAE67623EAE373F4
:1029400000936D4B1B6888464FF0000C40F27935C0
:10295000CDF804C00CF1010CA8455ED90027BE4695
:10296000009DBD4253D8BE4251D392454FD014254D
:1029700005FB03FA0133019D0BEB0A097F2B4BF892
:102980000A20C9E9015E3FD95B4A13605A4B42F203
:1029900010725A4900271B6803924FF0FF320593CB
:1029A0004300019203F13205C3F5905BA3F5115387
:1029B0000BF10C0B09950A3B0293059B9F4238D102
:1029C000019B7F2B16D81421019A4C4B4A4399182E
:1029D0009B580C7C44EA03744B681B0503F470039A
:1029E0001C438B681B0403F470231C43CB681B023D
:1029F0009BB21C4321463B48FFF708FF00286CD1DF
:102A0000002013B0BDE8F08F92464FF001090EF19F
:102A1000010E0F44BEF1100FA2D1BCF1100F88447B
:102A200094D101320144102A8DD1B9F1000FABD1FC
:102A3000ACE70B684FF0000C099D03FB0003029EFE
:102A40001D441E440495ABEB030508966D000095EC
:102A5000049D41F25C22CDF818C0A5F132060CF1BC
:102A6000010C95422ED9B0EB960F2BD2089E4FF059
:102A7000000EDDF810802E44DDF8009006F2836A27
:102A800041F24702CDF81CE00EF1010E924512D83A
:102A9000B8F57A6F0FD340450DD236EA260A28BF23
:102AA000CA46039A924506D2069ACDF80CA00A614E
:102AB000079A0197CA60BEF5807F1E44A9EB0309FF
:102AC0009844DBD1009ABCF5807F1D44A2EB030241
:102AD0000092BED1013714316FE76FF0070090E725
:102AE000001C0058DC160024D40C002400440258BA
:102AF000000C025800CA9A3BD8160024D80C0024B7
:102B00001FB54FF47A7400920A4601460848CDE991
:102B10000134022301F0A2FB40B1054801F059FD48
:102B200004280CBF6FF065006FF0030004B010BD07
:102B3000DC1600241FB54FF47A7400920A46014651
:102B40000848CDE90134022301F062FC40B1054898
:102B500001F03FFD04280CBF6FF065006FF003002B
:102B600004B010BDDC16002400F060B838B50F4B7F
:102B700005461A780AB9012038BD4FF47A73B3FBC1
:102B8000F2F30B4A1068B0FBF3F000F0BFF8044614
:102B90000028F0D10F2DEED8024629464FF0FF3025
:102BA00000F074F8034B20461D60E5E75800002450
:102BB000000000245C00002410B5032000F054F84D
:102BC00002F092F80F49104A8B69C3F30323D35CD8
:102BD00003F01F03D8408B6903F00F03D35C0B4A4B
:102BE00003F01F0320FA03F31360094B1860002061
:102BF000FFF7BCFF044618B9FEF7A2F8204610BD47
:102C00000124FBE700440258E7D000080400002438
:102C100000000024034A044B11681B780B44136026
:102C2000704700BF3017002458000024014B18687B
:102C3000704700BF3017002438B50446FFF7F6FF91
:102C40000546631C1EBF044B1B78E418FFF7EEFF1C
:102C5000431BA342FAD338BD58000024014B186827
:102C6000000C70470010005C07490302CA6803F4B7
:102C7000E06322F4E0621204120C134343F0BF63DA
:102C800043F40033CB60704700ED00E0164B30B5E5
:102C9000DC68C4F30224C4F10703251D042B28BFFC
:102CA0000423062D4FF0FF358CBF033C002405FAAA
:102CB00003F3002805FA04F521EA030322EA0502DA
:102CC00003FA04F343EA02034FEA0313DBB206DB21
:102CD00000F1604000F5614080F8003330BD00F045
:102CE0000F00024A1354F9E700ED00E014ED00E094
:102CF000002807DB0123410900F01F00024A83403E
:102D000042F82130704700BF00E100E00138B0F127
:102D1000807F0BD24FF0E023054AF021586100205C
:102D200082F82310072298611A61704701207047CA
:102D300000ED00E0BFF35F8F044B5A6A22F480324B
:102D40005A620022C3F89420704700BF00ED00E0F3
:102D5000064B40F00100C3F894005A6A42F48032F6
:102D60005A62BFF34F8FBFF36F8F704700ED00E0E3
:102D70004378144A10B5C2F898300178E9B1436835
:102D8000C2F89C30C37A047B1B0643EA04730B43EE
:102D9000817A43EAC143417B43EA8143817B43EA31
:102DA0004143C17B43EA0143417A43EA0123017A6B
:102DB00043EA4103C2F8A03010BDC2F89C10C2F82B
:102DC000A010F9E700ED00E0F0B5DFF87CC1046881
:102DD000876D644545D0594DAC4242D01835AC4260
:102DE0003FD01835AC423CD01835AC4239D01835FC
:102DF000AC4236D01835AC4233D01835AC4230D066
:102E000005F55675AC422CD01835AC4229D0183592
:102E1000AC4226D01835AC4223D01835AC4220D075
:102E20001835AC421DD01835AC421AD01835AC421A
:102E300017D0434DAC4214D01435AC4211D01435E8
:102E4000AC420ED01435AC420BD01435AC4208D095
:102E50001435AC4205D01435AC4202D01435AC4226
:102E600067D1D0E919566E60C56E15B1D0E91C5610
:102E70006E60644537D0314DAC4234D01835AC4229
:102E800031D01835AC422ED01835AC422BD0183585
:102E9000AC4228D01835AC4225D01835AC4222D0EF
:102EA00005F55675AC421ED01835AC421BD018350E
:102EB000AC4218D01835AC4215D01835AC4212D0FF
:102EC0001835AC420FD01835AC420CD01835AC4296
:102ED00009D01B4DAC4217D1C56D05F01F06012569
:102EE000B5407D6009E0C56D05F01F063F25B54082
:102EF000BD60256825F48025256063608368402BCC
:102F000018D1A260E16014E00E4DAC42E4D014355B
:102F1000AC42E1D01435AC42DED01435AC42DBD04B
:102F20001435AC42D8D01435AC42D5D01435AC42AF
:102F3000D2D0F0BDA160E260FBE700BF28000240F4
:102F4000085402581C540258100002400368234AD7
:102F5000934210B532D0183293422FD01832934298
:102F60002CD01832934229D01832934226D01832EE
:102F7000934223D01832934220D0183293421DD06E
:102F800002F55672934219D01832934216D0183275
:102F9000934213D01832934210D0183293420DD07E
:102FA000183293420AD01832934207D01832934213
:102FB00004D023F0FF038365184610BDDAB2182150
:102FC000074C23F47F73103A23F003035F2AB2FB0C
:102FD000F1F1615C88BF0433C165ECE71000024089
:102FE0002CD1000802682149D3B28A4228D014317A
:102FF0008A4225D014318A4222D014318A421FD00D
:1030000014318A421CD014318A4219D014318A42B8
:1030100016D014318A4213D01821103BB3FBF1F3C0
:1030200013491144A8291ED903F18052012103F04C
:103030001F0302F5024201FA03F30E4992000EE06B
:103040001422083B0121B3FBF2F303F1B05203F069
:103050001F0302F5164201FA03F307499200836643
:10306000C0E9182170470833DEE700BF0854025852
:10307000F0FBFDBF80080240805802580279511EC3
:10308000072910B521D80368134CA3421ED014346D
:10309000A3421BD01434A34218D01434A34215D039
:1030A0001434A34212D01434A3420FD01434A342D8
:1030B0000CD01434A34209D0084B1344084A9B0097
:1030C000C0E91B3201238B40436710BD054B1344FD
:1030D000054A9B00F4E700BF085402583F820010E5
:1030E000400902403F96001640590258F8B5044680
:1030F000FFF79CFD0646002C00F0CC802368734D42
:10310000AB426AD0724A934267D01832934264D07D
:103110001832934261D0183293425ED018329342F3
:103120005BD01832934258D01832934255D002F5F2
:103130005672934251D0183293424ED01832934275
:103140004BD01832934248D01832934245D01832AF
:10315000934242D0183293423FD0183293423CD02F
:103160005C4A934240F037810222A16884F83520FE
:103170000022402984F83420186820F4FF3020F41D
:10318000F87000F04681A1F180025142514189035B
:10319000D4E90362D20842EAD602666942EAD6025C
:1031A000A66942EAD602E66942EAD602266A42EAFD
:1031B0001612024320461143474A19601A44142349
:1031C000B2FBF3F29200E265FFF7C0FEE36D03F09D
:1031D0001F0201239340436094E0022284F83520CB
:1031E000002284F834201A6822F001021A60226852
:1031F0001368DF0744D413683848A1691840D4E93C
:10320000023633432669334366693343E6690B4329
:103210003343266A3343666A042E43EA000302BF3F
:10322000D4E90B07384303432D480068000C000421
:10323000B0F1005F0ED36068A0F12907052F07D910
:103240003F38132806D8274F27FA00F0C00701D5CA
:1032500043F480131360042E536923F0070343EAF9
:10326000060345D1A06AE66A0343002E40D099B90F
:10327000012821D030F002013AD1F10138D51EE009
:10328000FFF7D4FC801B0528B1D9202363650323F5
:1032900084F83530012017E0B1F5005F24D1032810
:1032A00026D801A151F820F0BF3200087B32000877
:1032B000BF320008B9320008B6F1C07F18D14023F0
:1032C0000120636584F83500F8BD00BF100002409E
:1032D0002800024008540258F8ABFDA73F8010FEBA
:1032E0000010005C0F030F000228E8D90328C4D0A7
:1032F00053612046FFF72AFEE36D03F01F023F23D0
:10330000934083602368AB4245D0454A934242D004
:10331000183293423FD0183293423CD01832934235
:1033200039D01832934236D01832934233D0183203
:10333000934230D002F5567293422CD01832934209
:1033400029D01832934226D01832934223D0183213
:10335000934220D0183293421DD0183293421AD093
:103360001832934217D02F4A934214D0143293420A
:1033700011D0143293420ED0143293420BD0143237
:10338000934208D01432934205D01432934202D0B3
:103390001432934219D120460025FFF723FEA3687B
:1033A000226E802B04BF002363606368D9B2013BA7
:1033B0001160072BD4E9192151602CD8FFF75EFE6C
:1033C000E36E1D60D4E91C325A6000200123606561
:1033D00084F8353078E7144A93423FF4C5AE14328E
:1033E00093423FF4C1AE143293423FF4BDAE143267
:1033F00093423FF4B9AE143293423FF4B5AE143267
:1034000093423FF4B1AE143293423FF4ADAE402349
:103410003CE71021BCE6C4E91B556567D5E700BF52
:1034200028000240085402581C54025810B50446A3
:1034300008B9012010BD036865498B422DD0654A4B
:1034400093422AD01832934227D01832934224D084
:103450001832934221D0183293421ED01832934230
:103460001BD01832934218D002F55672934214D0F2
:103470001832934211D0183293420ED01832934230
:103480000BD01832934208D01832934205D018322C
:10349000934202D0183293423DD11A688B4222F0F7
:1034A00001021A604ED1002220461A605A609A60CA
:1034B000DA601A6121225A61FFF748FDE36D03F0DB
:1034C0001F023F23934083602046FFF78BFD236E4E
:1034D00023B100221A60D4E919325A606368013BB3
:1034E000072B08D82046FFF7C9FDE36E00221A60BB
:1034F000D4E91C325A6000206065606784F83500AA
:1035000084F83400C4E91B00C4E90F00C4E91100C9
:10351000C4E913008EE71A6822F001021A602E4AED
:1035200093423ED1002220461A605A609A60DA60C7
:103530001A61FFF70BFDE36D03F01F0201239340B7
:103540004360C1E7234A9342ADD018329342AAD0D8
:1035500018329342A7D018329342A4D01832934223
:10356000A1D0183293429ED0183293429BD002F5DC
:103570005672934297D01832934294D018329342A5
:1035800091D0183293428ED0183293428BD0183299
:10359000934288D01832934285D01832934282D019
:1035A000BDE70E4A9342BDD014329342BAD01432D2
:1035B0009342B7D014329342B4D014329342B1D074
:1035C00014329342AED0143293427FF432AFA9E763
:1035D0001000024028000240085402581C540258AF
:1035E00070B5002800F00A8190F83440012C00F0FA
:1035F0000781012490F83550A54280F834404FF0FF
:10360000000540F0F680022480F8354004684565E6
:103610007C4DAC421ED07C4EB4421BD01836B44216
:1036200018D01836B44215D01836B44212D0183615
:10363000B4420FD01836B4420CD01836B44209D078
:1036400006F55676B44205D01836B44202D0183684
:10365000B442FFD0266826F001062660FFF7B4FBCF
:10366000AC42026C53D0684B9C4250D018339C4201
:103670004DD018339C424AD018339C4247D018335F
:103680009C4244D018339C4241D018339C423ED0D7
:1036900003F556739C423AD018339C4237D0183306
:1036A0009C4234D018339C4231D018339C422ED0E7
:1036B00018339C422BD018339C4228D018339C429C
:1036C00025D0236823F00E0343F00A032360002A69
:1036D00056D14E4B9C4227D04D4B9C4224D01433A4
:1036E0009C4221D014339C421ED014339C421BD0E8
:1036F00014339C4218D014339C4215D014339C428E
:1037000012D02368002043F00103236070BD2368BA
:1037100023F01E0343F0160323601AB1236843F01D
:1037200008032360AC4230D1036E1A68D2035BD425
:10373000C36E1BB11A6842F480721A60AC42E0D0CA
:10374000314B9C42DDD018339C42DAD018339C4276
:10375000D7D018339C42D4D018339C42D1D01833E0
:103760009C42CED018339C42CBD003F556739C427A
:10377000C7D018339C42C4D018339C42C1D0C0E794
:10378000236843F004032360A3E71F4B9C42CBD084
:1037900018339C42C8D018339C42C5D018339C4281
:1037A000C2D018339C42BFD018339C42BCD01833CF
:1037B0009C42B9D003F556739C42B5D018339C4255
:1037C000B2D018339C42AFD018339C42ACD01833DF
:1037D0009C42A9D018339C42A6D018339C42A3D057
:1037E00018339C42A0D074E71A6842F480721A60C1
:1037F0009EE74FF4006380F834504365012085E76D
:10380000022083E7100002402800024008540258BA
:103810001C54025800232DE9F34101930446844BC4
:10382000844F1E680368856DBB42D5F80080D5F8CB
:1038300000C047D0804A934244D01832934241D0CE
:10384000183293423ED0183293423BD01832934202
:1038500038D01832934235D01832934232D002F524
:10386000567293422ED0183293422BD01832934284
:1038700028D01832934225D01832934222D01832E1
:1038800093421FD0183293421CD01832934219D061
:103890006A4A934240F03481E16D04201A6801F0D5
:1038A0001F01884010EA0C0F00F05181560740F1CB
:1038B0004E811104686040F14281D30300F14581DB
:1038C000A36CA0E0E26D082102F01F02914011EA12
:1038D000080F0BD01868400708D5186820F00400BE
:1038E0001860A960616D41F00101616528FA02F17B
:1038F000C80709D55969090606D501219140A96073
:10390000616D41F0020161650421914011EA080FE7
:1039100007D01868800704D5A960616D41F00401E3
:103920006165102101FA02F212EA080F0FD019683E
:1039300009070CD5AA601A6850036CD51B681903D7
:1039400001D4236C00E0A36C0BB120469847E26DD4
:10395000202102F01F02914011EA080F7AD023685B
:10396000BB422DD0344883422AD01830834227D01E
:103970001830834224D01830834221D0183083423B
:103980001ED0183083421BD01830834218D000F567
:103990005670834214D01830834211D018308342BD
:1039A0000ED0183083420BD01830834208D0183024
:1039B000834205D01830834202D01830834232D17E
:1039C000186810F0100F45D0A96094F8351004293C
:1039D00036D1196821F016011960596921F080016A
:1039E0005961216C09B9A16C19B1196821F008015C
:1039F00019603F239340AB60012384F835300023E6
:103A000084F83430236D002B00F09680204602B0FD
:103A1000BDE8F04118471A68D20592D41A6822F01E
:103A200008021A608DE7186810F0020FCBE700BF9C
:103A300000000024100002402800024008540258F0
:103A40001A6855034DD51B68180357D4636C0BB126
:103A500020469847636D002B6ED0636DD9073ED525
:103A6000042384F835302368BB421ED04E4A93426B
:103A70001BD01832934218D01832934215D0183206
:103A8000934212D0183293420FD0183293420CD086
:103A90001832934209D002F55672934205D018327B
:103AA000934202D018329342FFD01A6822F00102EA
:103AB0001A604FF41652B6FBF2F6019A0132B24286
:103AC000019202D81A68D207F7D41B68DF074CBFEF
:103AD0000323012384F83530002384F83430E36C69
:103AE00091E71A6812F4807208D1196821F0100168
:103AF0001960012384F8342084F83530E36BA6E79D
:103B00002A4A93423FF4C8AE143293423FF4C4AE03
:103B1000143293423FF4C0AE143293423FF4BCAE31
:103B2000143293423FF4B8AE143293423FF4B4AE31
:103B3000143293423FF4B0AE02B0BDE8F081970674
:103B400003D41A6822F004021A60236C5BE7022097
:103B5000884010EA0C0F16D0960714D56860100440
:103B600003D5D1030DD4636C4DE712F0200208D1C8
:103B7000196821F00A011960012384F8342084F8BF
:103B80003530E36B3FE70820884010EA0C0FD3D0B4
:103B90001207D1D51A6822F00E021A60012303FA27
:103BA00001F16960636595E7280002401C540258E2
:103BB000406D70472DE9F74F0023DFF8C8914FF0B3
:103BC000B0440A6832FA03F502D103B0BDE8F08FC1
:103BD0004FF0010E0EFA03FE1EEA020200F0BC8056
:103BE0004E684FEA43084FF0030C06F003050CFA49
:103BF00008FC6F1E6FEA0C0C012F34D8876807EAA7
:103C00000C0ACF6807FA08F747EA0A07876047688F
:103C100027EA0E0EC6F300179F4047EA0E074760DB
:103C2000C768022D07EA0C0E8F6807FA08F747EA03
:103C30000E07C76019D14FEAD30A03F0070B4FF004
:103C40000F0E00EB8A0A4FEA8B0BDAF820700EFA9F
:103C50000BFE27EA0E0E0F6907FA0BF747EA0E076D
:103C6000CAF8207001E0032DDAD1076805FA08F5DB
:103C700016F4403F07EA0C0745EA070505606BD0DC
:103C8000D9F8F45023F0030703F0030C45F00205C4
:103C900007F1B0474FEA8C0CC9F8F45007F580677C
:103CA000D9F8F45005F002050195019D0F25D7F8CC
:103CB00008E005FA0CF52EEA050E314DA8424DD06C
:103CC00005F58065A8424BD005F58065A84249D02E
:103CD00005F58065A84247D005F58065A84245D026
:103CE00005F58065A84243D005F58065A84241D01E
:103CF00005F58065A8423FD005F58065A8423DD016
:103D000005F58065A8420CBF09250A2505FA0CF5C2
:103D100016F4801F45EA0E05BD606FEA02072568AC
:103D20000CBF3D40154316F4001F256065680CBFAD
:103D30003D40154316F4003F6560D4F884500CBF35
:103D40003D401543F603C4F88450D4F8805054BF66
:103D50003D401543C4F88050013332E70025D5E7D4
:103D60000125D3E70225D1E70325CFE70425CDE7D9
:103D70000525CBE70625C9E70725C7E70825C5E7D9
:103D800000000258004402582DE9F04F0022DFF8ED
:103D90002881DFF82891DFF828A1DFF828B131FA6F
:103DA00002F301D1BDE8F08F012303FA02FC1CEA03
:103DB00001066BD022F0030402F003070F253D4BF0
:103DC00004F1B044BF00984205FA07F5D4F808E4BE
:103DD00004F5806405EA0E0E5AD003F5806398421C
:103DE00058D003F58063984256D003F5806398421B
:103DF00054D003F58063984252D0404552D0484594
:103E000052D0504552D0584552D003F5A053984255
:103E10000CBF09230A23BB40734519D14FF0B043AF
:103E2000D3F8807027EA0607C3F88070D3F884704F
:103E300027EA0607C3F884705F6827EA06075F6011
:103E40001F6827EA06071F60A36823EA0503A3602B
:103E500055000323046802F00707AB400F26BF009C
:103E60001C43BE400460D40800EB8404256A25EAA4
:103E700006052562C46824EA0304C460446824EA91
:103E80000C044460846824EA03038360013286E7FB
:103E90000023C0E70123BEE70223BCE70323BAE700
:103EA0000423B8E70523B6E70623B4E70723B2E700
:103EB0000823B0E700000258001402580018025806
:103EC000001C0258002002580AB1816170470904A1
:103ED000FBE70000044B203053F82000034BC01ACE
:103EE00018BF0120704700BF006402580003008023
:103EF00041F44071014B43F82010704700640258B0
:103F0000024A136818431060704700BF00650258EA
:103F100008B5054BD8681A6822EA00021A60586092
:103F200002F090FE08BD00BF0065025803689A6960
:103F3000910701D500229A629A69D20703D49A693F
:103F400042F001029A61704730B5039DC1F3090147
:103F500004682B43606843EA0243054A0B4342EA84
:103F6000555223F0004320EA02000343636030BD52
:103F7000FF63FF0303682DE9F0419C6905460F4686
:103F8000164614F010046FD000241022A046DA6107
:103F90002B689A69900661D4B8F1000F35D044F0CF
:103FA000040401202E68B369D90505D54FF4807249
:103FB00044F001040120F2615A0505D54FF48062F6
:103FC00044F008040120F2619B054FD54FF40073C3
:103FD00044F00204F3612846FFF7A8FF736801204C
:103FE00023F0FF7323F48B3323F4FF7323F00103D7
:103FF00073606B6C23436B64202385F8413000238E
:1040000085F8423085F8403032E07A1CC1D0FEF7A6
:104010000DFE801BB84201D8002FB9D12B6859681A
:1040200095F842209869D2B200040AD5490408D410
:10403000202A06D05A6842F480425A60FEF7F6FD04
:1040400006462B689B699B06A2D4FEF7EFFD801BFA
:104050001928F6D920244FF0010899E7B8F1000F8C
:104060009DD12022DA619AE720469BE70028B2D151
:10407000BDE8F08170B504460D46164623689B697D
:104080009B0701D5002070BD324629462046FFF728
:1040900071FFC0B96A1CF1D0FEF7C8FD801BA842B1
:1040A00001D8002DEAD123689B6913F00203E5D102
:1040B000626C84F8403042F020026264202284F86E
:1040C000412084F842300120DDE72DE9F041069FD0
:1040D0000446884616461D462268936938EA03035B
:1040E0000CBF01230023B34201D000201EE06B1C53
:1040F000F3D0FEF79BFDC01BA84201D8002DEBD1E9
:1041000023689B6938EA03030CBF01230023B342F1
:10411000E2D1636C012043F020036364202384F820
:104120004130002384F8423084F84030BDE8F0810B
:1041300070B504460D46164623689B699B0601D55B
:10414000002070BD324629462046FFF713FFB0B964
:10415000FEF76CFD801BA84201D8002DECD123682E
:104160009B6913F02003E7D1626C84F8403042F081
:1041700020026264202284F8412084F84230012029
:10418000DFE7704710B5044600284AD090F8413068
:1041900003F0FF021BB980F84020FFF7F2FF242351
:1041A00084F8413023681A6822F001021A606268BC
:1041B00022F070621A619A6822F400429A60D4E98F
:1041C0000221012924D142F400429A605A68002059
:1041D00042F0007242F400425A60DA6822F400426F
:1041E000DA60D4E904210A43A16942EA0122DA60D3
:1041F000D4E907210A431A601A6842F001021A60E2
:104200002023606484F84130206384F8420010BDAC
:1042100042F4044202299A60D8D14FF400625A60F5
:10422000D4E70120F3E7704710B5044698B102685F
:10423000242380F84130136823F001031360FFF753
:10424000F2FF0020606484F8400084F8410020639D
:1042500084F8420010BD0120FCE700002DE9F74F73
:10426000994690F8413004460F46202B1646BDF87B
:1042700034A0DDF8388040F0C6800C9B13B1BAF151
:10428000000F06D14FF400736364012003B0BDE852
:10429000F08F90F84030012B00F0B5804FF0010B0B
:1042A00080F840B0FEF7C2FC1923054600905A463C
:1042B0004FF400412046FFF708FF0028E5D12123F5
:1042C0005FFA89F23946606384F84130402384F80C
:1042D00042300C9B6064204663624C4BA4F82AA0D9
:1042E00000934FF08073FFF72FFE2A464146204689
:1042F000FFF7C0FE18BBB9F1010F236815D1F6B264
:104300000022802120469E6243460095FFF7DDFE95
:10431000A8B9638D9BB2FF2B15D8628D4FF0007347
:10432000009092B22285D2B212E0320A4146204673
:104330009A622A46FFF79EFE08B92368DFE700234A
:1043400084F84030A1E7FF224FF08073009022856F
:1043500039462046FFF7F8FD2A4641462046FFF73A
:1043600089FE002891D1636A226813F8011B9162CB
:104370006362638D228D013B013A9BB292B26385E9
:10438000638D22859BB2B3B1AAB9434680212046F2
:104390000095FFF79AFE00287FF477AF638D9BB2FC
:1043A000FF2B28D9FF224FF08073009022853946D9
:1043B0002046FFF7C9FD638D9BB2002BCCD12A4666
:1043C00041462046FFF7B4FE00287FF45EAF236825
:1043D0002021D9615A6822F0FF7222F48B3222F434
:1043E000FF7222F001025A6084F8411084F8400004
:1043F00084F842004AE7628D4FF00073009092B259
:104400002285D2B2D3E7022040E700BF002000801F
:104410002DE9F74F994690F8413004460F46202B7E
:104420001646BDF834A0DDF8388040F0C9800C9BFA
:1044300013B1BAF1000F06D14FF400736364012089
:1044400003B0BDE8F08F90F84030012B00F0B88049
:104450004FF0010B80F840B0FEF7E8FB1923009005
:1044600005465A464FF400412046FFF72EFE03460C
:104470000028E4D122223946606384F8412040229A
:1044800084F842200C9A6064204662624D4AA4F887
:104490002AA000925FFA89F2FFF756FD2A464146AC
:1044A0002046FFF7E7FD20BBB9F1010F236816D1C5
:1044B000F6B20022402120469E6243460095FFF757
:1044C00004FEB0B9638D9BB2FF2B3F4B15D8628DB4
:1044D00000934FF0007392B22285D2B212E0320AFA
:1044E000414620469A622A46FFF7C4FD08B9236870
:1044F000DEE7002384F84030A1E7FF2200934FF06D
:104500008073228539462046FFF71EFD4346002270
:10451000042120460095FFF7D8FD00288FD123689D
:104520005A6A636A1A70636A228D0133013A6362C0
:10453000638D92B2013B22859BB26385638D9BB2F2
:10454000B3B1AAB94346802120460095FFF7BDFDCF
:1045500000287FF474AF638D9BB2FF2B28D9FF2214
:104560004FF080730090228539462046FFF7ECFC1F
:10457000638D9BB2002BC9D12A4641462046FFF7E6
:10458000D7FD00287FF45BAF23682021D9615A68EA
:1045900022F0FF7222F48B3222F4FF7222F0010229
:1045A0005A6084F8411084F8400084F8420047E7DC
:1045B000628D4FF00073009092B22285D2B2D3E7A1
:1045C00002203DE7002000800024008090F8410098
:1045D0007047406C704710B590F84130202BDCB22A
:1045E0001DD190F84030012B19D0242380F84130A0
:1045F00003681A6822F001021A601A6822F48052D5
:104600001A601A68114319601A6842F001021A60B0
:10461000002380F8414080F84030184610BD022049
:10462000FCE710B590F84130202BDCB21CD190F89B
:104630004030012B18D0242380F8413003681A68D9
:1046400022F001021A601A6822F4706242EA012123
:1046500019601A6842F001021A60002380F8414094
:1046600080F84030184610BD0220FCE770B51C4DA4
:104670000446EB6803F00703062B06D0E86800F059
:104680003F00001B18BF012070BDEB6823F03F0303
:104690000343EB60FEF7CAFA06466B689A0408D536
:1046A000A4F11D03012B0CD92D3C012C09D90020AC
:1046B000EAE7FEF7BBFA801BB0F57A7FEDD901205F
:1046C000E2E7FEF7B3FA064D0446EB68DB03EED4EF
:1046D000FEF7ACFA001BB0F57A7FF6D9EFE700BF22
:1046E00000480258F8B5044608B901208CE0036878
:1046F000D8075ED42368990700F1AC802368DA06F6
:1047000027D59C4A1369916A03F03803082B07D018
:10471000182B40F0038101F00303012B40F0FE80D1
:104720001368DB0502D5E369802BDED1FEF796FA2C
:1047300041F20303216A98428E4B00F2E8805A68E6
:10474000202922F0F8420CBF42F0804242EA816206
:104750005A602368190700F1228123689A0600F144
:10476000438123685D071ED5834D2B6843F4807316
:104770002B60FEF75BFA06462B68DA0540F159819B
:10478000A3687C4D012B40F05B812B6F43F001034C
:104790002B6741F28837FEF749FA764E0546336FAC
:1047A0009B0740F17381606A002840F07681002009
:1047B0002AE0704A1369916A03F03803102B05D080
:1047C000182B0AD101F00303022B06D113689A03B8
:1047D00090D56368002B8DD187E76368654DB3F58D
:1047E000803F12D12B6843F480332B60FEF71EFA12
:1047F000604E054633689B033FF57CAFFEF716FA23
:10480000401B6428F6D90320F8BDA3B92B6823F414
:1048100080332B602B6823F480232B60FEF706FA8D
:1048200006462B689F037FF565AFFEF7FFF9801BF7
:104830006428F6D9E7E7B3F5A02F2B6803D143F43A
:1048400080232B60CEE723F480332B602B6823F486
:104850008023CAE74749E2680B69886A13F0380386
:1048600003D0182B2BD1800729D10B685B0702D509
:10487000002A3FF43AAF3F4D2B6823F0190313434E
:104880002B60FEF7D3F906462B685F0711D5FEF7BC
:10489000E5F941F20303226998426B6822D823F4B8
:1048A0007C33402A0CBF43F4003343EA02336B608D
:1048B00024E7FEF7BBF9801B0228E5D9A3E72D4DBD
:1048C0002B68A2B123F0190313432B60FEF7AEF956
:1048D00006462B685807DAD4FEF7A8F9801B022891
:1048E000F7D990E723F0FE4343EA0263DFE723F0C2
:1048F00001032B60FEF79AF906462B6859077FF5EE
:10490000FDAEFEF793F9801B0228F6D97BE7DA6843
:1049100022F07C5242EA0162DA601AE7E369154D3F
:1049200063B32B6843F080032B60FEF77FF90646E4
:104930002B68DF0511D5FEF791F941F20303226AD6
:10494000984210D86B68202A23F0F8430CBF43F03C
:10495000804343EA82636B60FBE6FEF767F9801BE6
:104960000228E5D94FE7EB6823F07C5343EA026362
:10497000EB60EEE600440258004802582B6823F032
:1049800080032B60FEF752F906462B68D8057FF5A9
:10499000E0AEFEF74BF9801B0228F6D933E76369D6
:1049A000A54D83B16B6F43F001036B67FEF73EF9D2
:1049B00006466B6F9B073FF5D0AEFEF737F9801BBD
:1049C0000228F6D91FE76B6F23F001036B67FEF730
:1049D0002DF906466B6F9F077FF5BFAEFEF726F9F0
:1049E000801B0228F6D90EE7A369934D83B12B688B
:1049F00043F480532B60FEF719F906462B689804A0
:104A00003FF5AFAEFEF712F9801B0228F6D9FAE6A1
:104A10002B6823F480532B60FEF708F906462B68B9
:104A200099047FF59EAEFEF701F9801B0228F6D9A6
:104A3000E9E6FEF7FBF8801B64287FF69DAEE2E610
:104A4000B3B92B6F41F2883723F001032B672B6F2B
:104A500023F004032B67FEF7E9F806462B6F98074F
:104A60007FF5A1AEFEF7E2F8801BB842F6D9CAE6A0
:104A7000052B2B6F03D143F004032B6785E623F04E
:104A800001032B672B6F23F0040381E6FEF7CEF8BA
:104A9000401BB8427FF683AEB5E6674D2B6903F045
:104AA0003803182B7AD02B68022823F080732B60F0
:104AB00067D1FEF7BBF806462B6899015BD4AB6A59
:104AC000A26A23F47C7323F003031343E26A43EAEC
:104AD0000213AB62636BA26B013B013A5B021204EF
:104AE0009BB202F4FE021343226B013AC2F30802A6
:104AF0001343E26B013A120602F0FE4213432B63AA
:104B0000EB6A23F00103EB626B6BA26C23F47F432F
:104B100023F0F80343EAC2036B63EB6A226C23F0D1
:104B20000C031343EB62EB6A626C23F00203134342
:104B3000EB62EB6A43F48033EB62EB6A43F40033DD
:104B4000EB62EB6A43F48023EB62EB6A43F0010310
:104B5000EB622B6843F080732B60FEF767F8364DED
:104B600004462B689A013FF522AEFEF75FF8001B62
:104B70000228F6D947E6FEF759F8801B02289BD990
:104B800041E6FEF753F804462B689B017FF50FAE14
:104B9000FEF74CF8001B0228F6D934E60128AA6A71
:104BA0002B6B3FF431AE02F00301A06A81427FF427
:104BB0009CADC2F30512E16A8A427FF496AD226B86
:104BC000C3F30801013A91427FF48FAD626BC3F3E6
:104BD0004621013A91427FF488ADA26BC3F30641AE
:104BE000013A91427FF481ADE26BC3F30663013A6F
:104BF00093427FF47AAD6B6BA26CC3F3CC039A4201
:104C00003FF4D5AD0C4DEB6A23F00103EB62FEF7E8
:104C10000DF80646FEF70AF8B042FBD06B6BA26CAB
:104C200023F47F4323F0F80343EAC2036B63EB6A88
:104C300043F00103EB62BAE50044025870B5234C1F
:104C400088B00E461546D4F8E030F8B943F00103B9
:104C50004FF4807C03A9C4F8E030D4F8E03007902A
:104C600003F001030193019B0223CDE903C3032356
:104C7000CDE905031648FEF79DFF236923F0FE7377
:104C800043EA06012943216108B070BD43F00403E3
:104C90004FF4007203210F48C4F8E030D4F8E0303C
:104CA00003F004030293029B0223CDE903230023B4
:104CB000CDE9053103A90793FEF77CFF236923F0B3
:104CC0007E4343EA060141EAC511DCE7004402588D
:104CD0000000025800080258024A136843F40023F7
:104CE0001360704700440258494B1A6902F03802B9
:104CF000102A30B500F08880182A0CD0002A40F025
:104D000085801A68434812F0200F03D01B68C3F354
:104D1000C103D84030BD996A9D6ADC6A15F47C7F76
:104D2000C5F305105A6BF5D0C2F3CC0204F00104B0
:104D300001F0030107EE900A6243B7EE006A012911
:104D4000B8EEE77A06EE902AFAEEE96A4ED002292A
:104D50003ED000294AD11A68920627D519682D4AF3
:104D6000C1F3C1011B6BCA40C3F3080307EE902ACD
:104D7000F8EEE75AC5EE877A07EE103AB8EEC77A32
:104D800037EE267A37EE067A67EE877A204B1B6B72
:104D9000C3F34623013307EE103AF8EEC76A87EEF5
:104DA000A67AFCEEC77A17EE900AB3E71B6BC3F343
:104DB000080307EE903AF8EEE77A77EEA67A77EEF8
:104DC000867A9FED156AC6EE076A67EEA67ADDE77A
:104DD0001B6BC3F3080307EE903AF8EEE77A77EE21
:104DE000A67A77EE867A9FED0D6AECE71B6BC3F32C
:104DF000080307EE903AF8EEE77A77EEA67A77EEB8
:104E0000867A9FED076ADEE7064883E7064881E772
:104E1000004402580090D0030024744C20BCBE4BC8
:104E20000024744A40787D0100093D002DE9F041DD
:104E30000D46044610B90120BDE8F081884A136888
:104E400003F00F038B42C0F0938023685F0700F1EB
:104E50009B801E070BD583496069CA6902F0700206
:104E6000904204D9CA6922F070020243CA61D8068E
:104E70000BD57C49A069CA6902F4E062904204D96A
:104E8000CA6922F4E0620243CA6199060BD57549EA
:104E9000E0690A6A02F07002904204D90A6A22F0BC
:104EA000700202430A629A070BD56E49E0688A696C
:104EB00002F00F02904204D98A6922F00F020243E5
:104EC0008A61DF076ED423689E0700F1A1806449E0
:104ED0000A6802F00F02AA4200F2A880580700F107
:104EE000B18019070BD55F496069CA6902F0700289
:104EF000904204D2CA6922F070020243CA61DA0603
:104F00000BD55849A069CA6902F4E062904204D204
:104F1000CA6922F4E0620243CA619B060BD5514A7A
:104F2000E169136A03F07003994204D2136A23F013
:104F300070030B431362FFF7D7FE4A494A4A8B6955
:104F4000C3F30323D35C03F01F03D8408B6903F042
:104F50000F03D35C454A03F01F0320FA03F31360E9
:104F6000434B1860434BBDE8F0411868FDF7FEBDA8
:104F7000136823F00F030B431360136803F00F0350
:104F80008B427FF458AF60E7364920698A6902F0A6
:104F9000700290427FF65DAF8A6922F07002024390
:104FA0008A6156E72F4BA1689A6922F470620A431E
:104FB0009A6161681A6802291DD112F4003F3FF41A
:104FC0003AAF1A6941F28838264F22F007020A43A5
:104FD0001A61FDF72BFE06463B69626803F0380351
:104FE000B3EBC20F3FF46FAFFDF720FE801B4045CF
:104FF000F2D9032020E7032902D112F0007FDEE777
:10500000012902D112F4807FD9E712F0040FD6E70C
:105010001449E0688A6902F00F029042BFF457AF6A
:105020008A6922F00F0202438A6150E70A6822F07F
:105030000F022A430A600A6802F00F02AA427FF4B4
:10504000FAAE4BE7074920698A6902F07002904284
:10505000BFF447AF8A6922F0700202438A6140E7D9
:105060000020005200440258E7D000080400002449
:10507000000000245C00002410B50C4CFFF734FE47
:105080000B49A369C3F30323CB5C03F01F0320FA8E
:1050900003F2A36903F00F03CB5C03F01F0322FAB2
:1050A00003F0044B1860044B1A6010BD0044025812
:1050B000E7D00008040000240000002408B5FFF732
:1050C000DBFF054B054ADB69C3F30213D35C03F036
:1050D0001F03D84008BD00BF00440258E7D00008B5
:1050E00008B5FFF7C9FF054B054ADB69C3F3022387
:1050F000D35C03F01F03D84008BD00BF0044025832
:10510000E7D000087047000010B5054C636E5B05E2
:1051100004D5FFF7F7FF4FF48063A36610BD00BF0F
:1051200000440258F8B53A4C06460D46A36A03F00F
:105130000303032B69D0236823F080632360FDF70A
:1051400075FD074623681A014BD4A36A326823F41D
:105150007C3343EA0233A362B368F268013B013A4D
:105160005B0212049BB202F4FE0213437268013A1E
:10517000C2F3080213433269013A120602F0FE42FA
:105180001343A363E36A726923F0C0031343E3622A
:10519000E36AB26923F020031343E362E36A23F076
:1051A0001003E362E36BF26923F47F4323F0F80317
:1051B00043EAC203E363E36A43F01003E362E36A92
:1051C000B5B943F40023E362114C236843F08063D4
:1051D0002360FDF72BFD054623681B010FD500203A
:1051E00005E0FDF723FDC01B0228ABD90320F8BD65
:1051F000012D0CBF43F4801343F40013E3E7FDF7E4
:1052000015FD401B0228E7D9F0E70120EFE700BFBA
:1052100000440258F8B53A4C06460D46A36A03F01E
:105220000303032B69D0236823F080532360FDF729
:10523000FDFC074623689A004BD4A36A326823F02A
:105240007C7343EA0253A362B368F268013B013AFC
:105250005B0212049BB202F4FE0213437268013A2D
:10526000C2F3080213433269013A120602F0FE4209
:1052700013432364E36A726923F440631343E362D4
:10528000E36AB26923F400731343E362E36A23F42D
:105290008073E362636CF26923F47F4323F0F803C5
:1052A00043EAC2036364E36A43F48073E362E36A3C
:1052B000B5B943F48003E362114C236843F0805393
:1052C0002360FDF7B3FC054623689B000FD5002043
:1052D00005E0FDF7ABFCC01B0228ABD90320F8BDED
:1052E000012D0CBF43F4000343F08073E3E7FDF7A7
:1052F0009DFC401B0228E7D9F0E70120EFE700BF43
:10530000004402582DE9F843036805461C0103F0E8
:10531000006609D5C36EB3F5001F2ED013D8F3B1C4
:10532000B3F5801F21D001262B68D80540F10481F8
:10533000EB6D042B00F2FF80DFE813F024002B005C
:10534000F70029002900B3F5401FECD1AA4A002636
:10535000E96E136D23F440130B431365E4E7A64A8B
:10536000D36A43F40033D362F0E702210830FFF739
:10537000D9FE06460028D7D1E8E702212830FFF7FA
:1053800049FFF6E79C4AD36A43F40033D3623446BC
:1053900005E0002105F10800FFF7C4FE0446002CDB
:1053A00040F0CC80944AE96D136D23F007030B4362
:1053B00013652B6899050DD52B6E802B00F0DC80D2
:1053C00000F2BE80002B00F0CA80402B00F0CD80A0
:1053D000012634462B685A0510D5D5F8AC30B3F504
:1053E000800F00F0EF8000F2CF80002B00F0DD8016
:1053F000B3F5001F00F0DF80012634462B681B0543
:1054000010D5D5F8B030B3F1007F00F0048100F280
:10541000E180002B00F0F280B3F1807F00F0F48097
:10542000012634462B689F010DD5EB6C202B00F034
:105430000C8100F2F880002B00F0F880102B00F0B7
:10544000FE80012634462B68D8040FD56B6EB3F569
:10545000005F00F0208100F20181002B00F00E813E
:10546000B3F5805F00F01081012634462B68990463
:105470000FD5AB6EB3F5003F00F02E8100F2138123
:10548000002B00F01981B3F5803F00F01E8101264A
:1054900034462B685A0410D5D5F8B430B3F1005F08
:1054A00000F03C8100F22081002B00F02681B3F156
:1054B000805F00F02C81012634462B685B0115D5F6
:1054C0002B6D4BB1B3F5807F40F03081012105F1A8
:1054D0000800FFF727FE0446002C40F02A81464AC8
:1054E000296DD36C23F480730B43D3642B681F04A2
:1054F0000DD56B6FB3F1805F00F01D81B3F1005FDC
:1055000000F02781002B00F01B81012634462B6818
:10551000D80140F13581AB6C032B00F27681DFE8D6
:1055200013F0260121016D012601002105F128005B
:10553000FFF770FE32E7012634463AE7264638E7A1
:10554000C02B03D0B3F5807F7FF442AFD4B92A4A91
:10555000296E136D23F4E0730B4313653AE7264A73
:10556000D36A43F40033D362F0E7002105F1080069
:10557000FFF7D8FD0446E9E7002105F12800FFF711
:1055800049FEF7E7264625E7B3F5C00F03D0B3F58C
:10559000000F7FF431AFDCB9174AD5F8AC10936D2A
:1055A00023F460030B43936528E7134AD36A43F45B
:1055B0000033D362EFE7002105F10800FFF7B2FDE9
:1055C0000446E8E7002105F12800FFF723FEF7E78E
:1055D000264613E7B3F1407F03D0B3F1806F7FF429
:1055E0001FAFF4B9044AD5F8B010936D23F0E0630F
:1055F0000B43936516E700BF00440258A14AD36AE3
:1056000043F40033D362ECE7002105F10800FFF713
:1056100089FD0446E5E7002105F12800FFF7FAFDC2
:10562000F7E72646FEE6302B7FF40BAFA4B9954A88
:10563000E96CD36C23F030030B43D36403E7914A46
:10564000D36A43F40033D362F0E7022105F1080086
:10565000FFF768FD0446E9E72646F4E6B3F5405F48
:1056600003D0B3F5804F7FF4FFAED4B9854A696E9D
:10567000136D23F4E0430B431365F7E6814AD36AC5
:1056800043F40033D362F0E7002105F10800FFF78F
:1056900049FD0446E9E7002105F12800FFF7BAFDBE
:1056A000F7E72646E2E623F48032B2F5802F03D0F6
:1056B000B3F5403F7FF4EBAEA4B9724AA96E136D07
:1056C00023F4E0230B431365E3E6012105F1080011
:1056D000FFF728FD0446EFE7012105F12800FFF759
:1056E00099FDF7E72646D4E623F08052B2F1804FC9
:1056F00003D0B3F1405F7FF4DEAEACB9614AD5F8B8
:10570000B410936D23F0E0430B439365D5E601217C
:1057100005F10800FFF706FD0446EEE7012105F15B
:105720002800FFF777FDF7E72646C6E60126344650
:10573000DCE62646DAE6534AD36A43F40033D36202
:1057400074B9504A696F136D23F040530B431365CE
:10575000DDE6012105F10800FFF7E4FC0446EFE770
:105760002646D4E6474AD36A43F40033D362002C7A
:105770004ED1444AA96CD36C23F003030B43D3648A
:105780002B6859024ED5404F3B6843F480733B6011
:10579000FDF74CFA80463B68DA053BD5002C6FD10B
:1057A000384BD5F8B8001A6F424012F4407F0BD046
:1057B0001A6F196F22F4407241F480311967196F22
:1057C00021F4803119671A67B0F5807F43D0D5F88E
:1057D000B8302C4903F44072B2F5407F4CD10869CF
:1057E0002A4A20F47C5002EA131202430A61C3F3EE
:1057F0000B03244A116F0B43136713E0022105F1D9
:105800000800FFF78FFC0446B1E701263446B7E7EE
:105810002646B5E7FDF70AFAA0EB08006428BAD9D6
:10582000032634462B68D8070AD5D5F88030102BCC
:1058300045D02DD8002B31D0082B39D00126344645
:105840002B68990751D5EB6F052B64D8DFE803F07F
:10585000453F5D454545FDF7E9F9DFF828800746F6
:1058600041F28839D8F870309B07B0D4FDF7DEF9E3
:10587000C01B4845F6D9D3E70A6922F47C52B5E744
:105880002646CFE70044025800480258CFFFFF00E9
:1058900023F00802202A01D0182BCFD1ACB9204A1E
:1058A000D5F88010536D23F038030B435365C7E7D9
:1058B000012105F10800FFF735FC0446EEE7012160
:1058C00005F12800FFF7A6FCF7E72646B8E7012117
:1058D00005F10800FFF726FC0446FCB9104AE96F01
:1058E000536D23F007030B4353652B685A072AD5E2
:1058F000D5F89830052B00F27B81DFE813F0190012
:1059000013007301190019001900012105F1280085
:10591000FFF780FCE0E701263446E6E72646E4E7A9
:1059200000440258012105F10800FFF7FBFB044683
:10593000002C40F06081AA4AD5F89810936D23F0AE
:1059400007030B4393652B689B0610D5D5F894305D
:10595000B3F1005F00F06B8100F24F81002B00F08B
:105960005581B3F1805F00F05B81012634462B68DE
:105970005F0610D5D5F8A030B3F5006F00F079813F
:1059800000F25D81002B00F06381B3F5806F00F0C1
:105990006981012634462B68180610D5D5F8A43045
:1059A000B3F5804F00F0878100F26B81002B00F08F
:1059B0007181B3F5005F00F07781012634462B68D2
:1059C000190714D5D5F88830B3F5805F07D10221C7
:1059D00005F12800FFF71EFC002818BF0126804AA9
:1059E000D5F88810536D23F440530B4353652B684F
:1059F000DA0614D5D5F89C30B3F5807F07D10221A3
:105A000005F12800FFF706FC002818BF0126744A9C
:105A1000D5F89C10936D23F440730B4393652B686A
:105A20001B031BD5D5F8A810B1F5803F00F04B81C2
:105A3000B1F5003F07D0002940F04B8105F1080087
:105A4000FFF770FB0446002C40F04681644AD5F80D
:105A5000A810936D23F440330B4393652B685F03C9
:105A60001CD5D5F88C30B3F5001F00F03781B3F5A5
:105A7000401F08D0B3F5801F40F03781584AD36AE1
:105A800043F40033D362002C40F03281544AD5F8FD
:105A90008C10536D23F440130B4353652B68D803CC
:105AA00009D56B6D002B00F02581B3F5803F00F028
:105AB0002F81012634462B68990007D5022105F174
:105AC0002800FFF7A7FB002818BF0126D5E9003101
:105AD0009A030BD5D5F88400B0F5807F00F02F81B4
